{
  "contractName": "Blood",
  "abi": [
    {
      "inputs": [],
      "payable": false,
      "stateMutability": "nonpayable",
      "type": "constructor"
    },
    {
      "anonymous": false,
      "inputs": [
        {
          "indexed": false,
          "internalType": "uint256",
          "name": "id",
          "type": "uint256"
        },
        {
          "indexed": false,
          "internalType": "uint256",
          "name": "donation_date",
          "type": "uint256"
        },
        {
          "indexed": false,
          "internalType": "address payable",
          "name": "donor",
          "type": "address"
        },
        {
          "indexed": false,
          "internalType": "address payable",
          "name": "bank",
          "type": "address"
        },
        {
          "indexed": false,
          "internalType": "string",
          "name": "blood_group",
          "type": "string"
        },
        {
          "indexed": false,
          "internalType": "uint256",
          "name": "expiry",
          "type": "uint256"
        },
        {
          "indexed": false,
          "internalType": "string",
          "name": "owner_name",
          "type": "string"
        },
        {
          "indexed": false,
          "internalType": "address payable",
          "name": "owner",
          "type": "address"
        },
        {
          "indexed": false,
          "internalType": "uint256",
          "name": "price",
          "type": "uint256"
        }
      ],
      "name": "BagCreated",
      "type": "event"
    },
    {
      "anonymous": false,
      "inputs": [
        {
          "indexed": false,
          "internalType": "uint256[]",
          "name": "array",
          "type": "uint256[]"
        }
      ],
      "name": "arr",
      "type": "event"
    },
    {
      "anonymous": false,
      "inputs": [
        {
          "indexed": false,
          "internalType": "string",
          "name": "message",
          "type": "string"
        }
      ],
      "name": "message",
      "type": "event"
    },
    {
      "constant": true,
      "inputs": [],
      "name": "admin",
      "outputs": [
        {
          "internalType": "address payable",
          "name": "",
          "type": "address"
        }
      ],
      "payable": false,
      "stateMutability": "view",
      "type": "function"
    },
    {
      "constant": true,
      "inputs": [],
      "name": "bagCount",
      "outputs": [
        {
          "internalType": "uint256",
          "name": "",
          "type": "uint256"
        }
      ],
      "payable": false,
      "stateMutability": "view",
      "type": "function"
    },
    {
      "constant": true,
      "inputs": [
        {
          "internalType": "uint256",
          "name": "",
          "type": "uint256"
        }
      ],
      "name": "bloodbags",
      "outputs": [
        {
          "internalType": "uint256",
          "name": "id",
          "type": "uint256"
        },
        {
          "internalType": "uint256",
          "name": "donation_date",
          "type": "uint256"
        },
        {
          "internalType": "address payable",
          "name": "donor",
          "type": "address"
        },
        {
          "internalType": "address payable",
          "name": "bank",
          "type": "address"
        },
        {
          "internalType": "string",
          "name": "blood_group",
          "type": "string"
        },
        {
          "internalType": "uint256",
          "name": "expiry",
          "type": "uint256"
        },
        {
          "internalType": "string",
          "name": "owner_name",
          "type": "string"
        },
        {
          "internalType": "address payable",
          "name": "owner",
          "type": "address"
        },
        {
          "internalType": "uint256",
          "name": "price",
          "type": "uint256"
        }
      ],
      "payable": false,
      "stateMutability": "view",
      "type": "function"
    },
    {
      "constant": true,
      "inputs": [],
      "name": "dateTimeAddr",
      "outputs": [
        {
          "internalType": "address",
          "name": "",
          "type": "address"
        }
      ],
      "payable": false,
      "stateMutability": "view",
      "type": "function"
    },
    {
      "constant": true,
      "inputs": [
        {
          "internalType": "address",
          "name": "",
          "type": "address"
        },
        {
          "internalType": "uint256",
          "name": "",
          "type": "uint256"
        }
      ],
      "name": "donors",
      "outputs": [
        {
          "internalType": "uint256",
          "name": "",
          "type": "uint256"
        }
      ],
      "payable": false,
      "stateMutability": "view",
      "type": "function"
    },
    {
      "constant": true,
      "inputs": [
        {
          "internalType": "address",
          "name": "",
          "type": "address"
        },
        {
          "internalType": "uint256",
          "name": "",
          "type": "uint256"
        }
      ],
      "name": "hospitals",
      "outputs": [
        {
          "internalType": "uint256",
          "name": "",
          "type": "uint256"
        }
      ],
      "payable": false,
      "stateMutability": "view",
      "type": "function"
    },
    {
      "constant": true,
      "inputs": [],
      "name": "name",
      "outputs": [
        {
          "internalType": "string",
          "name": "",
          "type": "string"
        }
      ],
      "payable": false,
      "stateMutability": "view",
      "type": "function"
    },
    {
      "constant": true,
      "inputs": [
        {
          "internalType": "uint256",
          "name": "",
          "type": "uint256"
        }
      ],
      "name": "temp_array",
      "outputs": [
        {
          "internalType": "uint256",
          "name": "",
          "type": "uint256"
        }
      ],
      "payable": false,
      "stateMutability": "view",
      "type": "function"
    },
    {
      "constant": true,
      "inputs": [],
      "name": "today",
      "outputs": [
        {
          "internalType": "uint256",
          "name": "",
          "type": "uint256"
        }
      ],
      "payable": false,
      "stateMutability": "view",
      "type": "function"
    },
    {
      "constant": true,
      "inputs": [
        {
          "internalType": "address",
          "name": "",
          "type": "address"
        }
      ],
      "name": "usertype",
      "outputs": [
        {
          "internalType": "uint256",
          "name": "",
          "type": "uint256"
        }
      ],
      "payable": false,
      "stateMutability": "view",
      "type": "function"
    },
    {
      "constant": true,
      "inputs": [
        {
          "internalType": "address",
          "name": "_donor",
          "type": "address"
        }
      ],
      "name": "getArray",
      "outputs": [
        {
          "internalType": "uint256[]",
          "name": "",
          "type": "uint256[]"
        }
      ],
      "payable": false,
      "stateMutability": "view",
      "type": "function"
    },
    {
      "constant": true,
      "inputs": [
        {
          "internalType": "address",
          "name": "_hospital",
          "type": "address"
        }
      ],
      "name": "getHbags",
      "outputs": [
        {
          "internalType": "uint256[]",
          "name": "",
          "type": "uint256[]"
        }
      ],
      "payable": false,
      "stateMutability": "view",
      "type": "function"
    },
    {
      "constant": true,
      "inputs": [],
      "name": "getTemp",
      "outputs": [
        {
          "internalType": "uint256[]",
          "name": "",
          "type": "uint256[]"
        }
      ],
      "payable": false,
      "stateMutability": "view",
      "type": "function"
    },
    {
      "constant": false,
      "inputs": [
        {
          "internalType": "uint256",
          "name": "_donation_date",
          "type": "uint256"
        },
        {
          "internalType": "address payable",
          "name": "_donor",
          "type": "address"
        },
        {
          "internalType": "string",
          "name": "_blood_group",
          "type": "string"
        },
        {
          "internalType": "uint256",
          "name": "_expiry",
          "type": "uint256"
        },
        {
          "internalType": "string",
          "name": "_owner_name",
          "type": "string"
        }
      ],
      "name": "createBloodbag",
      "outputs": [],
      "payable": false,
      "stateMutability": "nonpayable",
      "type": "function"
    },
    {
      "constant": false,
      "inputs": [
        {
          "internalType": "address",
          "name": "_bank",
          "type": "address"
        }
      ],
      "name": "createBank",
      "outputs": [],
      "payable": false,
      "stateMutability": "nonpayable",
      "type": "function"
    },
    {
      "constant": false,
      "inputs": [
        {
          "internalType": "address",
          "name": "_hosp",
          "type": "address"
        }
      ],
      "name": "createHosp",
      "outputs": [],
      "payable": false,
      "stateMutability": "nonpayable",
      "type": "function"
    },
    {
      "constant": true,
      "inputs": [
        {
          "internalType": "string",
          "name": "a",
          "type": "string"
        },
        {
          "internalType": "string",
          "name": "b",
          "type": "string"
        }
      ],
      "name": "compareStrings",
      "outputs": [
        {
          "internalType": "bool",
          "name": "",
          "type": "bool"
        }
      ],
      "payable": false,
      "stateMutability": "pure",
      "type": "function"
    },
    {
      "constant": false,
      "inputs": [
        {
          "internalType": "string",
          "name": "_bg",
          "type": "string"
        }
      ],
      "name": "h_showInventory",
      "outputs": [
        {
          "internalType": "uint256[]",
          "name": "",
          "type": "uint256[]"
        }
      ],
      "payable": false,
      "stateMutability": "nonpayable",
      "type": "function"
    }
  ],
  "bytecode": "0x6080604052730935234f7d0851753dc4017985b622ac768edd42600160006101000a81548173ffffffffffffffffffffffffffffffffffffffff021916908373ffffffffffffffffffffffffffffffffffffffff160217905550730935234f7d0851753dc4017985b622ac768edd42600260006101000a81548173ffffffffffffffffffffffffffffffffffffffff021916908373ffffffffffffffffffffffffffffffffffffffff160217905550600160009054906101000a900473ffffffffffffffffffffffffffffffffffffffff16600360006101000a81548173ffffffffffffffffffffffffffffffffffffffff021916908373ffffffffffffffffffffffffffffffffffffffff16021790555060006006553480156200012357600080fd5b506040518060400160405280600a81526020017f5072616e617620476f7200000000000000000000000000000000000000000000815250600590805190602001906200017192919062000238565b50600e600a6000600260009054906101000a900473ffffffffffffffffffffffffffffffffffffffff1673ffffffffffffffffffffffffffffffffffffffff1673ffffffffffffffffffffffffffffffffffffffff168152602001908152602001600020819055506003600a6000732eeb28e7acec6f402ee207d82ef1f7aabedb312a73ffffffffffffffffffffffffffffffffffffffff1673ffffffffffffffffffffffffffffffffffffffff16815260200190815260200160002081905550620002e7565b828054600181600116156101000203166002900490600052602060002090601f016020900481019282601f106200027b57805160ff1916838001178555620002ac565b82800160010185558215620002ac579182015b82811115620002ab5782518255916020019190600101906200028e565b5b509050620002bb9190620002bf565b5090565b620002e491905b80821115620002e0576000816000905550600101620002c6565b5090565b90565b6121e080620002f76000396000f3fe608060405234801561001057600080fd5b50600436106101165760003560e01c8063a5cad521116100a2578063bed34bba11610071578063bed34bba1461094d578063d2c5ce3114610ab7578063e8c880b414610b01578063ef1ad30b14610b1f578063f851a44014610b6357610116565b8063a5cad52114610810578063aabd2eb214610852578063b2c5088b146108eb578063b74e452b1461092f57610116565b806376a0436b116100e957806376a0436b146104575780638b0963491461056757806395252560146106ed5780639715afe11461074c5780639b56f5f0146107ae57610116565b806306fdde031461011b5780633164582e1461019e5780634309e4c6146101f6578063479797a7146103be575b600080fd5b610123610bad565b6040518080602001828103825283818151815260200191508051906020019080838360005b83811015610163578082015181840152602081019050610148565b50505050905090810190601f1680156101905780820380516001836020036101000a031916815260200191505b509250505060405180910390f35b6101e0600480360360208110156101b457600080fd5b81019080803573ffffffffffffffffffffffffffffffffffffffff169060200190929190505050610c4b565b6040518082815260200191505060405180910390f35b6102226004803603602081101561020c57600080fd5b8101908080359060200190929190505050610c63565b604051808a81526020018981526020018873ffffffffffffffffffffffffffffffffffffffff1673ffffffffffffffffffffffffffffffffffffffff1681526020018773ffffffffffffffffffffffffffffffffffffffff1673ffffffffffffffffffffffffffffffffffffffff16815260200180602001868152602001806020018573ffffffffffffffffffffffffffffffffffffffff1673ffffffffffffffffffffffffffffffffffffffff168152602001848152602001838103835288818151815260200191508051906020019080838360005b838110156103145780820151818401526020810190506102f9565b50505050905090810190601f1680156103415780820380516001836020036101000a031916815260200191505b50838103825286818151815260200191508051906020019080838360005b8381101561037a57808201518184015260208101905061035f565b50505050905090810190601f1680156103a75780820380516001836020036101000a031916815260200191505b509b50505050505050505050505060405180910390f35b610400600480360360208110156103d457600080fd5b81019080803573ffffffffffffffffffffffffffffffffffffffff169060200190929190505050610e41565b6040518080602001828103825283818151815260200191508051906020019060200280838360005b83811015610443578082015181840152602081019050610428565b505050509050019250505060405180910390f35b6105106004803603602081101561046d57600080fd5b810190808035906020019064010000000081111561048a57600080fd5b82018360208201111561049c57600080fd5b803590602001918460018302840111640100000000831117156104be57600080fd5b91908080601f016020809104026020016040519081016040528093929190818152602001838380828437600081840152601f19601f820116905080830192505050505050509192919290505050610ed8565b6040518080602001828103825283818151815260200191508051906020019060200280838360005b83811015610553578082015181840152602081019050610538565b505050509050019250505060405180910390f35b6106eb600480360360a081101561057d57600080fd5b8101908080359060200190929190803573ffffffffffffffffffffffffffffffffffffffff169060200190929190803590602001906401000000008111156105c457600080fd5b8201836020820111156105d657600080fd5b803590602001918460018302840111640100000000831117156105f857600080fd5b91908080601f016020809104026020016040519081016040528093929190818152602001838380828437600081840152601f19601f820116905080830192505050505050509192919290803590602001909291908035906020019064010000000081111561066557600080fd5b82018360208201111561067757600080fd5b8035906020019184600183028401116401000000008311171561069957600080fd5b91908080601f016020809104026020016040519081016040528093929190818152602001838380828437600081840152601f19601f82011690508083019250505050505050919291929050505061122d565b005b6106f5611a1c565b6040518080602001828103825283818151815260200191508051906020019060200280838360005b8381101561073857808201518184015260208101905061071d565b505050509050019250505060405180910390f35b6107986004803603604081101561076257600080fd5b81019080803573ffffffffffffffffffffffffffffffffffffffff16906020019092919080359060200190929190505050611a74565b6040518082815260200191505060405180910390f35b6107fa600480360360408110156107c457600080fd5b81019080803573ffffffffffffffffffffffffffffffffffffffff16906020019092919080359060200190929190505050611aa2565b6040518082815260200191505060405180910390f35b61083c6004803603602081101561082657600080fd5b8101908080359060200190929190505050611ad0565b6040518082815260200191505060405180910390f35b6108946004803603602081101561086857600080fd5b81019080803573ffffffffffffffffffffffffffffffffffffffff169060200190929190505050611af1565b6040518080602001828103825283818151815260200191508051906020019060200280838360005b838110156108d75780820151818401526020810190506108bc565b505050509050019250505060405180910390f35b61092d6004803603602081101561090157600080fd5b81019080803573ffffffffffffffffffffffffffffffffffffffff169060200190929190505050611b88565b005b610937611d36565b6040518082815260200191505060405180910390f35b610a9d6004803603604081101561096357600080fd5b810190808035906020019064010000000081111561098057600080fd5b82018360208201111561099257600080fd5b803590602001918460018302840111640100000000831117156109b457600080fd5b91908080601f016020809104026020016040519081016040528093929190818152602001838380828437600081840152601f19601f82011690508083019250505050505050919291929080359060200190640100000000811115610a1757600080fd5b820183602082011115610a2957600080fd5b80359060200191846001830284011164010000000083111715610a4b57600080fd5b91908080601f016020809104026020016040519081016040528093929190818152602001838380828437600081840152601f19601f820116905080830192505050505050509192919290505050611d3c565b604051808215151515815260200191505060405180910390f35b610abf611e2b565b604051808273ffffffffffffffffffffffffffffffffffffffff1673ffffffffffffffffffffffffffffffffffffffff16815260200191505060405180910390f35b610b09611e51565b6040518082815260200191505060405180910390f35b610b6160048036036020811015610b3557600080fd5b81019080803573ffffffffffffffffffffffffffffffffffffffff169060200190929190505050611e57565b005b610b6b612005565b604051808273ffffffffffffffffffffffffffffffffffffffff1673ffffffffffffffffffffffffffffffffffffffff16815260200191505060405180910390f35b60058054600181600116156101000203166002900480601f016020809104026020016040519081016040528092919081815260200182805460018160011615610100020316600290048015610c435780601f10610c1857610100808354040283529160200191610c43565b820191906000526020600020905b815481529060010190602001808311610c2657829003601f168201915b505050505081565b600a6020528060005260406000206000915090505481565b60076020528060005260406000206000915090508060000154908060010154908060020160009054906101000a900473ffffffffffffffffffffffffffffffffffffffff16908060030160009054906101000a900473ffffffffffffffffffffffffffffffffffffffff1690806004018054600181600116156101000203166002900480601f016020809104026020016040519081016040528092919081815260200182805460018160011615610100020316600290048015610d675780601f10610d3c57610100808354040283529160200191610d67565b820191906000526020600020905b815481529060010190602001808311610d4a57829003601f168201915b505050505090806005015490806006018054600181600116156101000203166002900480601f016020809104026020016040519081016040528092919081815260200182805460018160011615610100020316600290048015610e0b5780601f10610de057610100808354040283529160200191610e0b565b820191906000526020600020905b815481529060010190602001808311610dee57829003601f168201915b5050505050908060070160009054906101000a900473ffffffffffffffffffffffffffffffffffffffff16908060080154905089565b6060600860008373ffffffffffffffffffffffffffffffffffffffff1673ffffffffffffffffffffffffffffffffffffffff168152602001908152602001600020805480602002602001604051908101604052809291908181526020018280548015610ecc57602002820191906000526020600020905b815481526020019060010190808311610eb8575b50505050509050919050565b606060003390506060610eea82611af1565b905060008451146112065760008090505b815181101561120057610f0c61202b565b60076000848481518110610f1c57fe5b602002602001015181526020019081526020016000206040518061012001604052908160008201548152602001600182015481526020016002820160009054906101000a900473ffffffffffffffffffffffffffffffffffffffff1673ffffffffffffffffffffffffffffffffffffffff1673ffffffffffffffffffffffffffffffffffffffff1681526020016003820160009054906101000a900473ffffffffffffffffffffffffffffffffffffffff1673ffffffffffffffffffffffffffffffffffffffff1673ffffffffffffffffffffffffffffffffffffffff168152602001600482018054600181600116156101000203166002900480601f0160208091040260200160405190810160405280929190818152602001828054600181600116156101000203166002900480156110975780601f1061106c57610100808354040283529160200191611097565b820191906000526020600020905b81548152906001019060200180831161107a57829003601f168201915b5050505050815260200160058201548152602001600682018054600181600116156101000203166002900480601f0160208091040260200160405190810160405280929190818152602001828054600181600116156101000203166002900480156111435780601f1061111857610100808354040283529160200191611143565b820191906000526020600020905b81548152906001019060200180831161112657829003601f168201915b505050505081526020016007820160009054906101000a900473ffffffffffffffffffffffffffffffffffffffff1673ffffffffffffffffffffffffffffffffffffffff1673ffffffffffffffffffffffffffffffffffffffff16815260200160088201548152505090506111bc868260800151611d3c565b156111f2576004816000015190806001815401808255809150509060018203906000526020600020016000909192909190915055505b508080600101915050610efb565b50611226565b61120f33611af1565b600490805190602001906112249291906120b9565b505b5050919050565b60008151116112a4576040517f08c379a000000000000000000000000000000000000000000000000000000000815260040180806020018281038252600d8152602001807f6572726f7220696e206e616d650000000000000000000000000000000000000081525060200191505060405180910390fd5b600083511161131b576040517f08c379a00000000000000000000000000000000000000000000000000000000081526004018080602001828103825260148152602001807f6572726f7220696e20626c6f6f642067726f757000000000000000000000000081525060200191505060405180910390fd5b60008511611391576040517f08c379a000000000000000000000000000000000000000000000000000000000815260040180806020018281038252600f8152602001807f6572726f7220696e20645f64617465000000000000000000000000000000000081525060200191505060405180910390fd5b848211611406576040517f08c379a00000000000000000000000000000000000000000000000000000000081526004018080602001828103825260118152602001807f6572726f7220696e206578705f6461746500000000000000000000000000000081525060200191505060405180910390fd5b600073ffffffffffffffffffffffffffffffffffffffff168473ffffffffffffffffffffffffffffffffffffffff1614156114a9576040517f08c379a000000000000000000000000000000000000000000000000000000000815260040180806020018281038252600e8152602001807f6572726f7220696e20646f6e6f7200000000000000000000000000000000000081525060200191505060405180910390fd5b6006600081548092919060010191905055506000600a60008673ffffffffffffffffffffffffffffffffffffffff1673ffffffffffffffffffffffffffffffffffffffff168152602001908152602001600020541415611549576001600a60008673ffffffffffffffffffffffffffffffffffffffff1673ffffffffffffffffffffffffffffffffffffffff168152602001908152602001600020819055505b61155161202b565b60405180610120016040528060065481526020018781526020018673ffffffffffffffffffffffffffffffffffffffff1681526020013373ffffffffffffffffffffffffffffffffffffffff1681526020018581526020018481526020018381526020013373ffffffffffffffffffffffffffffffffffffffff1681526020016001815250905080600760006006548152602001908152602001600020600082015181600001556020820151816001015560408201518160020160006101000a81548173ffffffffffffffffffffffffffffffffffffffff021916908373ffffffffffffffffffffffffffffffffffffffff16021790555060608201518160030160006101000a81548173ffffffffffffffffffffffffffffffffffffffff021916908373ffffffffffffffffffffffffffffffffffffffff16021790555060808201518160040190805190602001906116ac929190612106565b5060a0820151816005015560c08201518160060190805190602001906116d3929190612106565b5060e08201518160070160006101000a81548173ffffffffffffffffffffffffffffffffffffffff021916908373ffffffffffffffffffffffffffffffffffffffff1602179055506101008201518160080155905050600860008673ffffffffffffffffffffffffffffffffffffffff1673ffffffffffffffffffffffffffffffffffffffff168152602001908152602001600020816000015190806001815401808255809150509060018203906000526020600020016000909192909190915055506003600a60003373ffffffffffffffffffffffffffffffffffffffff1673ffffffffffffffffffffffffffffffffffffffff16815260200190815260200160002054141561184c57600960003373ffffffffffffffffffffffffffffffffffffffff1673ffffffffffffffffffffffffffffffffffffffff168152602001908152602001600020816000015190806001815401808255809150509060018203906000526020600020016000909192909190915055505b7f9ceca04f24875c5c9997aa8737bc9806620e80c3c2d0a753ee1661542cef6853600654878733888888336001604051808a81526020018981526020018873ffffffffffffffffffffffffffffffffffffffff1673ffffffffffffffffffffffffffffffffffffffff1681526020018773ffffffffffffffffffffffffffffffffffffffff1673ffffffffffffffffffffffffffffffffffffffff16815260200180602001868152602001806020018573ffffffffffffffffffffffffffffffffffffffff1673ffffffffffffffffffffffffffffffffffffffff168152602001848152602001838103835288818151815260200191508051906020019080838360005b8381101561196b578082015181840152602081019050611950565b50505050905090810190601f1680156119985780820380516001836020036101000a031916815260200191505b50838103825286818151815260200191508051906020019080838360005b838110156119d15780820151818401526020810190506119b6565b50505050905090810190601f1680156119fe5780820380516001836020036101000a031916815260200191505b509b50505050505050505050505060405180910390a1505050505050565b60606004805480602002602001604051908101604052809291908181526020018280548015611a6a57602002820191906000526020600020905b815481526020019060010190808311611a56575b5050505050905090565b60096020528160005260406000208181548110611a8d57fe5b90600052602060002001600091509150505481565b60086020528160005260406000208181548110611abb57fe5b90600052602060002001600091509150505481565b60048181548110611add57fe5b906000526020600020016000915090505481565b6060600960008373ffffffffffffffffffffffffffffffffffffffff1673ffffffffffffffffffffffffffffffffffffffff168152602001908152602001600020805480602002602001604051908101604052809291908181526020018280548015611b7c57602002820191906000526020600020905b815481526020019060010190808311611b68575b50505050509050919050565b600260009054906101000a900473ffffffffffffffffffffffffffffffffffffffff1673ffffffffffffffffffffffffffffffffffffffff163373ffffffffffffffffffffffffffffffffffffffff1614611c4b576040517f08c379a000000000000000000000000000000000000000000000000000000000815260040180806020018281038252600c8152602001807f4e6f7420616e2061646d696e000000000000000000000000000000000000000081525060200191505060405180910390fd5b600073ffffffffffffffffffffffffffffffffffffffff168173ffffffffffffffffffffffffffffffffffffffff161415611cee576040517f08c379a000000000000000000000000000000000000000000000000000000000815260040180806020018281038252600f8152602001807f4e6f2062616e6b2061646472657373000000000000000000000000000000000081525060200191505060405180910390fd5b6002600a60008373ffffffffffffffffffffffffffffffffffffffff1673ffffffffffffffffffffffffffffffffffffffff1681526020019081526020016000208190555050565b60005481565b6000816040516020018082805190602001908083835b60208310611d755780518252602082019150602081019050602083039250611d52565b6001836020036101000a03801982511681845116808217855250505050505090500191505060405160208183030381529060405280519060200120836040516020018082805190602001908083835b60208310611de75780518252602082019150602081019050602083039250611dc4565b6001836020036101000a0380198251168184511680821785525050505050509050019150506040516020818303038152906040528051906020012014905092915050565b600160009054906101000a900473ffffffffffffffffffffffffffffffffffffffff1681565b60065481565b600260009054906101000a900473ffffffffffffffffffffffffffffffffffffffff1673ffffffffffffffffffffffffffffffffffffffff163373ffffffffffffffffffffffffffffffffffffffff1614611f1a576040517f08c379a000000000000000000000000000000000000000000000000000000000815260040180806020018281038252600c8152602001807f4e6f7420616e2061646d696e000000000000000000000000000000000000000081525060200191505060405180910390fd5b600073ffffffffffffffffffffffffffffffffffffffff168173ffffffffffffffffffffffffffffffffffffffff161415611fbd576040517f08c379a000000000000000000000000000000000000000000000000000000000815260040180806020018281038252600f8152602001807f4e6f20686f73702061646472657373000000000000000000000000000000000081525060200191505060405180910390fd5b6003600a60008373ffffffffffffffffffffffffffffffffffffffff1673ffffffffffffffffffffffffffffffffffffffff1681526020019081526020016000208190555050565b600260009054906101000a900473ffffffffffffffffffffffffffffffffffffffff1681565b6040518061012001604052806000815260200160008152602001600073ffffffffffffffffffffffffffffffffffffffff168152602001600073ffffffffffffffffffffffffffffffffffffffff168152602001606081526020016000815260200160608152602001600073ffffffffffffffffffffffffffffffffffffffff168152602001600081525090565b8280548282559060005260206000209081019282156120f5579160200282015b828111156120f45782518255916020019190600101906120d9565b5b5090506121029190612186565b5090565b828054600181600116156101000203166002900490600052602060002090601f016020900481019282601f1061214757805160ff1916838001178555612175565b82800160010185558215612175579182015b82811115612174578251825591602001919060010190612159565b5b5090506121829190612186565b5090565b6121a891905b808211156121a457600081600090555060010161218c565b5090565b9056fea265627a7a7231582086acb78deb9b701e192ae1bfe5b93fd8f74e65060140f129504fa43822e85beb64736f6c63430005100032",
  "source": "pragma solidity >=0.4.21 <0.6.0;\r\n\r\n\r\ncontract DateTime {\r\n        function getYear(uint timestamp) public returns (uint16);\r\n        function getMonth(uint timestamp) public returns (uint8);\r\n        function getDay(uint timestamp) public returns (uint8);\r\n}\r\n\r\ncontract Blood{\r\n    uint public today;\r\n    address public dateTimeAddr = 0x0935234F7D0851753dC4017985b622AC768EDd42;\r\n    address payable public admin = address(0x0935234F7D0851753dC4017985b622AC768EDd42);\r\n    DateTime dateTime = DateTime(dateTimeAddr);\r\n    uint[] public temp_array;\r\n    string public name;\r\n    uint public bagCount = 0;\r\n    mapping(uint => Bloodbag) public bloodbags; // This is the general list of bloodbags.\r\n    mapping(address => uint[]) public donors; // Bloodbags corresponding to donors stored here.\r\n    mapping(address => uint[]) public hospitals; // Bloodbags corresponding to hospitals stored here.\r\n    mapping(address => uint) public usertype; // This mapping is to identify the type of user using the website, i.e\r\n                                              // (1 = donor, 2 = bank and 3 = hospital)\r\n    function getArray(address _donor) public view returns (uint256[] memory) {\r\n        return donors[_donor];\r\n    }\r\n\r\n    function getHbags(address _hospital) public view returns (uint256[] memory) {\r\n        return hospitals[_hospital];\r\n    }\r\n\r\n    function getTemp() public view returns (uint256[] memory) {\r\n        return temp_array;\r\n    }\r\n\r\n    struct Bloodbag {\r\n        uint id;\r\n        uint donation_date;\r\n        address payable donor;\r\n        address payable bank;\r\n        string blood_group;\r\n        uint expiry;\r\n        string owner_name;\r\n        address payable owner;\r\n        uint price;\r\n    }\r\n\r\n    event BagCreated(\r\n        uint id,\r\n        uint donation_date,\r\n        address payable donor,\r\n        address payable bank,\r\n        string blood_group,\r\n        uint expiry,\r\n        string owner_name,\r\n        address payable owner,\r\n        uint price\r\n    );\r\n\r\n    event message(string message);\r\n    event arr(uint[] array);\r\n\r\n    constructor() public{\r\n        name = \"Pranav Gor\";\r\n        usertype[admin] = 14;\r\n        usertype[0x2eEB28e7Acec6f402ee207d82Ef1F7AABeDb312a] = 3;\r\n        // init_hospitals\r\n    }\r\n\r\n    function createBloodbag(uint _donation_date, address payable _donor,\r\n     string memory _blood_group, uint _expiry, string memory _owner_name) public {\r\n        // Require valid params\r\n        // require(usertype[msg.sender] == 2, \"Not a blood bank.\");\r\n        require(bytes(_owner_name).length > 0, \"error in name\");\r\n        require(bytes(_blood_group).length > 0, \"error in blood group\");\r\n        require(_donation_date > 0, \"error in d_date\");\r\n        require(_expiry > _donation_date, \"error in exp_date\");\r\n        require(_donor != address(0), \"error in donor\");\r\n        // Increment bag count\r\n        bagCount ++;\r\n        // Date related stuff\r\n        // Set donor id = 1 if not already exists.\r\n        if (usertype[_donor] == 0){\r\n            usertype[_donor] = 1;\r\n        }\r\n        // Create the Blood bag\r\n        Bloodbag memory temp_bloodbag = Bloodbag(bagCount, _donation_date, _donor, msg.sender, _blood_group, _expiry,\r\n        _owner_name, msg.sender, 1);\r\n        bloodbags[bagCount] = temp_bloodbag;\r\n        // add bag to specific donor's list\r\n        donors[_donor].push(temp_bloodbag.id);\r\n            if (usertype[msg.sender] == 3){ //Hospital ne banaya\r\n                hospitals[msg.sender].push(temp_bloodbag.id);\r\n            }\r\n        // Trigger an event\r\n        emit BagCreated(bagCount, _donation_date, _donor, msg.sender, _blood_group, _expiry,\r\n        _owner_name, msg.sender, 1);\r\n    }\r\n\r\n    function createBank(address _bank) public {\r\n        require(msg.sender == admin,\"Not an admin\");\r\n        require(_bank != address(0),\"No bank address\");\r\n        usertype[_bank] = 2;\r\n    }\r\n\r\n    function createHosp(address _hosp) public {\r\n        require(msg.sender == admin,\"Not an admin\");\r\n        require(_hosp != address(0),\"No hosp address\");\r\n        usertype[_hosp] = 3;\r\n    }\r\n\r\n    function compareStrings (string memory a, string memory b) public pure returns (bool) {\r\n        return (keccak256(abi.encodePacked((a))) == keccak256(abi.encodePacked((b))) );\r\n    }\r\n    // function init_hospitals() public {\r\n    //     uint one_day = 3600*24;\r\n    //     // donation = Date.now()\r\n    //     uint expiry = now + (30*one_day);\r\n    //     created = Bloodbag(i+20, now + i, admin, admin, 'A', expiry, 'Admin Hospital', 0x2eEB28e7Acec6f402ee207d82Ef1F7AABeDb312a, 5)\r\n    //     for (uint i = 0; i < 3; i++) {\r\n    //         hospitals[0x2eEB28e7Acec6f402ee207d82Ef1F7AABeDb312a].push\r\n    //             ();\r\n    //     }\r\n    //     name = 'Back to 2';\r\n    // }\r\n\r\n\r\n    function h_showInventory(string memory _bg) public returns(uint256[] memory){\r\n        address hosp = msg.sender;\r\n        uint[] memory h_bags = getHbags(hosp);\r\n        if (bytes(_bg).length != 0){\r\n            for(uint j = 0; j < h_bags.length; j++ ){\r\n                Bloodbag memory bb = bloodbags[h_bags[j]];\r\n                if (compareStrings(_bg, bb.blood_group)){\r\n                    temp_array.push(bb.id);\r\n                }\r\n            }\r\n        } else {\r\n            temp_array = getHbags(msg.sender);\r\n        }\r\n    }\r\n\r\n    // function h_placeOrder() public {\r\n\r\n    // }\r\n\r\n    // function bb_accept_order() public {\r\n\r\n    // }\r\n\r\n\r\n}",
  "sourcePath": "O:\\Pranav\\GitHub\\Ethereum_Blockchain_BloodSupplyChain\\src\\contracts\\Blood.sol",
  "compiler": {
    "name": "solc",
    "version": "0.5.16+commit.9c3226ce.Emscripten.clang"
  },
  "schemaVersion": "3.0.23",
  "updatedAt": "2020-02-29T11:50:24.408Z",
  "devdoc": {
    "methods": {}
  },
  "userdoc": {
    "methods": {}
  }
}