{
  "contractName": "Blood",
  "abi": [
    {
      "inputs": [],
      "payable": false,
      "stateMutability": "nonpayable",
      "type": "constructor"
    },
    {
      "anonymous": false,
      "inputs": [
        {
          "indexed": false,
          "internalType": "uint256",
          "name": "id",
          "type": "uint256"
        },
        {
          "indexed": false,
          "internalType": "uint256",
          "name": "donation_date",
          "type": "uint256"
        },
        {
          "indexed": false,
          "internalType": "address payable",
          "name": "donor",
          "type": "address"
        },
        {
          "indexed": false,
          "internalType": "address payable",
          "name": "bank",
          "type": "address"
        },
        {
          "indexed": false,
          "internalType": "string",
          "name": "blood_group",
          "type": "string"
        },
        {
          "indexed": false,
          "internalType": "uint256",
          "name": "expiry",
          "type": "uint256"
        },
        {
          "indexed": false,
          "internalType": "string",
          "name": "owner_name",
          "type": "string"
        },
        {
          "indexed": false,
          "internalType": "address payable",
          "name": "owner",
          "type": "address"
        }
      ],
      "name": "BagCreated",
      "type": "event"
    },
    {
      "anonymous": false,
      "inputs": [
        {
          "indexed": false,
          "internalType": "uint256[]",
          "name": "array",
          "type": "uint256[]"
        }
      ],
      "name": "arr",
      "type": "event"
    },
    {
      "anonymous": false,
      "inputs": [
        {
          "indexed": false,
          "internalType": "uint256",
          "name": "id",
          "type": "uint256"
        },
        {
          "indexed": false,
          "internalType": "uint256",
          "name": "donation_date",
          "type": "uint256"
        },
        {
          "indexed": false,
          "internalType": "address payable",
          "name": "donor",
          "type": "address"
        },
        {
          "indexed": false,
          "internalType": "address payable",
          "name": "bank",
          "type": "address"
        },
        {
          "indexed": false,
          "internalType": "string",
          "name": "blood_group",
          "type": "string"
        },
        {
          "indexed": false,
          "internalType": "uint256",
          "name": "expiry",
          "type": "uint256"
        },
        {
          "indexed": false,
          "internalType": "string",
          "name": "owner_name",
          "type": "string"
        },
        {
          "indexed": false,
          "internalType": "address payable",
          "name": "owner",
          "type": "address"
        }
      ],
      "name": "bagPurchased",
      "type": "event"
    },
    {
      "anonymous": false,
      "inputs": [
        {
          "indexed": false,
          "internalType": "string",
          "name": "message",
          "type": "string"
        }
      ],
      "name": "message",
      "type": "event"
    },
    {
      "constant": true,
      "inputs": [
        {
          "internalType": "uint256",
          "name": "",
          "type": "uint256"
        }
      ],
      "name": "Allbags",
      "outputs": [
        {
          "internalType": "uint256",
          "name": "id",
          "type": "uint256"
        },
        {
          "internalType": "uint256",
          "name": "donation_date",
          "type": "uint256"
        },
        {
          "internalType": "address payable",
          "name": "donor",
          "type": "address"
        },
        {
          "internalType": "address payable",
          "name": "bank",
          "type": "address"
        },
        {
          "internalType": "string",
          "name": "blood_group",
          "type": "string"
        },
        {
          "internalType": "uint256",
          "name": "expiry",
          "type": "uint256"
        },
        {
          "internalType": "string",
          "name": "owner_name",
          "type": "string"
        },
        {
          "internalType": "address payable",
          "name": "owner",
          "type": "address"
        }
      ],
      "payable": false,
      "stateMutability": "view",
      "type": "function"
    },
    {
      "constant": true,
      "inputs": [],
      "name": "admin",
      "outputs": [
        {
          "internalType": "address payable",
          "name": "",
          "type": "address"
        }
      ],
      "payable": false,
      "stateMutability": "view",
      "type": "function"
    },
    {
      "constant": true,
      "inputs": [],
      "name": "b_bagCount",
      "outputs": [
        {
          "internalType": "uint256",
          "name": "",
          "type": "uint256"
        }
      ],
      "payable": false,
      "stateMutability": "view",
      "type": "function"
    },
    {
      "constant": true,
      "inputs": [],
      "name": "bagCount",
      "outputs": [
        {
          "internalType": "uint256",
          "name": "",
          "type": "uint256"
        }
      ],
      "payable": false,
      "stateMutability": "view",
      "type": "function"
    },
    {
      "constant": true,
      "inputs": [
        {
          "internalType": "uint256",
          "name": "",
          "type": "uint256"
        }
      ],
      "name": "bloodbags",
      "outputs": [
        {
          "internalType": "uint256",
          "name": "id",
          "type": "uint256"
        },
        {
          "internalType": "uint256",
          "name": "donation_date",
          "type": "uint256"
        },
        {
          "internalType": "address payable",
          "name": "donor",
          "type": "address"
        },
        {
          "internalType": "address payable",
          "name": "bank",
          "type": "address"
        },
        {
          "internalType": "string",
          "name": "blood_group",
          "type": "string"
        },
        {
          "internalType": "uint256",
          "name": "expiry",
          "type": "uint256"
        },
        {
          "internalType": "string",
          "name": "owner_name",
          "type": "string"
        },
        {
          "internalType": "address payable",
          "name": "owner",
          "type": "address"
        }
      ],
      "payable": false,
      "stateMutability": "view",
      "type": "function"
    },
    {
      "constant": true,
      "inputs": [],
      "name": "dateTimeAddr",
      "outputs": [
        {
          "internalType": "address",
          "name": "",
          "type": "address"
        }
      ],
      "payable": false,
      "stateMutability": "view",
      "type": "function"
    },
    {
      "constant": true,
      "inputs": [
        {
          "internalType": "address",
          "name": "",
          "type": "address"
        },
        {
          "internalType": "uint256",
          "name": "",
          "type": "uint256"
        }
      ],
      "name": "donors",
      "outputs": [
        {
          "internalType": "uint256",
          "name": "",
          "type": "uint256"
        }
      ],
      "payable": false,
      "stateMutability": "view",
      "type": "function"
    },
    {
      "constant": true,
      "inputs": [],
      "name": "h_bagCount",
      "outputs": [
        {
          "internalType": "uint256",
          "name": "",
          "type": "uint256"
        }
      ],
      "payable": false,
      "stateMutability": "view",
      "type": "function"
    },
    {
      "constant": true,
      "inputs": [
        {
          "internalType": "address",
          "name": "",
          "type": "address"
        },
        {
          "internalType": "uint256",
          "name": "",
          "type": "uint256"
        }
      ],
      "name": "hospitals",
      "outputs": [
        {
          "internalType": "uint256",
          "name": "",
          "type": "uint256"
        }
      ],
      "payable": false,
      "stateMutability": "view",
      "type": "function"
    },
    {
      "constant": true,
      "inputs": [],
      "name": "name",
      "outputs": [
        {
          "internalType": "string",
          "name": "",
          "type": "string"
        }
      ],
      "payable": false,
      "stateMutability": "view",
      "type": "function"
    },
    {
      "constant": true,
      "inputs": [
        {
          "internalType": "uint256",
          "name": "",
          "type": "uint256"
        }
      ],
      "name": "temp_array",
      "outputs": [
        {
          "internalType": "uint256",
          "name": "",
          "type": "uint256"
        }
      ],
      "payable": false,
      "stateMutability": "view",
      "type": "function"
    },
    {
      "constant": true,
      "inputs": [],
      "name": "today",
      "outputs": [
        {
          "internalType": "uint256",
          "name": "",
          "type": "uint256"
        }
      ],
      "payable": false,
      "stateMutability": "view",
      "type": "function"
    },
    {
      "constant": true,
      "inputs": [
        {
          "internalType": "address",
          "name": "",
          "type": "address"
        }
      ],
      "name": "usertype",
      "outputs": [
        {
          "internalType": "uint256",
          "name": "",
          "type": "uint256"
        }
      ],
      "payable": false,
      "stateMutability": "view",
      "type": "function"
    },
    {
      "constant": true,
      "inputs": [
        {
          "internalType": "address",
          "name": "_donor",
          "type": "address"
        }
      ],
      "name": "getArray",
      "outputs": [
        {
          "internalType": "uint256[]",
          "name": "",
          "type": "uint256[]"
        }
      ],
      "payable": false,
      "stateMutability": "view",
      "type": "function"
    },
    {
      "constant": true,
      "inputs": [
        {
          "internalType": "address",
          "name": "_hospital",
          "type": "address"
        }
      ],
      "name": "getHbags",
      "outputs": [
        {
          "internalType": "uint256[]",
          "name": "",
          "type": "uint256[]"
        }
      ],
      "payable": false,
      "stateMutability": "view",
      "type": "function"
    },
    {
      "constant": true,
      "inputs": [],
      "name": "getTemp",
      "outputs": [
        {
          "internalType": "uint256[]",
          "name": "",
          "type": "uint256[]"
        }
      ],
      "payable": false,
      "stateMutability": "view",
      "type": "function"
    },
    {
      "constant": false,
      "inputs": [
        {
          "internalType": "uint256",
          "name": "_donation_date",
          "type": "uint256"
        },
        {
          "internalType": "address payable",
          "name": "_donor",
          "type": "address"
        },
        {
          "internalType": "string",
          "name": "_blood_group",
          "type": "string"
        },
        {
          "internalType": "uint256",
          "name": "_expiry",
          "type": "uint256"
        },
        {
          "internalType": "string",
          "name": "_owner_name",
          "type": "string"
        }
      ],
      "name": "createBloodbag",
      "outputs": [],
      "payable": false,
      "stateMutability": "nonpayable",
      "type": "function"
    },
    {
      "constant": false,
      "inputs": [
        {
          "internalType": "address",
          "name": "_bank",
          "type": "address"
        }
      ],
      "name": "createBank",
      "outputs": [],
      "payable": false,
      "stateMutability": "nonpayable",
      "type": "function"
    },
    {
      "constant": false,
      "inputs": [
        {
          "internalType": "address",
          "name": "_hosp",
          "type": "address"
        }
      ],
      "name": "createHosp",
      "outputs": [],
      "payable": false,
      "stateMutability": "nonpayable",
      "type": "function"
    },
    {
      "constant": true,
      "inputs": [
        {
          "internalType": "string",
          "name": "a",
          "type": "string"
        },
        {
          "internalType": "string",
          "name": "b",
          "type": "string"
        }
      ],
      "name": "compareStrings",
      "outputs": [
        {
          "internalType": "bool",
          "name": "",
          "type": "bool"
        }
      ],
      "payable": false,
      "stateMutability": "pure",
      "type": "function"
    },
    {
      "constant": false,
      "inputs": [],
      "name": "getAllBags",
      "outputs": [],
      "payable": false,
      "stateMutability": "nonpayable",
      "type": "function"
    },
    {
      "constant": false,
      "inputs": [
        {
          "internalType": "address",
          "name": "_hosp",
          "type": "address"
        },
        {
          "internalType": "string",
          "name": "_bg",
          "type": "string"
        }
      ],
      "name": "filterBags",
      "outputs": [
        {
          "components": [
            {
              "internalType": "uint256",
              "name": "id",
              "type": "uint256"
            },
            {
              "internalType": "uint256",
              "name": "donation_date",
              "type": "uint256"
            },
            {
              "internalType": "address payable",
              "name": "donor",
              "type": "address"
            },
            {
              "internalType": "address payable",
              "name": "bank",
              "type": "address"
            },
            {
              "internalType": "string",
              "name": "blood_group",
              "type": "string"
            },
            {
              "internalType": "uint256",
              "name": "expiry",
              "type": "uint256"
            },
            {
              "internalType": "string",
              "name": "owner_name",
              "type": "string"
            },
            {
              "internalType": "address payable",
              "name": "owner",
              "type": "address"
            }
          ],
          "internalType": "struct Blood.Bloodbag[]",
          "name": "",
          "type": "tuple[]"
        }
      ],
      "payable": false,
      "stateMutability": "nonpayable",
      "type": "function"
    },
    {
      "constant": false,
      "inputs": [
        {
          "internalType": "address payable",
          "name": "_hosp",
          "type": "address"
        },
        {
          "internalType": "address payable",
          "name": "_bank",
          "type": "address"
        },
        {
          "internalType": "string",
          "name": "_bg",
          "type": "string"
        },
        {
          "internalType": "uint256",
          "name": "_amount",
          "type": "uint256"
        },
        {
          "internalType": "string",
          "name": "_name",
          "type": "string"
        }
      ],
      "name": "h_placeOrder",
      "outputs": [],
      "payable": true,
      "stateMutability": "payable",
      "type": "function"
    }
  ],
  "bytecode": "0x60806040527366edefff0a0c87ba4ca2b8e73bb05787eb35908e600160006101000a81548173ffffffffffffffffffffffffffffffffffffffff021916908373ffffffffffffffffffffffffffffffffffffffff1602179055507366edefff0a0c87ba4ca2b8e73bb05787eb35908e600260006101000a81548173ffffffffffffffffffffffffffffffffffffffff021916908373ffffffffffffffffffffffffffffffffffffffff160217905550600160009054906101000a900473ffffffffffffffffffffffffffffffffffffffff16600360006101000a81548173ffffffffffffffffffffffffffffffffffffffff021916908373ffffffffffffffffffffffffffffffffffffffff1602179055506000600655600060075560006008553480156200012d57600080fd5b506040518060400160405280600a81526020017f5072616e617620476f7200000000000000000000000000000000000000000000815250600590805190602001906200017b92919062000242565b50600e600c6000600260009054906101000a900473ffffffffffffffffffffffffffffffffffffffff1673ffffffffffffffffffffffffffffffffffffffff1673ffffffffffffffffffffffffffffffffffffffff168152602001908152602001600020819055506003600c6000732eeb28e7acec6f402ee207d82ef1f7aabedb312a73ffffffffffffffffffffffffffffffffffffffff1673ffffffffffffffffffffffffffffffffffffffff16815260200190815260200160002081905550620002f1565b828054600181600116156101000203166002900490600052602060002090601f016020900481019282601f106200028557805160ff1916838001178555620002b6565b82800160010185558215620002b6579182015b82811115620002b557825182559160200191906001019062000298565b5b509050620002c59190620002c9565b5090565b620002ee91905b80821115620002ea576000816000905550600101620002d0565b5090565b90565b6132c480620003016000396000f3fe6080604052600436106101405760003560e01c8063aabd2eb2116100b6578063d90360451161006f578063d9036045146104ca578063e8c880b4146104f5578063e99b91f514610520578063ef0ea2dc1461053c578063ef1ad30b14610567578063f851a4401461059057610140565b8063aabd2eb21461038d578063affcd276146103ca578063b2c5088b1461040e578063b74e452b14610437578063bed34bba14610462578063d2c5ce311461049f57610140565b8063479797a711610108578063479797a7146102455780638b0963491461028257806395252560146102ab5780639715afe1146102d65780639b56f5f014610313578063a5cad5211461035057610140565b806306fdde03146101455780631a2300fc146101705780631c199762146101875780633164582e146101c45780634309e4c614610201575b600080fd5b34801561015157600080fd5b5061015a6105bb565b6040516101679190612dec565b60405180910390f35b34801561017c57600080fd5b50610185610659565b005b34801561019357600080fd5b506101ae60048036036101a991908101906125e2565b61085f565b6040516101bb9190612d8d565b60405180910390f35b3480156101d057600080fd5b506101eb60048036036101e69190810190612512565b610e79565b6040516101f89190612f4e565b60405180910390f35b34801561020d57600080fd5b50610228600480360361022391908101906126de565b610e91565b60405161023c989796959493929190612ff5565b60405180910390f35b34801561025157600080fd5b5061026c60048036036102679190810190612512565b611069565b6040516102799190612daf565b60405180910390f35b34801561028e57600080fd5b506102a960048036036102a49190810190612707565b611100565b005b3480156102b757600080fd5b506102c0611694565b6040516102cd9190612daf565b60405180910390f35b3480156102e257600080fd5b506102fd60048036036102f89190810190612636565b6116ec565b60405161030a9190612f4e565b60405180910390f35b34801561031f57600080fd5b5061033a60048036036103359190810190612636565b61171a565b6040516103479190612f4e565b60405180910390f35b34801561035c57600080fd5b50610377600480360361037291908101906126de565b611748565b6040516103849190612f4e565b60405180910390f35b34801561039957600080fd5b506103b460048036036103af9190810190612512565b611769565b6040516103c19190612daf565b60405180910390f35b3480156103d657600080fd5b506103f160048036036103ec91908101906126de565b611800565b604051610405989796959493929190612ff5565b60405180910390f35b34801561041a57600080fd5b5061043560048036036104309190810190612512565b6119e5565b005b34801561044357600080fd5b5061044c611b2d565b6040516104599190612f4e565b60405180910390f35b34801561046e57600080fd5b5061048960048036036104849190810190612672565b611b33565b6040516104969190612dd1565b60405180910390f35b3480156104ab57600080fd5b506104b4611b8c565b6040516104c19190612d57565b60405180910390f35b3480156104d657600080fd5b506104df611bb2565b6040516104ec9190612f4e565b60405180910390f35b34801561050157600080fd5b5061050a611bb8565b6040516105179190612f4e565b60405180910390f35b61053a6004803603610535919081019061253b565b611bbe565b005b34801561054857600080fd5b506105516120d8565b60405161055e9190612f4e565b60405180910390f35b34801561057357600080fd5b5061058e60048036036105899190810190612512565b6120de565b005b34801561059c57600080fd5b506105a5612226565b6040516105b29190612d72565b60405180910390f35b60058054600181600116156101000203166002900480601f0160208091040260200160405190810160405280929190818152602001828054600181600116156101000203166002900480156106515780601f1061062657610100808354040283529160200191610651565b820191906000526020600020905b81548152906001019060200180831161063457829003601f168201915b505050505081565b60008090505b60065481101561085c57600d600960008381526020019081526020016000209080600181540180825580915050906001820390600052602060002090600802016000909192909190915060008201548160000155600182015481600101556002820160009054906101000a900473ffffffffffffffffffffffffffffffffffffffff168160020160006101000a81548173ffffffffffffffffffffffffffffffffffffffff021916908373ffffffffffffffffffffffffffffffffffffffff1602179055506003820160009054906101000a900473ffffffffffffffffffffffffffffffffffffffff168160030160006101000a81548173ffffffffffffffffffffffffffffffffffffffff021916908373ffffffffffffffffffffffffffffffffffffffff160217905550600482018160040190805460018160011615610100020316600290046107b292919061224c565b5060058201548160050155600682018160060190805460018160011615610100020316600290046107e492919061224c565b506007820160009054906101000a900473ffffffffffffffffffffffffffffffffffffffff168160070160006101000a81548173ffffffffffffffffffffffffffffffffffffffff021916908373ffffffffffffffffffffffffffffffffffffffff160217905550505050808060010191505061065f565b50565b6060610869610659565b60008090505b600d80549050811015610bb3578373ffffffffffffffffffffffffffffffffffffffff16600d82815481106108a057fe5b906000526020600020906008020160070160009054906101000a900473ffffffffffffffffffffffffffffffffffffffff1673ffffffffffffffffffffffffffffffffffffffff16141580156109b257506109b1600d828154811061090157fe5b90600052602060002090600802016004018054600181600116156101000203166002900480601f0160208091040260200160405190810160405280929190818152602001828054600181600116156101000203166002900480156109a65780601f1061097b576101008083540402835291602001916109a6565b820191906000526020600020905b81548152906001019060200180831161098957829003601f168201915b505050505084611b33565b5b15610ba657600e600d82815481106109c657fe5b90600052602060002090600802019080600181540180825580915050906001820390600052602060002090600802016000909192909190915060008201548160000155600182015481600101556002820160009054906101000a900473ffffffffffffffffffffffffffffffffffffffff168160020160006101000a81548173ffffffffffffffffffffffffffffffffffffffff021916908373ffffffffffffffffffffffffffffffffffffffff1602179055506003820160009054906101000a900473ffffffffffffffffffffffffffffffffffffffff168160030160006101000a81548173ffffffffffffffffffffffffffffffffffffffff021916908373ffffffffffffffffffffffffffffffffffffffff16021790555060048201816004019080546001816001161561010002031660029004610b0892919061224c565b506005820154816005015560068201816006019080546001816001161561010002031660029004610b3a92919061224c565b506007820160009054906101000a900473ffffffffffffffffffffffffffffffffffffffff168160070160006101000a81548173ffffffffffffffffffffffffffffffffffffffff021916908373ffffffffffffffffffffffffffffffffffffffff1602179055505050505b808060010191505061086f565b50600e805480602002602001604051908101604052809291908181526020016000905b82821015610e6d57838290600052602060002090600802016040518061010001604052908160008201548152602001600182015481526020016002820160009054906101000a900473ffffffffffffffffffffffffffffffffffffffff1673ffffffffffffffffffffffffffffffffffffffff1673ffffffffffffffffffffffffffffffffffffffff1681526020016003820160009054906101000a900473ffffffffffffffffffffffffffffffffffffffff1673ffffffffffffffffffffffffffffffffffffffff1673ffffffffffffffffffffffffffffffffffffffff168152602001600482018054600181600116156101000203166002900480601f016020809104026020016040519081016040528092919081815260200182805460018160011615610100020316600290048015610d535780601f10610d2857610100808354040283529160200191610d53565b820191906000526020600020905b815481529060010190602001808311610d3657829003601f168201915b5050505050815260200160058201548152602001600682018054600181600116156101000203166002900480601f016020809104026020016040519081016040528092919081815260200182805460018160011615610100020316600290048015610dff5780601f10610dd457610100808354040283529160200191610dff565b820191906000526020600020905b815481529060010190602001808311610de257829003601f168201915b505050505081526020016007820160009054906101000a900473ffffffffffffffffffffffffffffffffffffffff1673ffffffffffffffffffffffffffffffffffffffff1673ffffffffffffffffffffffffffffffffffffffff168152505081526020019060010190610bd6565b50505050905092915050565b600c6020528060005260406000206000915090505481565b60096020528060005260406000206000915090508060000154908060010154908060020160009054906101000a900473ffffffffffffffffffffffffffffffffffffffff16908060030160009054906101000a900473ffffffffffffffffffffffffffffffffffffffff1690806004018054600181600116156101000203166002900480601f016020809104026020016040519081016040528092919081815260200182805460018160011615610100020316600290048015610f955780601f10610f6a57610100808354040283529160200191610f95565b820191906000526020600020905b815481529060010190602001808311610f7857829003601f168201915b505050505090806005015490806006018054600181600116156101000203166002900480601f0160208091040260200160405190810160405280929190818152602001828054600181600116156101000203166002900480156110395780601f1061100e57610100808354040283529160200191611039565b820191906000526020600020905b81548152906001019060200180831161101c57829003601f168201915b5050505050908060070160009054906101000a900473ffffffffffffffffffffffffffffffffffffffff16905088565b6060600a60008373ffffffffffffffffffffffffffffffffffffffff1673ffffffffffffffffffffffffffffffffffffffff1681526020019081526020016000208054806020026020016040519081016040528092919081815260200182805480156110f457602002820191906000526020600020905b8154815260200190600101908083116110e0575b50505050509050919050565b6000815111611144576040517f08c379a000000000000000000000000000000000000000000000000000000000815260040161113b90612ece565b60405180910390fd5b6000835111611188576040517f08c379a000000000000000000000000000000000000000000000000000000000815260040161117f90612e4e565b60405180910390fd5b600085116111cb576040517f08c379a00000000000000000000000000000000000000000000000000000000081526004016111c290612e2e565b60405180910390fd5b84821161120d576040517f08c379a000000000000000000000000000000000000000000000000000000000815260040161120490612eee565b60405180910390fd5b600073ffffffffffffffffffffffffffffffffffffffff168473ffffffffffffffffffffffffffffffffffffffff16141561127d576040517f08c379a000000000000000000000000000000000000000000000000000000000815260040161127490612f0e565b60405180910390fd5b6006600081548092919060010191905055506000600c60008673ffffffffffffffffffffffffffffffffffffffff1673ffffffffffffffffffffffffffffffffffffffff16815260200190815260200160002054141561131d576001600c60008673ffffffffffffffffffffffffffffffffffffffff1673ffffffffffffffffffffffffffffffffffffffff168152602001908152602001600020819055505b6113256122d3565b60405180610100016040528060065481526020018781526020018673ffffffffffffffffffffffffffffffffffffffff1681526020013373ffffffffffffffffffffffffffffffffffffffff1681526020018581526020018481526020018381526020013373ffffffffffffffffffffffffffffffffffffffff16815250905080600960006006548152602001908152602001600020600082015181600001556020820151816001015560408201518160020160006101000a81548173ffffffffffffffffffffffffffffffffffffffff021916908373ffffffffffffffffffffffffffffffffffffffff16021790555060608201518160030160006101000a81548173ffffffffffffffffffffffffffffffffffffffff021916908373ffffffffffffffffffffffffffffffffffffffff160217905550608082015181600401908051906020019061147992919061235a565b5060a0820151816005015560c08201518160060190805190602001906114a092919061235a565b5060e08201518160070160006101000a81548173ffffffffffffffffffffffffffffffffffffffff021916908373ffffffffffffffffffffffffffffffffffffffff160217905550905050600760008154809291906001019190505550600a60008673ffffffffffffffffffffffffffffffffffffffff1673ffffffffffffffffffffffffffffffffffffffff168152602001908152602001600020816000015190806001815401808255809150509060018203906000526020600020016000909192909190915055506003600c60003373ffffffffffffffffffffffffffffffffffffffff1673ffffffffffffffffffffffffffffffffffffffff16815260200190815260200160002054141561164557600b60003373ffffffffffffffffffffffffffffffffffffffff1673ffffffffffffffffffffffffffffffffffffffff16815260200190815260200160002081600001519080600181540180825580915050906001820390600052602060002001600090919290919091505550600860008154809291906001019190505550600760008154809291906001900391905055505b7fdf51b0dec4aed9e71c178987d39b09447fc670e878768360c5bd054a69dc87a360065487873388888833604051611684989796959493929190612f69565b60405180910390a1505050505050565b606060048054806020026020016040519081016040528092919081815260200182805480156116e257602002820191906000526020600020905b8154815260200190600101908083116116ce575b5050505050905090565b600b602052816000526040600020818154811061170557fe5b90600052602060002001600091509150505481565b600a602052816000526040600020818154811061173357fe5b90600052602060002001600091509150505481565b6004818154811061175557fe5b906000526020600020016000915090505481565b6060600b60008373ffffffffffffffffffffffffffffffffffffffff1673ffffffffffffffffffffffffffffffffffffffff1681526020019081526020016000208054806020026020016040519081016040528092919081815260200182805480156117f457602002820191906000526020600020905b8154815260200190600101908083116117e0575b50505050509050919050565b600d818154811061180d57fe5b90600052602060002090600802016000915090508060000154908060010154908060020160009054906101000a900473ffffffffffffffffffffffffffffffffffffffff16908060030160009054906101000a900473ffffffffffffffffffffffffffffffffffffffff1690806004018054600181600116156101000203166002900480601f0160208091040260200160405190810160405280929190818152602001828054600181600116156101000203166002900480156119115780601f106118e657610100808354040283529160200191611911565b820191906000526020600020905b8154815290600101906020018083116118f457829003601f168201915b505050505090806005015490806006018054600181600116156101000203166002900480601f0160208091040260200160405190810160405280929190818152602001828054600181600116156101000203166002900480156119b55780601f1061198a576101008083540402835291602001916119b5565b820191906000526020600020905b81548152906001019060200180831161199857829003601f168201915b5050505050908060070160009054906101000a900473ffffffffffffffffffffffffffffffffffffffff16905088565b600260009054906101000a900473ffffffffffffffffffffffffffffffffffffffff1673ffffffffffffffffffffffffffffffffffffffff163373ffffffffffffffffffffffffffffffffffffffff1614611a75576040517f08c379a0000000000000000000000000000000000000000000000000000000008152600401611a6c90612e6e565b60405180910390fd5b600073ffffffffffffffffffffffffffffffffffffffff168173ffffffffffffffffffffffffffffffffffffffff161415611ae5576040517f08c379a0000000000000000000000000000000000000000000000000000000008152600401611adc90612e8e565b60405180910390fd5b6002600c60008373ffffffffffffffffffffffffffffffffffffffff1673ffffffffffffffffffffffffffffffffffffffff1681526020019081526020016000208190555050565b60005481565b600081604051602001611b469190612d40565b6040516020818303038152906040528051906020012083604051602001611b6d9190612d40565b6040516020818303038152906040528051906020012014905092915050565b600160009054906101000a900473ffffffffffffffffffffffffffffffffffffffff1681565b60085481565b60065481565b6060611bca868561085f565b90506000831415611c10576040517f08c379a0000000000000000000000000000000000000000000000000000000008152600401611c0790612f2e565b60405180910390fd5b8573ffffffffffffffffffffffffffffffffffffffff163373ffffffffffffffffffffffffffffffffffffffff1614611c7e576040517f08c379a0000000000000000000000000000000000000000000000000000000008152600401611c7590612e0e565b60405180910390fd5b600083600a0290508573ffffffffffffffffffffffffffffffffffffffff166108fc829081150290604051600060405180830381858888f19350505050158015611ccc573d6000803e3d6000fd5b506060600281600081518110611cde57fe5b602002602001018181525050600481600181518110611cf957fe5b60200260200101818152505060008090505b81518110156120cd57611d1c6122d3565b60096000848481518110611d2c57fe5b602002602001015181526020019081526020016000206040518061010001604052908160008201548152602001600182015481526020016002820160009054906101000a900473ffffffffffffffffffffffffffffffffffffffff1673ffffffffffffffffffffffffffffffffffffffff1673ffffffffffffffffffffffffffffffffffffffff1681526020016003820160009054906101000a900473ffffffffffffffffffffffffffffffffffffffff1673ffffffffffffffffffffffffffffffffffffffff1673ffffffffffffffffffffffffffffffffffffffff168152602001600482018054600181600116156101000203166002900480601f016020809104026020016040519081016040528092919081815260200182805460018160011615610100020316600290048015611ea75780601f10611e7c57610100808354040283529160200191611ea7565b820191906000526020600020905b815481529060010190602001808311611e8a57829003601f168201915b5050505050815260200160058201548152602001600682018054600181600116156101000203166002900480601f016020809104026020016040519081016040528092919081815260200182805460018160011615610100020316600290048015611f535780601f10611f2857610100808354040283529160200191611f53565b820191906000526020600020905b815481529060010190602001808311611f3657829003601f168201915b505050505081526020016007820160009054906101000a900473ffffffffffffffffffffffffffffffffffffffff1673ffffffffffffffffffffffffffffffffffffffff1673ffffffffffffffffffffffffffffffffffffffff168152505090503360096000858581518110611fc557fe5b6020026020010151815260200190815260200160002060070160006101000a81548173ffffffffffffffffffffffffffffffffffffffff021916908373ffffffffffffffffffffffffffffffffffffffff160217905550856009600085858151811061202d57fe5b6020026020010151815260200190815260200160002060060190805190602001906120599291906123da565b507fdde2334a525ab032bcf6ca19b16fcccac5947fc50b8000b914ba0a047bcfdf8a816000015182602001518360400151846060015185608001518660a001518760c001518860e001516040516120b7989796959493929190612ff5565b60405180910390a1508080600101915050611d0b565b505050505050505050565b60075481565b600260009054906101000a900473ffffffffffffffffffffffffffffffffffffffff1673ffffffffffffffffffffffffffffffffffffffff163373ffffffffffffffffffffffffffffffffffffffff161461216e576040517f08c379a000000000000000000000000000000000000000000000000000000000815260040161216590612e6e565b60405180910390fd5b600073ffffffffffffffffffffffffffffffffffffffff168173ffffffffffffffffffffffffffffffffffffffff1614156121de576040517f08c379a00000000000000000000000000000000000000000000000000000000081526004016121d590612eae565b60405180910390fd5b6003600c60008373ffffffffffffffffffffffffffffffffffffffff1673ffffffffffffffffffffffffffffffffffffffff1681526020019081526020016000208190555050565b600260009054906101000a900473ffffffffffffffffffffffffffffffffffffffff1681565b828054600181600116156101000203166002900490600052602060002090601f016020900481019282601f1061228557805485556122c2565b828001600101855582156122c257600052602060002091601f016020900482015b828111156122c15782548255916001019190600101906122a6565b5b5090506122cf919061245a565b5090565b6040518061010001604052806000815260200160008152602001600073ffffffffffffffffffffffffffffffffffffffff168152602001600073ffffffffffffffffffffffffffffffffffffffff168152602001606081526020016000815260200160608152602001600073ffffffffffffffffffffffffffffffffffffffff1681525090565b828054600181600116156101000203166002900490600052602060002090601f016020900481019282601f1061239b57805160ff19168380011785556123c9565b828001600101855582156123c9579182015b828111156123c85782518255916020019190600101906123ad565b5b5090506123d6919061245a565b5090565b828054600181600116156101000203166002900490600052602060002090601f016020900481019282601f1061241b57805160ff1916838001178555612449565b82800160010185558215612449579182015b8281111561244857825182559160200191906001019061242d565b5b509050612456919061245a565b5090565b61247c91905b80821115612478576000816000905550600101612460565b5090565b90565b60008135905061248e8161323c565b92915050565b6000813590506124a381613253565b92915050565b600082601f8301126124ba57600080fd5b81356124cd6124c8826130ae565b613081565b915080825260208301602083018583830111156124e957600080fd5b6124f48382846131e9565b50505092915050565b60008135905061250c8161326a565b92915050565b60006020828403121561252457600080fd5b60006125328482850161247f565b91505092915050565b600080600080600060a0868803121561255357600080fd5b600061256188828901612494565b955050602061257288828901612494565b945050604086013567ffffffffffffffff81111561258f57600080fd5b61259b888289016124a9565b93505060606125ac888289016124fd565b925050608086013567ffffffffffffffff8111156125c957600080fd5b6125d5888289016124a9565b9150509295509295909350565b600080604083850312156125f557600080fd5b60006126038582860161247f565b925050602083013567ffffffffffffffff81111561262057600080fd5b61262c858286016124a9565b9150509250929050565b6000806040838503121561264957600080fd5b60006126578582860161247f565b9250506020612668858286016124fd565b9150509250929050565b6000806040838503121561268557600080fd5b600083013567ffffffffffffffff81111561269f57600080fd5b6126ab858286016124a9565b925050602083013567ffffffffffffffff8111156126c857600080fd5b6126d4858286016124a9565b9150509250929050565b6000602082840312156126f057600080fd5b60006126fe848285016124fd565b91505092915050565b600080600080600060a0868803121561271f57600080fd5b600061272d888289016124fd565b955050602061273e88828901612494565b945050604086013567ffffffffffffffff81111561275b57600080fd5b612767888289016124a9565b9350506060612778888289016124fd565b925050608086013567ffffffffffffffff81111561279557600080fd5b6127a1888289016124a9565b9150509295509295909350565b60006127ba8383612c6b565b905092915050565b60006127ce8383612d22565b60208301905092915050565b6127e3816131a1565b82525050565b6127f2816131a1565b82525050565b6128018161318f565b82525050565b6000612812826130fa565b61281c8185613140565b93508360208202850161282e856130da565b8060005b8581101561286a578484038952815161284b85826127ae565b945061285683613126565b925060208a01995050600181019050612832565b50829750879550505050505092915050565b600061288782613105565b6128918185613151565b935061289c836130ea565b8060005b838110156128cd5781516128b488826127c2565b97506128bf83613133565b9250506001810190506128a0565b5085935050505092915050565b6128e3816131b3565b82525050565b60006128f48261311b565b6128fe8185613173565b935061290e8185602086016131f8565b6129178161322b565b840191505092915050565b600061292d8261311b565b6129378185613184565b93506129478185602086016131f8565b80840191505092915050565b600061295e82613110565b6129688185613162565b93506129788185602086016131f8565b6129818161322b565b840191505092915050565b600061299782613110565b6129a18185613173565b93506129b18185602086016131f8565b6129ba8161322b565b840191505092915050565b60006129d2602383613173565b91507f556e617574686f72697a6564207472616e73616374696f6e206f726967696e6160008301527f746f7200000000000000000000000000000000000000000000000000000000006020830152604082019050919050565b6000612a38600f83613173565b91507f6572726f7220696e20645f6461746500000000000000000000000000000000006000830152602082019050919050565b6000612a78601483613173565b91507f6572726f7220696e20626c6f6f642067726f75700000000000000000000000006000830152602082019050919050565b6000612ab8600c83613173565b91507f4e6f7420616e2061646d696e00000000000000000000000000000000000000006000830152602082019050919050565b6000612af8600f83613173565b91507f4e6f2062616e6b206164647265737300000000000000000000000000000000006000830152602082019050919050565b6000612b38600f83613173565b91507f4e6f20686f7370206164647265737300000000000000000000000000000000006000830152602082019050919050565b6000612b78600d83613173565b91507f6572726f7220696e206e616d65000000000000000000000000000000000000006000830152602082019050919050565b6000612bb8601183613173565b91507f6572726f7220696e206578705f646174650000000000000000000000000000006000830152602082019050919050565b6000612bf8600e83613173565b91507f6572726f7220696e20646f6e6f720000000000000000000000000000000000006000830152602082019050919050565b6000612c38601a83613173565b91507f4e756d626572206f66204261677320756e7370656369666965640000000000006000830152602082019050919050565b600061010083016000830151612c846000860182612d22565b506020830151612c976020860182612d22565b506040830151612caa60408601826127da565b506060830151612cbd60608601826127da565b5060808301518482036080860152612cd58282612953565b91505060a0830151612cea60a0860182612d22565b5060c083015184820360c0860152612d028282612953565b91505060e0830151612d1760e08601826127da565b508091505092915050565b612d2b816131df565b82525050565b612d3a816131df565b82525050565b6000612d4c8284612922565b915081905092915050565b6000602082019050612d6c60008301846127f8565b92915050565b6000602082019050612d8760008301846127e9565b92915050565b60006020820190508181036000830152612da78184612807565b905092915050565b60006020820190508181036000830152612dc9818461287c565b905092915050565b6000602082019050612de660008301846128da565b92915050565b60006020820190508181036000830152612e06818461298c565b905092915050565b60006020820190508181036000830152612e27816129c5565b9050919050565b60006020820190508181036000830152612e4781612a2b565b9050919050565b60006020820190508181036000830152612e6781612a6b565b9050919050565b60006020820190508181036000830152612e8781612aab565b9050919050565b60006020820190508181036000830152612ea781612aeb565b9050919050565b60006020820190508181036000830152612ec781612b2b565b9050919050565b60006020820190508181036000830152612ee781612b6b565b9050919050565b60006020820190508181036000830152612f0781612bab565b9050919050565b60006020820190508181036000830152612f2781612beb565b9050919050565b60006020820190508181036000830152612f4781612c2b565b9050919050565b6000602082019050612f636000830184612d31565b92915050565b600061010082019050612f7f600083018b612d31565b612f8c602083018a612d31565b612f9960408301896127e9565b612fa660608301886127e9565b8181036080830152612fb881876128e9565b9050612fc760a0830186612d31565b81810360c0830152612fd981856128e9565b9050612fe860e08301846127e9565b9998505050505050505050565b60006101008201905061300b600083018b612d31565b613018602083018a612d31565b61302560408301896127e9565b61303260608301886127e9565b8181036080830152613044818761298c565b905061305360a0830186612d31565b81810360c0830152613065818561298c565b905061307460e08301846127e9565b9998505050505050505050565b6000604051905081810181811067ffffffffffffffff821117156130a457600080fd5b8060405250919050565b600067ffffffffffffffff8211156130c557600080fd5b601f19601f8301169050602081019050919050565b6000819050602082019050919050565b6000819050602082019050919050565b600081519050919050565b600081519050919050565b600081519050919050565b600081519050919050565b6000602082019050919050565b6000602082019050919050565b600082825260208201905092915050565b600082825260208201905092915050565b600082825260208201905092915050565b600082825260208201905092915050565b600081905092915050565b600061319a826131bf565b9050919050565b60006131ac826131bf565b9050919050565b60008115159050919050565b600073ffffffffffffffffffffffffffffffffffffffff82169050919050565b6000819050919050565b82818337600083830152505050565b60005b838110156132165780820151818401526020810190506131fb565b83811115613225576000848401525b50505050565b6000601f19601f8301169050919050565b6132458161318f565b811461325057600080fd5b50565b61325c816131a1565b811461326757600080fd5b50565b613273816131df565b811461327e57600080fd5b5056fea365627a7a7231582078d26464db2ab5f27a9f6a526aa49f041bd6f89de58af918698febdc062e5cf26c6578706572696d656e74616cf564736f6c63430005100040",
  "source": "pragma solidity >=0.4.21 <0.6.0;\r\npragma experimental ABIEncoderV2;\r\n\r\ncontract DateTime {\r\n        function getYear(uint timestamp) public returns (uint16);\r\n        function getMonth(uint timestamp) public returns (uint8);\r\n        function getDay(uint timestamp) public returns (uint8);\r\n}\r\n\r\ncontract Blood{\r\n    uint public today;\r\n    address public dateTimeAddr = 0x66eDEfff0A0c87bA4ca2b8E73BB05787eb35908E;\r\n    address payable public admin = address(0x66eDEfff0A0c87bA4ca2b8E73BB05787eb35908E);\r\n    DateTime dateTime = DateTime(dateTimeAddr);\r\n    uint[] public temp_array;\r\n    string public name;\r\n    uint public bagCount = 0;\r\n    uint public b_bagCount = 0;\r\n    uint public h_bagCount = 0;\r\n    mapping(uint => Bloodbag) public bloodbags; // This is the general list of bloodbags.\r\n    mapping(address => uint[]) public donors; // Bloodbags corresponding to donors stored here.\r\n    mapping(address => uint[]) public hospitals; // Bloodbags corresponding to hospitals stored here.\r\n    mapping(address => uint) public usertype; // This mapping is to identify the type of user using the website, i.e\r\n                                              // (1 = donor, 2 = bank and 3 = hospital)\r\n    function getArray(address _donor) public view returns (uint256[] memory) {\r\n        return donors[_donor];\r\n    }\r\n\r\n    function getHbags(address _hospital) public view returns (uint256[] memory) {\r\n        return hospitals[_hospital];\r\n    }\r\n\r\n    function getTemp() public view returns (uint256[] memory) {\r\n        return temp_array;\r\n    }\r\n\r\n    struct Bloodbag {\r\n        uint id;\r\n        uint donation_date;\r\n        address payable donor;\r\n        address payable bank;\r\n        string blood_group;\r\n        uint expiry;\r\n        string owner_name;\r\n        address payable owner;\r\n        // uint price;\r\n    }\r\n\r\n    event BagCreated(\r\n        uint id,\r\n        uint donation_date,\r\n        address payable donor,\r\n        address payable bank,\r\n        string blood_group,\r\n        uint expiry,\r\n        string owner_name,\r\n        address payable owner\r\n        // uint price\r\n    );\r\n\r\n    event message(string message);\r\n    event arr(uint[] array);\r\n    event bagPurchased(\r\n        uint id,\r\n        uint donation_date,\r\n        address payable donor,\r\n        address payable bank,\r\n        string blood_group,\r\n        uint expiry,\r\n        string owner_name,\r\n        address payable owner\r\n        // uint price\r\n    );\r\n\r\n    constructor() public{\r\n        name = \"Pranav Gor\";\r\n        usertype[admin] = 14;\r\n        usertype[0x2eEB28e7Acec6f402ee207d82Ef1F7AABeDb312a] = 3;\r\n        // init_hospitals\r\n    }\r\n\r\n    function createBloodbag(uint _donation_date, address payable _donor,\r\n     string memory _blood_group, uint _expiry, string memory _owner_name) public {\r\n        // Require valid params\r\n        // require(usertype[msg.sender] == 2, \"Not a blood bank.\");\r\n        require(bytes(_owner_name).length > 0, \"error in name\");\r\n        require(bytes(_blood_group).length > 0, \"error in blood group\");\r\n        require(_donation_date > 0, \"error in d_date\");\r\n        require(_expiry > _donation_date, \"error in exp_date\");\r\n        require(_donor != address(0), \"error in donor\");\r\n        // Increment bag count\r\n        bagCount ++;\r\n        // Date related stuff\r\n        // Set donor id = 1 if not already exists.\r\n        if (usertype[_donor] == 0){\r\n            usertype[_donor] = 1;\r\n        }\r\n        // Create the Blood bag\r\n        Bloodbag memory temp_bloodbag = Bloodbag(bagCount, _donation_date, _donor, msg.sender, _blood_group, _expiry,\r\n        _owner_name, msg.sender);\r\n        bloodbags[bagCount] = temp_bloodbag;\r\n        b_bagCount ++;\r\n        // add bag to specific donor's list\r\n        donors[_donor].push(temp_bloodbag.id);\r\n            if (usertype[msg.sender] == 3){ //Hospital ne banaya\r\n                hospitals[msg.sender].push(temp_bloodbag.id);\r\n                h_bagCount ++;\r\n                b_bagCount --;\r\n            }\r\n        // Trigger an event\r\n        emit BagCreated(bagCount, _donation_date, _donor, msg.sender, _blood_group, _expiry,\r\n        _owner_name, msg.sender);\r\n    }\r\n\r\n    function createBank(address _bank) public {\r\n        require(msg.sender == admin,\"Not an admin\");\r\n        require(_bank != address(0),\"No bank address\");\r\n        usertype[_bank] = 2;\r\n    }\r\n\r\n    function createHosp(address _hosp) public {\r\n        require(msg.sender == admin,\"Not an admin\");\r\n        require(_hosp != address(0),\"No hosp address\");\r\n        usertype[_hosp] = 3;\r\n    }\r\n\r\n    function compareStrings (string memory a, string memory b) public pure returns (bool) {\r\n        return (keccak256(abi.encodePacked((a))) == keccak256(abi.encodePacked((b))) );\r\n    }\r\n    // function init_hospitals() public {\r\n    //     uint one_day = 3600*24;\r\n    //     // donation = Date.now()\r\n    //     uint expiry = now + (30*one_day);\r\n    //     created = Bloodbag(i+20, now + i, admin, admin, 'A', expiry, 'Admin Hospital', 0x2eEB28e7Acec6f402ee207d82Ef1F7AABeDb312a, 5)\r\n    //     for (uint i = 0; i < 3; i++) {\r\n    //         hospitals[0x2eEB28e7Acec6f402ee207d82Ef1F7AABeDb312a].push\r\n    //             ();\r\n    //     }\r\n    //     name = 'Back to 2';\r\n    // }\r\n\r\n\r\n    // function h_showInventory(string memory _bg) public {\r\n    //     address hosp = msg.sender;\r\n    //     uint[] memory h_bags = getHbags(hosp);\r\n    //     if (bytes(_bg).length != 0){\r\n    //         for(uint j = 0; j < h_bags.length; j++ ){\r\n    //             Bloodbag memory bb = bloodbags[h_bags[j]];\r\n    //             if (compareStrings(_bg, bb.blood_group)){\r\n    //                 temp_array.push(bb.id);\r\n    //             }\r\n    //         }\r\n    //     } else {\r\n    //         temp_array = getHbags(msg.sender);\r\n    //     }\r\n    // }\r\n    Bloodbag[] public Allbags;\r\n    Bloodbag[] temp;\r\n    mapping(address => uint) counts;\r\n\r\n    function getAllBags() public {\r\n        for(uint k = 0; k < bagCount; k++){\r\n            Allbags.push(bloodbags[k]);\r\n        }\r\n    }\r\n\r\n\r\n    function filterBags(address _hosp, string memory _bg) public returns(Bloodbag[] memory) {\r\n        getAllBags();\r\n        for (uint i = 0; i < Allbags.length; i++){\r\n            if ((Allbags[i].owner != _hosp) && (compareStrings(Allbags[i].blood_group, _bg))){\r\n                temp.push(Allbags[i]);\r\n            }\r\n        }\r\n\r\n        return temp;\r\n    }\r\n    bool[] visited;\r\n\r\n    // function getCounts(Bloodbag[] memory _input, uint _leng) public {\r\n    //     uint[] memory countsss;\r\n    //     address[] memory list;\r\n    //     for (uint i = 0; i <= _leng; i++ ){\r\n    //         visited[i] = false;\r\n    //     }\r\n\r\n    //     for (uint i = 0; i < _leng; i++) {\r\n    //     // Skip this element if already processed\r\n    //         if (visited[i] == true)\r\n    //             continue;\r\n\r\n    //         // Count frequency\r\n    //         uint count = 1;\r\n    //         for (uint j = i + 1; j < _leng; j++) {\r\n    //             if (_input[i].owner == _input[j].owner) {\r\n    //                 visited[j] = true;\r\n    //                 count++;\r\n    //             }\r\n    //         }\r\n    //         countsss[i] = count;\r\n    //         list[i] = _input.owner;\r\n    //     }\r\n\r\n\r\n    // }\r\n\r\n    function h_placeOrder(address payable _hosp, address payable _bank,\r\n     string memory _bg, uint _amount, string memory _name) public payable {\r\n        Bloodbag[] memory temp1;\r\n        temp1 = filterBags(_hosp, _bg);\r\n        // bool f = false;\r\n        // uint leng = temp1.length;\r\n        // getCounts(temp1, leng);\r\n        // Bloodbag[] memory finale;\r\n        // mapping(address => uint) counts;\r\n        require(_amount != 0, 'Number of Bags unspecified');\r\n        require(msg.sender == _hosp, 'Unauthorized transaction originator');\r\n        uint total = 10 * _amount;\r\n        address(_bank).transfer(total);\r\n        //we need to get the bank address and also the ID of the bags to be purchased, for further processing from Frontend\r\n        // assuming we got two id here for an example:-\r\n        uint[] memory _ids;\r\n        _ids[0] = 2;\r\n        _ids[1] = 4;\r\n        for (uint i = 0; i < _ids.length; i++ ){\r\n            Bloodbag memory b = bloodbags[_ids[i]];\r\n            bloodbags[_ids[i]].owner = msg.sender;\r\n            bloodbags[_ids[i]].owner_name = _name;\r\n            emit bagPurchased(b.id, b.donation_date, b.donor, b.bank, b.blood_group,b.expiry,b.owner_name,b.owner);\r\n        }\r\n    }\r\n\r\n\r\n}",
  "sourcePath": "C:\\Users\\Anonym\\Documents\\GitHub\\Ethereum_Blockchain_BloodSupplyChain\\src\\contracts\\Blood.sol",
  "compiler": {
    "name": "solc",
    "version": "0.5.16+commit.9c3226ce.Emscripten.clang"
  },
  "schemaVersion": "3.0.23",
  "updatedAt": "2020-02-29T21:51:42.936Z",
  "networkType": "ethereum",
  "devdoc": {
    "methods": {}
  },
  "userdoc": {
    "methods": {}
  }
}