{
  "contractName": "Blood",
  "abi": [
    {
      "inputs": [],
      "payable": false,
      "stateMutability": "nonpayable",
      "type": "constructor"
    },
    {
      "anonymous": false,
      "inputs": [
        {
          "indexed": false,
          "internalType": "uint256",
          "name": "id",
          "type": "uint256"
        },
        {
          "indexed": false,
          "internalType": "bool",
          "name": "used",
          "type": "bool"
        },
        {
          "indexed": false,
          "internalType": "uint256",
          "name": "donation_date",
          "type": "uint256"
        },
        {
          "indexed": false,
          "internalType": "address payable",
          "name": "donor",
          "type": "address"
        },
        {
          "indexed": false,
          "internalType": "address payable",
          "name": "bank",
          "type": "address"
        },
        {
          "indexed": false,
          "internalType": "string",
          "name": "blood_group",
          "type": "string"
        },
        {
          "indexed": false,
          "internalType": "uint256",
          "name": "expiry",
          "type": "uint256"
        },
        {
          "indexed": false,
          "internalType": "string",
          "name": "owner_name",
          "type": "string"
        },
        {
          "indexed": false,
          "internalType": "address payable",
          "name": "owner",
          "type": "address"
        }
      ],
      "name": "BagCreated",
      "type": "event"
    },
    {
      "anonymous": false,
      "inputs": [
        {
          "indexed": false,
          "internalType": "uint256[]",
          "name": "array",
          "type": "uint256[]"
        }
      ],
      "name": "arr",
      "type": "event"
    },
    {
      "anonymous": false,
      "inputs": [
        {
          "indexed": false,
          "internalType": "uint256",
          "name": "id",
          "type": "uint256"
        },
        {
          "indexed": false,
          "internalType": "bool",
          "name": "used",
          "type": "bool"
        },
        {
          "indexed": false,
          "internalType": "uint256",
          "name": "donation_date",
          "type": "uint256"
        },
        {
          "indexed": false,
          "internalType": "address payable",
          "name": "donor",
          "type": "address"
        },
        {
          "indexed": false,
          "internalType": "address payable",
          "name": "bank",
          "type": "address"
        },
        {
          "indexed": false,
          "internalType": "string",
          "name": "blood_group",
          "type": "string"
        },
        {
          "indexed": false,
          "internalType": "uint256",
          "name": "expiry",
          "type": "uint256"
        },
        {
          "indexed": false,
          "internalType": "string",
          "name": "owner_name",
          "type": "string"
        },
        {
          "indexed": false,
          "internalType": "address payable",
          "name": "owner",
          "type": "address"
        }
      ],
      "name": "bagPurchased",
      "type": "event"
    },
    {
      "anonymous": false,
      "inputs": [
        {
          "indexed": false,
          "internalType": "string",
          "name": "message",
          "type": "string"
        }
      ],
      "name": "message",
      "type": "event"
    },
    {
      "constant": true,
      "inputs": [],
      "name": "admin",
      "outputs": [
        {
          "internalType": "address payable",
          "name": "",
          "type": "address"
        }
      ],
      "payable": false,
      "stateMutability": "view",
      "type": "function"
    },
    {
      "constant": true,
      "inputs": [],
      "name": "bagCount",
      "outputs": [
        {
          "internalType": "uint256",
          "name": "",
          "type": "uint256"
        }
      ],
      "payable": false,
      "stateMutability": "view",
      "type": "function"
    },
    {
      "constant": true,
      "inputs": [
        {
          "internalType": "uint256",
          "name": "",
          "type": "uint256"
        }
      ],
      "name": "bloodbags",
      "outputs": [
        {
          "internalType": "uint256",
          "name": "id",
          "type": "uint256"
        },
        {
          "internalType": "bool",
          "name": "used",
          "type": "bool"
        },
        {
          "internalType": "bool",
          "name": "first",
          "type": "bool"
        },
        {
          "internalType": "uint256",
          "name": "donation_date",
          "type": "uint256"
        },
        {
          "internalType": "address payable",
          "name": "donor",
          "type": "address"
        },
        {
          "internalType": "address payable",
          "name": "bank",
          "type": "address"
        },
        {
          "internalType": "string",
          "name": "blood_group",
          "type": "string"
        },
        {
          "internalType": "uint256",
          "name": "expiry",
          "type": "uint256"
        },
        {
          "internalType": "string",
          "name": "owner_name",
          "type": "string"
        },
        {
          "internalType": "address payable",
          "name": "owner",
          "type": "address"
        }
      ],
      "payable": false,
      "stateMutability": "view",
      "type": "function"
    },
    {
      "constant": true,
      "inputs": [
        {
          "internalType": "address",
          "name": "",
          "type": "address"
        },
        {
          "internalType": "uint256",
          "name": "",
          "type": "uint256"
        }
      ],
      "name": "donors",
      "outputs": [
        {
          "internalType": "uint256",
          "name": "",
          "type": "uint256"
        }
      ],
      "payable": false,
      "stateMutability": "view",
      "type": "function"
    },
    {
      "constant": true,
      "inputs": [],
      "name": "hospi",
      "outputs": [
        {
          "internalType": "address payable",
          "name": "",
          "type": "address"
        }
      ],
      "payable": false,
      "stateMutability": "view",
      "type": "function"
    },
    {
      "constant": true,
      "inputs": [
        {
          "internalType": "address",
          "name": "",
          "type": "address"
        },
        {
          "internalType": "uint256",
          "name": "",
          "type": "uint256"
        }
      ],
      "name": "hospitals",
      "outputs": [
        {
          "internalType": "uint256",
          "name": "",
          "type": "uint256"
        }
      ],
      "payable": false,
      "stateMutability": "view",
      "type": "function"
    },
    {
      "constant": true,
      "inputs": [],
      "name": "name",
      "outputs": [
        {
          "internalType": "string",
          "name": "",
          "type": "string"
        }
      ],
      "payable": false,
      "stateMutability": "view",
      "type": "function"
    },
    {
      "constant": true,
      "inputs": [
        {
          "internalType": "address",
          "name": "",
          "type": "address"
        },
        {
          "internalType": "uint256",
          "name": "",
          "type": "uint256"
        }
      ],
      "name": "notification",
      "outputs": [
        {
          "internalType": "uint256",
          "name": "",
          "type": "uint256"
        }
      ],
      "payable": false,
      "stateMutability": "view",
      "type": "function"
    },
    {
      "constant": true,
      "inputs": [],
      "name": "userCount",
      "outputs": [
        {
          "internalType": "uint256",
          "name": "",
          "type": "uint256"
        }
      ],
      "payable": false,
      "stateMutability": "view",
      "type": "function"
    },
    {
      "constant": true,
      "inputs": [
        {
          "internalType": "uint256",
          "name": "",
          "type": "uint256"
        }
      ],
      "name": "users",
      "outputs": [
        {
          "internalType": "uint256",
          "name": "id",
          "type": "uint256"
        },
        {
          "internalType": "uint256",
          "name": "user_type",
          "type": "uint256"
        },
        {
          "internalType": "string",
          "name": "user",
          "type": "string"
        },
        {
          "internalType": "address payable",
          "name": "user_address",
          "type": "address"
        },
        {
          "internalType": "string",
          "name": "name",
          "type": "string"
        }
      ],
      "payable": false,
      "stateMutability": "view",
      "type": "function"
    },
    {
      "constant": true,
      "inputs": [
        {
          "internalType": "address",
          "name": "",
          "type": "address"
        }
      ],
      "name": "usertype",
      "outputs": [
        {
          "internalType": "uint256",
          "name": "id",
          "type": "uint256"
        },
        {
          "internalType": "uint256",
          "name": "user_type",
          "type": "uint256"
        },
        {
          "internalType": "string",
          "name": "user",
          "type": "string"
        },
        {
          "internalType": "address payable",
          "name": "user_address",
          "type": "address"
        },
        {
          "internalType": "string",
          "name": "name",
          "type": "string"
        }
      ],
      "payable": false,
      "stateMutability": "view",
      "type": "function"
    },
    {
      "constant": true,
      "inputs": [
        {
          "internalType": "address payable",
          "name": "_donor",
          "type": "address"
        }
      ],
      "name": "getDbags",
      "outputs": [
        {
          "internalType": "uint256[]",
          "name": "",
          "type": "uint256[]"
        }
      ],
      "payable": false,
      "stateMutability": "view",
      "type": "function"
    },
    {
      "constant": true,
      "inputs": [
        {
          "internalType": "address payable",
          "name": "_donor",
          "type": "address"
        }
      ],
      "name": "getNotification",
      "outputs": [
        {
          "internalType": "uint256[]",
          "name": "",
          "type": "uint256[]"
        }
      ],
      "payable": false,
      "stateMutability": "view",
      "type": "function"
    },
    {
      "constant": true,
      "inputs": [
        {
          "internalType": "address payable",
          "name": "_hospital",
          "type": "address"
        }
      ],
      "name": "getHbags",
      "outputs": [
        {
          "internalType": "uint256[]",
          "name": "",
          "type": "uint256[]"
        }
      ],
      "payable": false,
      "stateMutability": "view",
      "type": "function"
    },
    {
      "constant": false,
      "inputs": [
        {
          "internalType": "uint256",
          "name": "_donation_date",
          "type": "uint256"
        },
        {
          "internalType": "address payable",
          "name": "_donor",
          "type": "address"
        },
        {
          "internalType": "string",
          "name": "_donor_name",
          "type": "string"
        },
        {
          "internalType": "string",
          "name": "_blood_group",
          "type": "string"
        },
        {
          "internalType": "uint256",
          "name": "_expiry",
          "type": "uint256"
        }
      ],
      "name": "createBloodbag",
      "outputs": [],
      "payable": false,
      "stateMutability": "nonpayable",
      "type": "function"
    },
    {
      "constant": false,
      "inputs": [
        {
          "internalType": "address payable",
          "name": "_bank",
          "type": "address"
        },
        {
          "internalType": "string",
          "name": "_name",
          "type": "string"
        }
      ],
      "name": "createBank",
      "outputs": [],
      "payable": false,
      "stateMutability": "nonpayable",
      "type": "function"
    },
    {
      "constant": false,
      "inputs": [
        {
          "internalType": "address payable",
          "name": "_hosp",
          "type": "address"
        },
        {
          "internalType": "string",
          "name": "_name",
          "type": "string"
        }
      ],
      "name": "createHosp",
      "outputs": [],
      "payable": false,
      "stateMutability": "nonpayable",
      "type": "function"
    },
    {
      "constant": false,
      "inputs": [
        {
          "internalType": "uint256",
          "name": "bag_id",
          "type": "uint256"
        }
      ],
      "name": "h_placeOrder",
      "outputs": [],
      "payable": true,
      "stateMutability": "payable",
      "type": "function"
    },
    {
      "constant": false,
      "inputs": [
        {
          "internalType": "uint256",
          "name": "bag_id",
          "type": "uint256"
        }
      ],
      "name": "useBag",
      "outputs": [],
      "payable": false,
      "stateMutability": "nonpayable",
      "type": "function"
    },
    {
      "constant": false,
      "inputs": [],
      "name": "gotIt",
      "outputs": [],
      "payable": false,
      "stateMutability": "nonpayable",
      "type": "function"
    }
  ],
  "bytecode": "0x608060405273993ea21a23fe094af6d053000eb022decd83c5136000806101000a81548173ffffffffffffffffffffffffffffffffffffffff021916908373ffffffffffffffffffffffffffffffffffffffff160217905550737340c15749cd4efbf70034d565d82b7d908860e2600160006101000a81548173ffffffffffffffffffffffffffffffffffffffff021916908373ffffffffffffffffffffffffffffffffffffffff16021790555060006003556000600455348015620000c457600080fd5b506040518060400160405280600a81526020017f5072616e617620476f720000000000000000000000000000000000000000000081525060029080519060200190620001129291906200046e565b506004600081548092919060010191905055506040518060a001604052806004548152602001600e81526020016040518060400160405280600581526020017f41646d696e00000000000000000000000000000000000000000000000000000081525081526020016000809054906101000a900473ffffffffffffffffffffffffffffffffffffffff1673ffffffffffffffffffffffffffffffffffffffff1681526020016040518060400160405280600681526020017f5072616e61760000000000000000000000000000000000000000000000000000815250815250600860008060009054906101000a900473ffffffffffffffffffffffffffffffffffffffff1673ffffffffffffffffffffffffffffffffffffffff1673ffffffffffffffffffffffffffffffffffffffff1681526020019081526020016000206000820151816000015560208201518160010155604082015181600201908051906020019062000282929190620004f5565b5060608201518160030160006101000a81548173ffffffffffffffffffffffffffffffffffffffff021916908373ffffffffffffffffffffffffffffffffffffffff1602179055506080820151816004019080519060200190620002e8929190620004f5565b509050506040518060a001604052806004548152602001600e81526020016040518060400160405280600581526020017f41646d696e00000000000000000000000000000000000000000000000000000081525081526020016000809054906101000a900473ffffffffffffffffffffffffffffffffffffffff1673ffffffffffffffffffffffffffffffffffffffff1681526020016040518060400160405280600681526020017f5072616e61760000000000000000000000000000000000000000000000000000815250815250600a6000600454815260200190815260200160002060008201518160000155602082015181600101556040820151816002019080519060200190620003fe929190620004f5565b5060608201518160030160006101000a81548173ffffffffffffffffffffffffffffffffffffffff021916908373ffffffffffffffffffffffffffffffffffffffff160217905550608082015181600401908051906020019062000464929190620004f5565b50905050620005a4565b828054600181600116156101000203166002900490600052602060002090601f016020900481019282601f10620004b157805160ff1916838001178555620004e2565b82800160010185558215620004e2579182015b82811115620004e1578251825591602001919060010190620004c4565b5b509050620004f191906200057c565b5090565b828054600181600116156101000203166002900490600052602060002090601f016020900481019282601f106200053857805160ff191683800117855562000569565b8280016001018555821562000569579182015b82811115620005685782518255916020019190600101906200054b565b5b5090506200057891906200057c565b5090565b620005a191905b808211156200059d57600081600090555060010162000583565b5090565b90565b6138b980620005b46000396000f3fe60806040526004361061011f5760003560e01c806389a57f8e116100a0578063ab2d4ebd11610064578063ab2d4ebd14610c6f578063b8558cbe14610d15578063bd6ea27414610dfd578063e8c880b414610e14578063f851a44014610e3f5761011f565b806389a57f8e146108b25780638b0c583e146109585780639715afe114610aeb5780639b56f5f014610b5a578063aabd2eb214610bc95761011f565b80634309e4c6116100e75780634309e4c6146104f25780634ea0738f146106d657806366df3dc01461070457806376147a0e146107ec57806386f1daa71461085b5761011f565b806306fdde031461012457806307973ccf146101b45780630a752b87146101df5780633164582e1461021a578063365b98b214610391575b600080fd5b34801561013057600080fd5b50610139610e96565b6040518080602001828103825283818151815260200191508051906020019080838360005b8381101561017957808201518184015260208101905061015e565b50505050905090810190601f1680156101a65780820380516001836020036101000a031916815260200191505b509250505060405180910390f35b3480156101c057600080fd5b506101c9610f34565b6040518082815260200191505060405180910390f35b3480156101eb57600080fd5b506102186004803603602081101561020257600080fd5b8101908080359060200190929190505050610f3a565b005b34801561022657600080fd5b506102696004803603602081101561023d57600080fd5b81019080803573ffffffffffffffffffffffffffffffffffffffff1690602001909291905050506110ac565b60405180868152602001858152602001806020018473ffffffffffffffffffffffffffffffffffffffff1673ffffffffffffffffffffffffffffffffffffffff16815260200180602001838103835286818151815260200191508051906020019080838360005b838110156102eb5780820151818401526020810190506102d0565b50505050905090810190601f1680156103185780820380516001836020036101000a031916815260200191505b50838103825284818151815260200191508051906020019080838360005b83811015610351578082015181840152602081019050610336565b50505050905090810190601f16801561037e5780820380516001836020036101000a031916815260200191505b5097505050505050505060405180910390f35b34801561039d57600080fd5b506103ca600480360360208110156103b457600080fd5b8101908080359060200190929190505050611232565b60405180868152602001858152602001806020018473ffffffffffffffffffffffffffffffffffffffff1673ffffffffffffffffffffffffffffffffffffffff16815260200180602001838103835286818151815260200191508051906020019080838360005b8381101561044c578082015181840152602081019050610431565b50505050905090810190601f1680156104795780820380516001836020036101000a031916815260200191505b50838103825284818151815260200191508051906020019080838360005b838110156104b2578082015181840152602081019050610497565b50505050905090810190601f1680156104df5780820380516001836020036101000a031916815260200191505b5097505050505050505060405180910390f35b3480156104fe57600080fd5b5061052b6004803603602081101561051557600080fd5b81019080803590602001909291905050506113b8565b604051808b81526020018a151515158152602001891515151581526020018881526020018773ffffffffffffffffffffffffffffffffffffffff1673ffffffffffffffffffffffffffffffffffffffff1681526020018673ffffffffffffffffffffffffffffffffffffffff1673ffffffffffffffffffffffffffffffffffffffff16815260200180602001858152602001806020018473ffffffffffffffffffffffffffffffffffffffff1673ffffffffffffffffffffffffffffffffffffffff168152602001838103835287818151815260200191508051906020019080838360005b8381101561062b578082015181840152602081019050610610565b50505050905090810190601f1680156106585780820380516001836020036101000a031916815260200191505b50838103825285818151815260200191508051906020019080838360005b83811015610691578082015181840152602081019050610676565b50505050905090810190601f1680156106be5780820380516001836020036101000a031916815260200191505b509c5050505050505050505050505060405180910390f35b610702600480360360208110156106ec57600080fd5b81019080803590602001909291905050506115b6565b005b34801561071057600080fd5b506107ea6004803603604081101561072757600080fd5b81019080803573ffffffffffffffffffffffffffffffffffffffff1690602001909291908035906020019064010000000081111561076457600080fd5b82018360208201111561077657600080fd5b8035906020019184600183028401116401000000008311171561079857600080fd5b91908080601f016020809104026020016040519081016040528093929190818152602001838380828437600081840152601f19601f820116905080830192505050505050509192919290505050611d5f565b005b3480156107f857600080fd5b506108456004803603604081101561080f57600080fd5b81019080803573ffffffffffffffffffffffffffffffffffffffff16906020019092919080359060200190929190505050612201565b6040518082815260200191505060405180910390f35b34801561086757600080fd5b5061087061222f565b604051808273ffffffffffffffffffffffffffffffffffffffff1673ffffffffffffffffffffffffffffffffffffffff16815260200191505060405180910390f35b3480156108be57600080fd5b50610901600480360360208110156108d557600080fd5b81019080803573ffffffffffffffffffffffffffffffffffffffff169060200190929190505050612255565b6040518080602001828103825283818151815260200191508051906020019060200280838360005b83811015610944578082015181840152602081019050610929565b505050509050019250505060405180910390f35b34801561096457600080fd5b50610ae9600480360360a081101561097b57600080fd5b8101908080359060200190929190803573ffffffffffffffffffffffffffffffffffffffff169060200190929190803590602001906401000000008111156109c257600080fd5b8201836020820111156109d457600080fd5b803590602001918460018302840111640100000000831117156109f657600080fd5b91908080601f016020809104026020016040519081016040528093929190818152602001838380828437600081840152601f19601f82011690508083019250505050505050919291929080359060200190640100000000811115610a5957600080fd5b820183602082011115610a6b57600080fd5b80359060200191846001830284011164010000000083111715610a8d57600080fd5b91908080601f016020809104026020016040519081016040528093929190818152602001838380828437600081840152601f19601f820116905080830192505050505050509192919290803590602001909291905050506122ec565b005b348015610af757600080fd5b50610b4460048036036040811015610b0e57600080fd5b81019080803573ffffffffffffffffffffffffffffffffffffffff16906020019092919080359060200190929190505050612f2f565b6040518082815260200191505060405180910390f35b348015610b6657600080fd5b50610bb360048036036040811015610b7d57600080fd5b81019080803573ffffffffffffffffffffffffffffffffffffffff16906020019092919080359060200190929190505050612f5d565b6040518082815260200191505060405180910390f35b348015610bd557600080fd5b50610c1860048036036020811015610bec57600080fd5b81019080803573ffffffffffffffffffffffffffffffffffffffff169060200190929190505050612f8b565b6040518080602001828103825283818151815260200191508051906020019060200280838360005b83811015610c5b578082015181840152602081019050610c40565b505050509050019250505060405180910390f35b348015610c7b57600080fd5b50610cbe60048036036020811015610c9257600080fd5b81019080803573ffffffffffffffffffffffffffffffffffffffff169060200190929190505050613022565b6040518080602001828103825283818151815260200191508051906020019060200280838360005b83811015610d01578082015181840152602081019050610ce6565b505050509050019250505060405180910390f35b348015610d2157600080fd5b50610dfb60048036036040811015610d3857600080fd5b81019080803573ffffffffffffffffffffffffffffffffffffffff16906020019092919080359060200190640100000000811115610d7557600080fd5b820183602082011115610d8757600080fd5b80359060200191846001830284011164010000000083111715610da957600080fd5b91908080601f016020809104026020016040519081016040528093929190818152602001838380828437600081840152601f19601f8201169050808301925050505050505091929192905050506130b9565b005b348015610e0957600080fd5b50610e1261355b565b005b348015610e2057600080fd5b50610e29613645565b6040518082815260200191505060405180910390f35b348015610e4b57600080fd5b50610e5461364b565b604051808273ffffffffffffffffffffffffffffffffffffffff1673ffffffffffffffffffffffffffffffffffffffff16815260200191505060405180910390f35b60028054600181600116156101000203166002900480601f016020809104026020016040519081016040528092919081815260200182805460018160011615610100020316600290048015610f2c5780601f10610f0157610100808354040283529160200191610f2c565b820191906000526020600020905b815481529060010190602001808311610f0f57829003601f168201915b505050505081565b60045481565b6003600860003373ffffffffffffffffffffffffffffffffffffffff1673ffffffffffffffffffffffffffffffffffffffff1681526020019081526020016000206001015414610fd5576040517f08c379a00000000000000000000000000000000000000000000000000000000081526004018080602001828103825260238152602001806138626023913960400191505060405180910390fd5b60016005600083815260200190815260200160002060010160006101000a81548160ff02191690831515021790555060006005600083815260200190815260200160002060030160009054906101000a900473ffffffffffffffffffffffffffffffffffffffff169050600960008273ffffffffffffffffffffffffffffffffffffffff1673ffffffffffffffffffffffffffffffffffffffff1681526020019081526020016000208290806001815401808255809150509060018203906000526020600020016000909192909190915055505050565b6008602052806000526040600020600091509050806000015490806001015490806002018054600181600116156101000203166002900480601f0160208091040260200160405190810160405280929190818152602001828054600181600116156101000203166002900480156111645780601f1061113957610100808354040283529160200191611164565b820191906000526020600020905b81548152906001019060200180831161114757829003601f168201915b5050505050908060030160009054906101000a900473ffffffffffffffffffffffffffffffffffffffff1690806004018054600181600116156101000203166002900480601f0160208091040260200160405190810160405280929190818152602001828054600181600116156101000203166002900480156112285780601f106111fd57610100808354040283529160200191611228565b820191906000526020600020905b81548152906001019060200180831161120b57829003601f168201915b5050505050905085565b600a602052806000526040600020600091509050806000015490806001015490806002018054600181600116156101000203166002900480601f0160208091040260200160405190810160405280929190818152602001828054600181600116156101000203166002900480156112ea5780601f106112bf576101008083540402835291602001916112ea565b820191906000526020600020905b8154815290600101906020018083116112cd57829003601f168201915b5050505050908060030160009054906101000a900473ffffffffffffffffffffffffffffffffffffffff1690806004018054600181600116156101000203166002900480601f0160208091040260200160405190810160405280929190818152602001828054600181600116156101000203166002900480156113ae5780601f10611383576101008083540402835291602001916113ae565b820191906000526020600020905b81548152906001019060200180831161139157829003601f168201915b5050505050905085565b60056020528060005260406000206000915090508060000154908060010160009054906101000a900460ff16908060010160019054906101000a900460ff16908060020154908060030160009054906101000a900473ffffffffffffffffffffffffffffffffffffffff16908060040160009054906101000a900473ffffffffffffffffffffffffffffffffffffffff1690806005018054600181600116156101000203166002900480601f0160208091040260200160405190810160405280929190818152602001828054600181600116156101000203166002900480156114e25780601f106114b7576101008083540402835291602001916114e2565b820191906000526020600020905b8154815290600101906020018083116114c557829003601f168201915b505050505090806006015490806007018054600181600116156101000203166002900480601f0160208091040260200160405190810160405280929190818152602001828054600181600116156101000203166002900480156115865780601f1061155b57610100808354040283529160200191611586565b820191906000526020600020905b81548152906001019060200180831161156957829003601f168201915b5050505050908060080160009054906101000a900473ffffffffffffffffffffffffffffffffffffffff1690508a565b60006005600083815260200190815260200160002060080160009054906101000a900473ffffffffffffffffffffffffffffffffffffffff16905060006005600084815260200190815260200160002060010160009054906101000a900460ff1690506001341161168f576040517f08c379a00000000000000000000000000000000000000000000000000000000081526004018080602001828103825260108152602001807f57726f6e6720707269636520706169640000000000000000000000000000000081525060200191505060405180910390fd5b6003600860003373ffffffffffffffffffffffffffffffffffffffff1673ffffffffffffffffffffffffffffffffffffffff168152602001908152602001600020600101541461172a576040517f08c379a00000000000000000000000000000000000000000000000000000000081526004018080602001828103825260238152602001806138626023913960400191505060405180910390fd5b8173ffffffffffffffffffffffffffffffffffffffff166108fc349081150290604051600060405180830381858888f19350505050158015611770573d6000803e3d6000fd5b50336005600085815260200190815260200160002060080160006101000a81548173ffffffffffffffffffffffffffffffffffffffff021916908373ffffffffffffffffffffffffffffffffffffffff160217905550600860003373ffffffffffffffffffffffffffffffffffffffff1673ffffffffffffffffffffffffffffffffffffffff16815260200190815260200160002060040160056000858152602001908152602001600020600701908054600181600116156101000203166002900461183d929190613670565b506118466136f7565b6005600085815260200190815260200160002060405180610140016040529081600082015481526020016001820160009054906101000a900460ff161515151581526020016001820160019054906101000a900460ff16151515158152602001600282015481526020016003820160009054906101000a900473ffffffffffffffffffffffffffffffffffffffff1673ffffffffffffffffffffffffffffffffffffffff1673ffffffffffffffffffffffffffffffffffffffff1681526020016004820160009054906101000a900473ffffffffffffffffffffffffffffffffffffffff1673ffffffffffffffffffffffffffffffffffffffff1673ffffffffffffffffffffffffffffffffffffffff168152602001600582018054600181600116156101000203166002900480601f0160208091040260200160405190810160405280929190818152602001828054600181600116156101000203166002900480156119f45780601f106119c9576101008083540402835291602001916119f4565b820191906000526020600020905b8154815290600101906020018083116119d757829003601f168201915b5050505050815260200160068201548152602001600782018054600181600116156101000203166002900480601f016020809104026020016040519081016040528092919081815260200182805460018160011615610100020316600290048015611aa05780601f10611a7557610100808354040283529160200191611aa0565b820191906000526020600020905b815481529060010190602001808311611a8357829003601f168201915b505050505081526020016008820160009054906101000a900473ffffffffffffffffffffffffffffffffffffffff1673ffffffffffffffffffffffffffffffffffffffff1673ffffffffffffffffffffffffffffffffffffffff16815250509050600760003373ffffffffffffffffffffffffffffffffffffffff1673ffffffffffffffffffffffffffffffffffffffff168152602001908152602001600020816000015190806001815401808255809150509060018203906000526020600020016000909192909190915055507f0d3fe3385cab0d15b81a27a2b4fd58a078ea14c7a989a3cf027a3d0d5924ddc5816000015183836060015184608001518560a001518660c001518760e00151886101000151896101200151604051808a8152602001891515151581526020018881526020018773ffffffffffffffffffffffffffffffffffffffff1673ffffffffffffffffffffffffffffffffffffffff1681526020018673ffffffffffffffffffffffffffffffffffffffff1673ffffffffffffffffffffffffffffffffffffffff16815260200180602001858152602001806020018473ffffffffffffffffffffffffffffffffffffffff1673ffffffffffffffffffffffffffffffffffffffff168152602001838103835287818151815260200191508051906020019080838360005b83811015611cb0578082015181840152602081019050611c95565b50505050905090810190601f168015611cdd5780820380516001836020036101000a031916815260200191505b50838103825285818151815260200191508051906020019080838360005b83811015611d16578082015181840152602081019050611cfb565b50505050905090810190601f168015611d435780820380516001836020036101000a031916815260200191505b509b50505050505050505050505060405180910390a150505050565b6000809054906101000a900473ffffffffffffffffffffffffffffffffffffffff1673ffffffffffffffffffffffffffffffffffffffff163373ffffffffffffffffffffffffffffffffffffffff1614611e21576040517f08c379a000000000000000000000000000000000000000000000000000000000815260040180806020018281038252600c8152602001807f4e6f7420616e2061646d696e000000000000000000000000000000000000000081525060200191505060405180910390fd5b600073ffffffffffffffffffffffffffffffffffffffff168273ffffffffffffffffffffffffffffffffffffffff161415611ec4576040517f08c379a000000000000000000000000000000000000000000000000000000000815260040180806020018281038252600f8152602001807f4e6f20686f73702061646472657373000000000000000000000000000000000081525060200191505060405180910390fd5b6003600860008473ffffffffffffffffffffffffffffffffffffffff1673ffffffffffffffffffffffffffffffffffffffff168152602001908152602001600020600101541415611f7d576040517f08c379a00000000000000000000000000000000000000000000000000000000081526004018080602001828103825260178152602001807f486f73706974616c20416c72656164792065786973747300000000000000000081525060200191505060405180910390fd5b6004600081548092919060010191905055506040518060a001604052806004548152602001600381526020016040518060400160405280600881526020017f486f73706974616c00000000000000000000000000000000000000000000000081525081526020018373ffffffffffffffffffffffffffffffffffffffff16815260200182815250600860008473ffffffffffffffffffffffffffffffffffffffff1673ffffffffffffffffffffffffffffffffffffffff16815260200190815260200160002060008201518160000155602082015181600101556040820151816002019080519060200190612073929190613790565b5060608201518160030160006101000a81548173ffffffffffffffffffffffffffffffffffffffff021916908373ffffffffffffffffffffffffffffffffffffffff16021790555060808201518160040190805190602001906120d7929190613790565b509050506040518060a001604052806004548152602001600381526020016040518060400160405280600881526020017f486f73706974616c00000000000000000000000000000000000000000000000081525081526020018373ffffffffffffffffffffffffffffffffffffffff16815260200182815250600a6000600454815260200190815260200160002060008201518160000155602082015181600101556040820151816002019080519060200190612195929190613790565b5060608201518160030160006101000a81548173ffffffffffffffffffffffffffffffffffffffff021916908373ffffffffffffffffffffffffffffffffffffffff16021790555060808201518160040190805190602001906121f9929190613790565b509050505050565b6009602052816000526040600020818154811061221a57fe5b90600052602060002001600091509150505481565b600160009054906101000a900473ffffffffffffffffffffffffffffffffffffffff1681565b6060600960008373ffffffffffffffffffffffffffffffffffffffff1673ffffffffffffffffffffffffffffffffffffffff1681526020019081526020016000208054806020026020016040519081016040528092919081815260200182805480156122e057602002820191906000526020600020905b8154815260200190600101908083116122cc575b50505050509050919050565b60608390506002600860003373ffffffffffffffffffffffffffffffffffffffff1673ffffffffffffffffffffffffffffffffffffffff16815260200190815260200160002060010154146123a9576040517f08c379a00000000000000000000000000000000000000000000000000000000081526004018080602001828103825260118152602001807f4e6f74206120626c6f6f642062616e6b2e00000000000000000000000000000081525060200191505060405180910390fd5b60008151141561249157600860008673ffffffffffffffffffffffffffffffffffffffff1673ffffffffffffffffffffffffffffffffffffffff1681526020019081526020016000206004018054600181600116156101000203166002900480601f0160208091040260200160405190810160405280929190818152602001828054600181600116156101000203166002900480156124895780601f1061245e57610100808354040283529160200191612489565b820191906000526020600020905b81548152906001019060200180831161246c57829003601f168201915b505050505090505b6000815111612508576040517f08c379a00000000000000000000000000000000000000000000000000000000081526004018080602001828103825260118152602001807f506c6561736520696e707574206e616d6500000000000000000000000000000081525060200191505060405180910390fd5b600083511161257f576040517f08c379a00000000000000000000000000000000000000000000000000000000081526004018080602001828103825260148152602001807f6572726f7220696e20626c6f6f642067726f757000000000000000000000000081525060200191505060405180910390fd5b600086116125f5576040517f08c379a000000000000000000000000000000000000000000000000000000000815260040180806020018281038252600f8152602001807f6572726f7220696e20645f64617465000000000000000000000000000000000081525060200191505060405180910390fd5b85821161266a576040517f08c379a00000000000000000000000000000000000000000000000000000000081526004018080602001828103825260118152602001807f6572726f7220696e206578705f6461746500000000000000000000000000000081525060200191505060405180910390fd5b600073ffffffffffffffffffffffffffffffffffffffff168573ffffffffffffffffffffffffffffffffffffffff16141561270d576040517f08c379a000000000000000000000000000000000000000000000000000000000815260040180806020018281038252600e8152602001807f6572726f7220696e20646f6e6f7200000000000000000000000000000000000081525060200191505060405180910390fd5b6003600081548092919060010191905055506000600860008773ffffffffffffffffffffffffffffffffffffffff1673ffffffffffffffffffffffffffffffffffffffff1681526020019081526020016000206000015414156129eb576004600081548092919060010191905055506040518060a001604052806004548152602001600181526020016040518060400160405280600581526020017f446f6e6f7200000000000000000000000000000000000000000000000000000081525081526020018673ffffffffffffffffffffffffffffffffffffffff16815260200182815250600860008773ffffffffffffffffffffffffffffffffffffffff1673ffffffffffffffffffffffffffffffffffffffff16815260200190815260200160002060008201518160000155602082015181600101556040820151816002019080519060200190612860929190613790565b5060608201518160030160006101000a81548173ffffffffffffffffffffffffffffffffffffffff021916908373ffffffffffffffffffffffffffffffffffffffff16021790555060808201518160040190805190602001906128c4929190613790565b509050506040518060a001604052806004548152602001600181526020016040518060400160405280600581526020017f446f6e6f7200000000000000000000000000000000000000000000000000000081525081526020018673ffffffffffffffffffffffffffffffffffffffff16815260200182815250600a6000600454815260200190815260200160002060008201518160000155602082015181600101556040820151816002019080519060200190612982929190613790565b5060608201518160030160006101000a81548173ffffffffffffffffffffffffffffffffffffffff021916908373ffffffffffffffffffffffffffffffffffffffff16021790555060808201518160040190805190602001906129e6929190613790565b509050505b6060600860003373ffffffffffffffffffffffffffffffffffffffff1673ffffffffffffffffffffffffffffffffffffffff1681526020019081526020016000206004018054600181600116156101000203166002900480601f016020809104026020016040519081016040528092919081815260200182805460018160011615610100020316600290048015612ac35780601f10612a9857610100808354040283529160200191612ac3565b820191906000526020600020905b815481529060010190602001808311612aa657829003601f168201915b50505050509050612ad26136f7565b60405180610140016040528060035481526020016000151581526020016000151581526020018981526020018873ffffffffffffffffffffffffffffffffffffffff1681526020013373ffffffffffffffffffffffffffffffffffffffff1681526020018681526020018581526020018381526020013373ffffffffffffffffffffffffffffffffffffffff168152509050806005600060035481526020019081526020016000206000820151816000015560208201518160010160006101000a81548160ff02191690831515021790555060408201518160010160016101000a81548160ff0219169083151502179055506060820151816002015560808201518160030160006101000a81548173ffffffffffffffffffffffffffffffffffffffff021916908373ffffffffffffffffffffffffffffffffffffffff16021790555060a08201518160040160006101000a81548173ffffffffffffffffffffffffffffffffffffffff021916908373ffffffffffffffffffffffffffffffffffffffff16021790555060c0820151816005019080519060200190612c78929190613790565b5060e08201518160060155610100820151816007019080519060200190612ca0929190613790565b506101208201518160080160006101000a81548173ffffffffffffffffffffffffffffffffffffffff021916908373ffffffffffffffffffffffffffffffffffffffff160217905550905050600660008873ffffffffffffffffffffffffffffffffffffffff1673ffffffffffffffffffffffffffffffffffffffff168152602001908152602001600020816000015190806001815401808255809150509060018203906000526020600020016000909192909190915055507f2757bd01f4b2db91f6fddf384748b42cc05f6ba58956005ac500628e4f1b774b60035460008a8a338a8a8933604051808a8152602001891515151581526020018881526020018773ffffffffffffffffffffffffffffffffffffffff1673ffffffffffffffffffffffffffffffffffffffff1681526020018673ffffffffffffffffffffffffffffffffffffffff1673ffffffffffffffffffffffffffffffffffffffff16815260200180602001858152602001806020018473ffffffffffffffffffffffffffffffffffffffff1673ffffffffffffffffffffffffffffffffffffffff168152602001838103835287818151815260200191508051906020019080838360005b83811015612e7c578082015181840152602081019050612e61565b50505050905090810190601f168015612ea95780820380516001836020036101000a031916815260200191505b50838103825285818151815260200191508051906020019080838360005b83811015612ee2578082015181840152602081019050612ec7565b50505050905090810190601f168015612f0f5780820380516001836020036101000a031916815260200191505b509b50505050505050505050505060405180910390a15050505050505050565b60076020528160005260406000208181548110612f4857fe5b90600052602060002001600091509150505481565b60066020528160005260406000208181548110612f7657fe5b90600052602060002001600091509150505481565b6060600760008373ffffffffffffffffffffffffffffffffffffffff1673ffffffffffffffffffffffffffffffffffffffff16815260200190815260200160002080548060200260200160405190810160405280929190818152602001828054801561301657602002820191906000526020600020905b815481526020019060010190808311613002575b50505050509050919050565b6060600660008373ffffffffffffffffffffffffffffffffffffffff1673ffffffffffffffffffffffffffffffffffffffff1681526020019081526020016000208054806020026020016040519081016040528092919081815260200182805480156130ad57602002820191906000526020600020905b815481526020019060010190808311613099575b50505050509050919050565b6000809054906101000a900473ffffffffffffffffffffffffffffffffffffffff1673ffffffffffffffffffffffffffffffffffffffff163373ffffffffffffffffffffffffffffffffffffffff161461317b576040517f08c379a000000000000000000000000000000000000000000000000000000000815260040180806020018281038252600c8152602001807f4e6f7420616e2061646d696e000000000000000000000000000000000000000081525060200191505060405180910390fd5b600073ffffffffffffffffffffffffffffffffffffffff168273ffffffffffffffffffffffffffffffffffffffff16141561321e576040517f08c379a000000000000000000000000000000000000000000000000000000000815260040180806020018281038252600f8152602001807f4e6f2062616e6b2061646472657373000000000000000000000000000000000081525060200191505060405180910390fd5b6002600860008473ffffffffffffffffffffffffffffffffffffffff1673ffffffffffffffffffffffffffffffffffffffff1681526020019081526020016000206001015414156132d7576040517f08c379a00000000000000000000000000000000000000000000000000000000081526004018080602001828103825260138152602001807f42616e6b20616c7265616479206578697374730000000000000000000000000081525060200191505060405180910390fd5b6004600081548092919060010191905055506040518060a001604052806004548152602001600281526020016040518060400160405280600481526020017f42616e6b0000000000000000000000000000000000000000000000000000000081525081526020018373ffffffffffffffffffffffffffffffffffffffff16815260200182815250600860008473ffffffffffffffffffffffffffffffffffffffff1673ffffffffffffffffffffffffffffffffffffffff168152602001908152602001600020600082015181600001556020820151816001015560408201518160020190805190602001906133cd929190613790565b5060608201518160030160006101000a81548173ffffffffffffffffffffffffffffffffffffffff021916908373ffffffffffffffffffffffffffffffffffffffff1602179055506080820151816004019080519060200190613431929190613790565b509050506040518060a001604052806004548152602001600281526020016040518060400160405280600481526020017f42616e6b0000000000000000000000000000000000000000000000000000000081525081526020018373ffffffffffffffffffffffffffffffffffffffff16815260200182815250600a60006004548152602001908152602001600020600082015181600001556020820151816001015560408201518160020190805190602001906134ef929190613790565b5060608201518160030160006101000a81548173ffffffffffffffffffffffffffffffffffffffff021916908373ffffffffffffffffffffffffffffffffffffffff1602179055506080820151816004019080519060200190613553929190613790565b509050505050565b6001600860003373ffffffffffffffffffffffffffffffffffffffff1673ffffffffffffffffffffffffffffffffffffffff16815260200190815260200160002060010154146135f6576040517f08c379a00000000000000000000000000000000000000000000000000000000081526004018080602001828103825260238152602001806138626023913960400191505060405180910390fd5b6000600960003373ffffffffffffffffffffffffffffffffffffffff1673ffffffffffffffffffffffffffffffffffffffff168152602001908152602001600020816136429190613810565b50565b60035481565b6000809054906101000a900473ffffffffffffffffffffffffffffffffffffffff1681565b828054600181600116156101000203166002900490600052602060002090601f016020900481019282601f106136a957805485556136e6565b828001600101855582156136e657600052602060002091601f016020900482015b828111156136e55782548255916001019190600101906136ca565b5b5090506136f3919061383c565b5090565b6040518061014001604052806000815260200160001515815260200160001515815260200160008152602001600073ffffffffffffffffffffffffffffffffffffffff168152602001600073ffffffffffffffffffffffffffffffffffffffff168152602001606081526020016000815260200160608152602001600073ffffffffffffffffffffffffffffffffffffffff1681525090565b828054600181600116156101000203166002900490600052602060002090601f016020900481019282601f106137d157805160ff19168380011785556137ff565b828001600101855582156137ff579182015b828111156137fe5782518255916020019190600101906137e3565b5b50905061380c919061383c565b5090565b81548183558181111561383757818360005260206000209182019101613836919061383c565b5b505050565b61385e91905b8082111561385a576000816000905550600101613842565b5090565b9056fe556e617574686f72697a6564207472616e73616374696f6e206f726967696e61746f72a265627a7a72315820731f9c922c09810361fd24f29d96cba2536f0e37b15db7caa66322c01b71c56364736f6c63430005100032",
  "source": "pragma solidity >=0.4.21 <0.6.0;\r\n\r\n// contract DateTime {\r\n//         function getYear(uint timestamp) public returns (uint16);\r\n//         function getMonth(uint timestamp) public returns (uint8);\r\n//         function getDay(uint timestamp) public returns (uint8);\r\n// }\r\n\r\ncontract Blood{\r\n    // uint public today;\r\n    // address public dateTimeAddr = 0x66eDEfff0A0c87bA4ca2b8E73BB05787eb35908E;\r\n    address payable public admin = address(0x993ea21A23fE094aF6D053000EB022dEcd83C513);\r\n    address payable public hospi = address(0x7340C15749cD4efbf70034D565d82b7d908860E2);\r\n    // DateTime dateTime = DateTime(dateTimeAddr);\r\n    string public name;\r\n    uint public bagCount = 0;\r\n    uint public userCount = 0;\r\n    mapping(uint => Bloodbag) public bloodbags; // This is the general list of bloodbags.\r\n    mapping(address => uint[]) public donors; // Bloodbags corresponding to donors stored here.\r\n    mapping(address => uint[]) public hospitals; // Bloodbags corresponding to hospitals stored here.\r\n    mapping(address => User) public usertype; // This mapping is to identify the type of user using the website, i.e\r\n                                              // (1 = donor, 2 = bank and 3 = hospital)\r\n    mapping(address => uint[]) public notification; // Stores pending notification for used bags of donors\r\n    mapping(uint => User) public users; // List of all users\r\n\r\n    function getDbags(address payable _donor) public view returns (uint256[] memory) {\r\n        return donors[_donor];\r\n    }\r\n\r\n    function getNotification(address payable _donor) public view returns (uint256[] memory) {\r\n        return notification[_donor];\r\n    }\r\n\r\n    function getHbags(address payable _hospital) public view returns (uint256[] memory) {\r\n        return hospitals[_hospital];\r\n    }\r\n\r\n    // ALL STRUCTS\r\n\r\n    struct User {\r\n        uint id;\r\n        uint user_type;\r\n        string user;\r\n        address payable user_address;\r\n        string name;\r\n    }\r\n\r\n    struct Bloodbag {\r\n        uint id;\r\n        bool used;\r\n        bool first;\r\n        uint donation_date;\r\n        address payable donor;\r\n        address payable bank;\r\n        string blood_group;\r\n        uint expiry;\r\n        string owner_name;\r\n        address payable owner;\r\n        // uint price;\r\n    }\r\n\r\n    // ALL STRUCTS END\r\n\r\n    event BagCreated(\r\n        uint id,\r\n        bool used,\r\n        uint donation_date,\r\n        address payable donor,\r\n        address payable bank,\r\n        string blood_group,\r\n        uint expiry,\r\n        string owner_name,\r\n        address payable owner\r\n        // uint price\r\n    );\r\n\r\n    event message(string message);\r\n    event arr(uint[] array);\r\n\r\n    event bagPurchased(\r\n        uint id,\r\n        bool used,\r\n        uint donation_date,\r\n        address payable donor,\r\n        address payable bank,\r\n        string blood_group,\r\n        uint expiry,\r\n        string owner_name,\r\n        address payable owner\r\n        // uint price\r\n    );\r\n\r\n    constructor() public{\r\n        name = \"Pranav Gor\";\r\n        userCount ++;\r\n        usertype[admin] = User(userCount, 14, \"Admin\", admin, \"Pranav\");\r\n        users[userCount] = User(userCount, 14, \"Admin\", admin, \"Pranav\");\r\n    }\r\n\r\n    function createBloodbag(uint _donation_date, address payable _donor, string memory _donor_name,\r\n     string memory _blood_group, uint _expiry) public {\r\n        // Require valid params\r\n        string memory d_name = _donor_name;\r\n        require(usertype[msg.sender].user_type == 2, \"Not a blood bank.\");\r\n        if(bytes(d_name).length == 0){\r\n            d_name = usertype[_donor].name;\r\n        }\r\n        require(bytes(d_name).length > 0, \"Please input name\");\r\n        require(bytes(_blood_group).length > 0, \"error in blood group\");\r\n        require(_donation_date > 0, \"error in d_date\");\r\n        require(_expiry > _donation_date, \"error in exp_date\");\r\n        require(_donor != address(0), \"error in donor\");\r\n        // Increment bag count\r\n        bagCount ++;\r\n        // Date related stuff\r\n        // Add donor and set type = 1 if not already exists.\r\n        if (usertype[_donor].id == 0){\r\n            userCount++;\r\n            usertype[_donor] = User(userCount, 1, \"Donor\", _donor, d_name);\r\n            users[userCount] = User(userCount, 1, \"Donor\",_donor, d_name);\r\n        }\r\n        // Create the Blood bag\r\n        string memory _owner_name = usertype[msg.sender].name;\r\n        Bloodbag memory temp_bloodbag = Bloodbag(bagCount, false, false, _donation_date, _donor, msg.sender, _blood_group, _expiry,\r\n        _owner_name, msg.sender);\r\n        bloodbags[bagCount] = temp_bloodbag;\r\n        // add bag to specific donor's list\r\n        donors[_donor].push(temp_bloodbag.id);\r\n        // Trigger an event\r\n        emit BagCreated(bagCount, false, _donation_date, _donor, msg.sender, _blood_group, _expiry,\r\n        _owner_name, msg.sender);\r\n    }\r\n\r\n    function createBank(address payable _bank, string memory _name) public {\r\n        require(msg.sender == admin,\"Not an admin\");\r\n        require(_bank != address(0),\"No bank address\");\r\n        require(usertype[_bank].user_type != 2,\"Bank already exists\");\r\n        userCount++;\r\n        usertype[_bank] = User(userCount, 2, \"Bank\",_bank, _name);\r\n        users[userCount] = User(userCount, 2, \"Bank\",_bank, _name);\r\n    }\r\n\r\n    function createHosp(address payable _hosp, string memory _name) public {\r\n        require(msg.sender == admin,\"Not an admin\");\r\n        require(_hosp != address(0),\"No hosp address\");\r\n        require(usertype[_hosp].user_type != 3,\"Hospital Already exists\");\r\n        userCount++;\r\n        usertype[_hosp] = User(userCount, 3, \"Hospital\",_hosp, _name);\r\n        users[userCount] = User(userCount, 3, \"Hospital\",_hosp, _name);\r\n    }\r\n\r\n    function h_placeOrder(uint bag_id) public payable {\r\n        // Fetch the owner\r\n        address payable _seller = bloodbags[bag_id].owner;\r\n        bool used = bloodbags[bag_id].used;\r\n        require(msg.value > 1, 'Wrong price paid');\r\n        require(usertype[msg.sender].user_type == 3, 'Unauthorized transaction originator');\r\n        address(_seller).transfer(msg.value);\r\n        //Transfer ownership\r\n        bloodbags[bag_id].owner = msg.sender;\r\n        bloodbags[bag_id].owner_name = usertype[msg.sender].name;\r\n        Bloodbag memory _bloodbag = bloodbags[bag_id];\r\n        hospitals[msg.sender].push(_bloodbag.id);\r\n        emit bagPurchased(_bloodbag.id, used, _bloodbag.donation_date, _bloodbag.donor, _bloodbag.bank,\r\n         _bloodbag.blood_group,_bloodbag.expiry,_bloodbag.owner_name,_bloodbag.owner);\r\n    }\r\n\r\n    function useBag(uint bag_id) public {\r\n        require(usertype[msg.sender].user_type == 3, 'Unauthorized transaction originator');\r\n        bloodbags[bag_id].used = true;\r\n        address donor = bloodbags[bag_id].donor;\r\n        notification[donor].push(bag_id);\r\n    }\r\n\r\n    function gotIt() public {\r\n        require(usertype[msg.sender].user_type == 1, 'Unauthorized transaction originator');\r\n        notification[msg.sender].length = 0;\r\n    }\r\n}\r\n",
  "sourcePath": "C:\\Users\\Rahil Jhaveri\\Desktop\\Ethereum_Blockchain_BloodSupplyChain\\src\\contracts\\Blood.sol",
  "compiler": {
    "name": "solc",
    "version": "0.5.16+commit.9c3226ce.Emscripten.clang"
  },
  "schemaVersion": "3.0.23",
  "updatedAt": "2020-05-07T11:15:58.573Z",
  "devdoc": {
    "methods": {}
  },
  "userdoc": {
    "methods": {}
  }
}