{
  "contractName": "Blood",
  "abi": [
    {
      "inputs": [],
      "payable": false,
      "stateMutability": "nonpayable",
      "type": "constructor"
    },
    {
      "anonymous": false,
      "inputs": [
        {
          "indexed": false,
          "internalType": "uint256",
          "name": "id",
          "type": "uint256"
        },
        {
          "indexed": false,
          "internalType": "uint256",
          "name": "donation_date",
          "type": "uint256"
        },
        {
          "indexed": false,
          "internalType": "address payable",
          "name": "donor",
          "type": "address"
        },
        {
          "indexed": false,
          "internalType": "address payable",
          "name": "bank",
          "type": "address"
        },
        {
          "indexed": false,
          "internalType": "string",
          "name": "blood_group",
          "type": "string"
        },
        {
          "indexed": false,
          "internalType": "uint256",
          "name": "expiry",
          "type": "uint256"
        },
        {
          "indexed": false,
          "internalType": "string",
          "name": "owner_name",
          "type": "string"
        },
        {
          "indexed": false,
          "internalType": "address payable",
          "name": "owner",
          "type": "address"
        }
      ],
      "name": "BagCreated",
      "type": "event"
    },
    {
      "anonymous": false,
      "inputs": [
        {
          "indexed": false,
          "internalType": "uint256[]",
          "name": "array",
          "type": "uint256[]"
        }
      ],
      "name": "arr",
      "type": "event"
    },
    {
      "anonymous": false,
      "inputs": [
        {
          "indexed": false,
          "internalType": "uint256",
          "name": "id",
          "type": "uint256"
        },
        {
          "indexed": false,
          "internalType": "uint256",
          "name": "donation_date",
          "type": "uint256"
        },
        {
          "indexed": false,
          "internalType": "address payable",
          "name": "donor",
          "type": "address"
        },
        {
          "indexed": false,
          "internalType": "address payable",
          "name": "bank",
          "type": "address"
        },
        {
          "indexed": false,
          "internalType": "string",
          "name": "blood_group",
          "type": "string"
        },
        {
          "indexed": false,
          "internalType": "uint256",
          "name": "expiry",
          "type": "uint256"
        },
        {
          "indexed": false,
          "internalType": "string",
          "name": "owner_name",
          "type": "string"
        },
        {
          "indexed": false,
          "internalType": "address payable",
          "name": "owner",
          "type": "address"
        }
      ],
      "name": "bagPurchased",
      "type": "event"
    },
    {
      "anonymous": false,
      "inputs": [
        {
          "indexed": false,
          "internalType": "string",
          "name": "message",
          "type": "string"
        }
      ],
      "name": "message",
      "type": "event"
    },
    {
      "constant": true,
      "inputs": [],
      "name": "admin",
      "outputs": [
        {
          "internalType": "address payable",
          "name": "",
          "type": "address"
        }
      ],
      "payable": false,
      "stateMutability": "view",
      "type": "function"
    },
    {
      "constant": true,
      "inputs": [],
      "name": "bagCount",
      "outputs": [
        {
          "internalType": "uint256",
          "name": "",
          "type": "uint256"
        }
      ],
      "payable": false,
      "stateMutability": "view",
      "type": "function"
    },
    {
      "constant": true,
      "inputs": [
        {
          "internalType": "uint256",
          "name": "",
          "type": "uint256"
        }
      ],
      "name": "bloodbags",
      "outputs": [
        {
          "internalType": "uint256",
          "name": "id",
          "type": "uint256"
        },
        {
          "internalType": "uint256",
          "name": "donation_date",
          "type": "uint256"
        },
        {
          "internalType": "address payable",
          "name": "donor",
          "type": "address"
        },
        {
          "internalType": "address payable",
          "name": "bank",
          "type": "address"
        },
        {
          "internalType": "string",
          "name": "blood_group",
          "type": "string"
        },
        {
          "internalType": "uint256",
          "name": "expiry",
          "type": "uint256"
        },
        {
          "internalType": "string",
          "name": "owner_name",
          "type": "string"
        },
        {
          "internalType": "address payable",
          "name": "owner",
          "type": "address"
        }
      ],
      "payable": false,
      "stateMutability": "view",
      "type": "function"
    },
    {
      "constant": true,
      "inputs": [
        {
          "internalType": "address",
          "name": "",
          "type": "address"
        },
        {
          "internalType": "uint256",
          "name": "",
          "type": "uint256"
        }
      ],
      "name": "donors",
      "outputs": [
        {
          "internalType": "uint256",
          "name": "",
          "type": "uint256"
        }
      ],
      "payable": false,
      "stateMutability": "view",
      "type": "function"
    },
    {
      "constant": true,
      "inputs": [],
      "name": "hospi",
      "outputs": [
        {
          "internalType": "address payable",
          "name": "",
          "type": "address"
        }
      ],
      "payable": false,
      "stateMutability": "view",
      "type": "function"
    },
    {
      "constant": true,
      "inputs": [
        {
          "internalType": "address",
          "name": "",
          "type": "address"
        },
        {
          "internalType": "uint256",
          "name": "",
          "type": "uint256"
        }
      ],
      "name": "hospitals",
      "outputs": [
        {
          "internalType": "uint256",
          "name": "",
          "type": "uint256"
        }
      ],
      "payable": false,
      "stateMutability": "view",
      "type": "function"
    },
    {
      "constant": true,
      "inputs": [],
      "name": "name",
      "outputs": [
        {
          "internalType": "string",
          "name": "",
          "type": "string"
        }
      ],
      "payable": false,
      "stateMutability": "view",
      "type": "function"
    },
    {
      "constant": true,
      "inputs": [],
      "name": "userCount",
      "outputs": [
        {
          "internalType": "uint256",
          "name": "",
          "type": "uint256"
        }
      ],
      "payable": false,
      "stateMutability": "view",
      "type": "function"
    },
    {
      "constant": true,
      "inputs": [
        {
          "internalType": "uint256",
          "name": "",
          "type": "uint256"
        }
      ],
      "name": "users",
      "outputs": [
        {
          "internalType": "uint256",
          "name": "id",
          "type": "uint256"
        },
        {
          "internalType": "uint256",
          "name": "user_type",
          "type": "uint256"
        },
        {
          "internalType": "string",
          "name": "user",
          "type": "string"
        },
        {
          "internalType": "address payable",
          "name": "user_address",
          "type": "address"
        },
        {
          "internalType": "string",
          "name": "name",
          "type": "string"
        }
      ],
      "payable": false,
      "stateMutability": "view",
      "type": "function"
    },
    {
      "constant": true,
      "inputs": [
        {
          "internalType": "address",
          "name": "",
          "type": "address"
        }
      ],
      "name": "usertype",
      "outputs": [
        {
          "internalType": "uint256",
          "name": "id",
          "type": "uint256"
        },
        {
          "internalType": "uint256",
          "name": "user_type",
          "type": "uint256"
        },
        {
          "internalType": "string",
          "name": "user",
          "type": "string"
        },
        {
          "internalType": "address payable",
          "name": "user_address",
          "type": "address"
        },
        {
          "internalType": "string",
          "name": "name",
          "type": "string"
        }
      ],
      "payable": false,
      "stateMutability": "view",
      "type": "function"
    },
    {
      "constant": true,
      "inputs": [
        {
          "internalType": "address payable",
          "name": "_donor",
          "type": "address"
        }
      ],
      "name": "getDbags",
      "outputs": [
        {
          "internalType": "uint256[]",
          "name": "",
          "type": "uint256[]"
        }
      ],
      "payable": false,
      "stateMutability": "view",
      "type": "function"
    },
    {
      "constant": true,
      "inputs": [
        {
          "internalType": "address payable",
          "name": "_hospital",
          "type": "address"
        }
      ],
      "name": "getHbags",
      "outputs": [
        {
          "internalType": "uint256[]",
          "name": "",
          "type": "uint256[]"
        }
      ],
      "payable": false,
      "stateMutability": "view",
      "type": "function"
    },
    {
      "constant": false,
      "inputs": [
        {
          "internalType": "uint256",
          "name": "_donation_date",
          "type": "uint256"
        },
        {
          "internalType": "address payable",
          "name": "_donor",
          "type": "address"
        },
        {
          "internalType": "string",
          "name": "_donor_name",
          "type": "string"
        },
        {
          "internalType": "string",
          "name": "_blood_group",
          "type": "string"
        },
        {
          "internalType": "uint256",
          "name": "_expiry",
          "type": "uint256"
        }
      ],
      "name": "createBloodbag",
      "outputs": [],
      "payable": false,
      "stateMutability": "nonpayable",
      "type": "function"
    },
    {
      "constant": false,
      "inputs": [
        {
          "internalType": "address payable",
          "name": "_bank",
          "type": "address"
        },
        {
          "internalType": "string",
          "name": "_name",
          "type": "string"
        }
      ],
      "name": "createBank",
      "outputs": [],
      "payable": false,
      "stateMutability": "nonpayable",
      "type": "function"
    },
    {
      "constant": false,
      "inputs": [
        {
          "internalType": "address payable",
          "name": "_hosp",
          "type": "address"
        },
        {
          "internalType": "string",
          "name": "_name",
          "type": "string"
        }
      ],
      "name": "createHosp",
      "outputs": [],
      "payable": false,
      "stateMutability": "nonpayable",
      "type": "function"
    },
    {
      "constant": true,
      "inputs": [
        {
          "internalType": "string",
          "name": "a",
          "type": "string"
        },
        {
          "internalType": "string",
          "name": "b",
          "type": "string"
        }
      ],
      "name": "compareStrings",
      "outputs": [
        {
          "internalType": "bool",
          "name": "",
          "type": "bool"
        }
      ],
      "payable": false,
      "stateMutability": "pure",
      "type": "function"
    },
    {
      "constant": false,
      "inputs": [
        {
          "internalType": "uint256",
          "name": "bag_id",
          "type": "uint256"
        }
      ],
      "name": "h_placeOrder",
      "outputs": [],
      "payable": true,
      "stateMutability": "payable",
      "type": "function"
    }
  ],
  "bytecode": "0x608060405273cce6f401fb61247aa833a451cad741b4a49ca9546000806101000a81548173ffffffffffffffffffffffffffffffffffffffff021916908373ffffffffffffffffffffffffffffffffffffffff1602179055507388223b9922ef576a9ff562e2c9fc890bfc6b92bd600160006101000a81548173ffffffffffffffffffffffffffffffffffffffff021916908373ffffffffffffffffffffffffffffffffffffffff16021790555060006003556000600455348015620000c457600080fd5b506040518060400160405280600a81526020017f5072616e617620476f720000000000000000000000000000000000000000000081525060029080519060200190620001129291906200046e565b506004600081548092919060010191905055506040518060a001604052806004548152602001600e81526020016040518060400160405280600581526020017f41646d696e00000000000000000000000000000000000000000000000000000081525081526020016000809054906101000a900473ffffffffffffffffffffffffffffffffffffffff1673ffffffffffffffffffffffffffffffffffffffff1681526020016040518060400160405280600681526020017f5072616e61760000000000000000000000000000000000000000000000000000815250815250600860008060009054906101000a900473ffffffffffffffffffffffffffffffffffffffff1673ffffffffffffffffffffffffffffffffffffffff1673ffffffffffffffffffffffffffffffffffffffff1681526020019081526020016000206000820151816000015560208201518160010155604082015181600201908051906020019062000282929190620004f5565b5060608201518160030160006101000a81548173ffffffffffffffffffffffffffffffffffffffff021916908373ffffffffffffffffffffffffffffffffffffffff1602179055506080820151816004019080519060200190620002e8929190620004f5565b509050506040518060a001604052806004548152602001600e81526020016040518060400160405280600581526020017f41646d696e00000000000000000000000000000000000000000000000000000081525081526020016000809054906101000a900473ffffffffffffffffffffffffffffffffffffffff1673ffffffffffffffffffffffffffffffffffffffff1681526020016040518060400160405280600681526020017f5072616e6176000000000000000000000000000000000000000000000000000081525081525060096000600454815260200190815260200160002060008201518160000155602082015181600101556040820151816002019080519060200190620003fe929190620004f5565b5060608201518160030160006101000a81548173ffffffffffffffffffffffffffffffffffffffff021916908373ffffffffffffffffffffffffffffffffffffffff160217905550608082015181600401908051906020019062000464929190620004f5565b50905050620005a4565b828054600181600116156101000203166002900490600052602060002090601f016020900481019282601f10620004b157805160ff1916838001178555620004e2565b82800160010185558215620004e2579182015b82811115620004e1578251825591602001919060010190620004c4565b5b509050620004f191906200057c565b5090565b828054600181600116156101000203166002900490600052602060002090601f016020900481019282601f106200053857805160ff191683800117855562000569565b8280016001018555821562000569579182015b82811115620005685782518255916020019190600101906200054b565b5b5090506200057891906200057c565b5090565b620005a191905b808211156200059d57600081600090555060010162000583565b5090565b90565b612ffa80620005b46000396000f3fe6080604052600436106100fe5760003560e01c80638b0c583e11610095578063ab2d4ebd11610064578063ab2d4ebd1461036f578063b8558cbe146103ac578063bed34bba146103d5578063e8c880b414610412578063f851a4401461043d576100fe565b80638b0c583e1461028f5780639715afe1146102b85780639b56f5f0146102f5578063aabd2eb214610332576100fe565b80634309e4c6116100d15780634309e4c6146101db5780634ea0738f1461021f57806366df3dc01461023b57806386f1daa714610264576100fe565b806306fdde031461010357806307973ccf1461012e5780633164582e14610159578063365b98b21461019a575b600080fd5b34801561010f57600080fd5b50610118610468565b6040516101259190612aeb565b60405180910390f35b34801561013a57600080fd5b50610143610506565b6040516101509190612c6d565b60405180910390f35b34801561016557600080fd5b50610180600480360361017b9190810190612423565b61050c565b604051610191959493929190612da0565b60405180910390f35b3480156101a657600080fd5b506101c160048036036101bc9190810190612571565b610692565b6040516101d2959493929190612da0565b60405180910390f35b3480156101e757600080fd5b5061020260048036036101fd9190810190612571565b610818565b604051610216989796959493929190612d14565b60405180910390f35b61023960048036036102349190810190612571565b6109f0565b005b34801561024757600080fd5b50610262600480360361025d9190810190612475565b610f6b565b005b34801561027057600080fd5b506102796112ee565b6040516102869190612a93565b60405180910390f35b34801561029b57600080fd5b506102b660048036036102b1919081019061259a565b611314565b005b3480156102c457600080fd5b506102df60048036036102da91908101906124c9565b611c4c565b6040516102ec9190612c6d565b60405180910390f35b34801561030157600080fd5b5061031c600480360361031791908101906124c9565b611c7a565b6040516103299190612c6d565b60405180910390f35b34801561033e57600080fd5b506103596004803603610354919081019061244c565b611ca8565b6040516103669190612aae565b60405180910390f35b34801561037b57600080fd5b506103966004803603610391919081019061244c565b611d3f565b6040516103a39190612aae565b60405180910390f35b3480156103b857600080fd5b506103d360048036036103ce9190810190612475565b611dd6565b005b3480156103e157600080fd5b506103fc60048036036103f79190810190612505565b612159565b6040516104099190612ad0565b60405180910390f35b34801561041e57600080fd5b506104276121b2565b6040516104349190612c6d565b60405180910390f35b34801561044957600080fd5b506104526121b8565b60405161045f9190612a93565b60405180910390f35b60028054600181600116156101000203166002900480601f0160208091040260200160405190810160405280929190818152602001828054600181600116156101000203166002900480156104fe5780601f106104d3576101008083540402835291602001916104fe565b820191906000526020600020905b8154815290600101906020018083116104e157829003601f168201915b505050505081565b60045481565b6008602052806000526040600020600091509050806000015490806001015490806002018054600181600116156101000203166002900480601f0160208091040260200160405190810160405280929190818152602001828054600181600116156101000203166002900480156105c45780601f10610599576101008083540402835291602001916105c4565b820191906000526020600020905b8154815290600101906020018083116105a757829003601f168201915b5050505050908060030160009054906101000a900473ffffffffffffffffffffffffffffffffffffffff1690806004018054600181600116156101000203166002900480601f0160208091040260200160405190810160405280929190818152602001828054600181600116156101000203166002900480156106885780601f1061065d57610100808354040283529160200191610688565b820191906000526020600020905b81548152906001019060200180831161066b57829003601f168201915b5050505050905085565b6009602052806000526040600020600091509050806000015490806001015490806002018054600181600116156101000203166002900480601f01602080910402602001604051908101604052809291908181526020018280546001816001161561010002031660029004801561074a5780601f1061071f5761010080835404028352916020019161074a565b820191906000526020600020905b81548152906001019060200180831161072d57829003601f168201915b5050505050908060030160009054906101000a900473ffffffffffffffffffffffffffffffffffffffff1690806004018054600181600116156101000203166002900480601f01602080910402602001604051908101604052809291908181526020018280546001816001161561010002031660029004801561080e5780601f106107e35761010080835404028352916020019161080e565b820191906000526020600020905b8154815290600101906020018083116107f157829003601f168201915b5050505050905085565b60056020528060005260406000206000915090508060000154908060010154908060020160009054906101000a900473ffffffffffffffffffffffffffffffffffffffff16908060030160009054906101000a900473ffffffffffffffffffffffffffffffffffffffff1690806004018054600181600116156101000203166002900480601f01602080910402602001604051908101604052809291908181526020018280546001816001161561010002031660029004801561091c5780601f106108f15761010080835404028352916020019161091c565b820191906000526020600020905b8154815290600101906020018083116108ff57829003601f168201915b505050505090806005015490806006018054600181600116156101000203166002900480601f0160208091040260200160405190810160405280929190818152602001828054600181600116156101000203166002900480156109c05780601f10610995576101008083540402835291602001916109c0565b820191906000526020600020905b8154815290600101906020018083116109a357829003601f168201915b5050505050908060070160009054906101000a900473ffffffffffffffffffffffffffffffffffffffff16905088565b60006005600083815260200190815260200160002060070160009054906101000a900473ffffffffffffffffffffffffffffffffffffffff16905060013411610a6e576040517f08c379a0000000000000000000000000000000000000000000000000000000008152600401610a6590612c0d565b60405180910390fd5b6003600860003373ffffffffffffffffffffffffffffffffffffffff1673ffffffffffffffffffffffffffffffffffffffff1681526020019081526020016000206001015414610af3576040517f08c379a0000000000000000000000000000000000000000000000000000000008152600401610aea90612b0d565b60405180910390fd5b8073ffffffffffffffffffffffffffffffffffffffff166108fc349081150290604051600060405180830381858888f19350505050158015610b39573d6000803e3d6000fd5b50336005600084815260200190815260200160002060070160006101000a81548173ffffffffffffffffffffffffffffffffffffffff021916908373ffffffffffffffffffffffffffffffffffffffff160217905550600860003373ffffffffffffffffffffffffffffffffffffffff1673ffffffffffffffffffffffffffffffffffffffff168152602001908152602001600020600401600560008481526020019081526020016000206006019080546001816001161561010002031660029004610c069291906121dd565b50610c0f612264565b600560008481526020019081526020016000206040518061010001604052908160008201548152602001600182015481526020016002820160009054906101000a900473ffffffffffffffffffffffffffffffffffffffff1673ffffffffffffffffffffffffffffffffffffffff1673ffffffffffffffffffffffffffffffffffffffff1681526020016003820160009054906101000a900473ffffffffffffffffffffffffffffffffffffffff1673ffffffffffffffffffffffffffffffffffffffff1673ffffffffffffffffffffffffffffffffffffffff168152602001600482018054600181600116156101000203166002900480601f016020809104026020016040519081016040528092919081815260200182805460018160011615610100020316600290048015610d875780601f10610d5c57610100808354040283529160200191610d87565b820191906000526020600020905b815481529060010190602001808311610d6a57829003601f168201915b5050505050815260200160058201548152602001600682018054600181600116156101000203166002900480601f016020809104026020016040519081016040528092919081815260200182805460018160011615610100020316600290048015610e335780601f10610e0857610100808354040283529160200191610e33565b820191906000526020600020905b815481529060010190602001808311610e1657829003601f168201915b505050505081526020016007820160009054906101000a900473ffffffffffffffffffffffffffffffffffffffff1673ffffffffffffffffffffffffffffffffffffffff1673ffffffffffffffffffffffffffffffffffffffff16815250509050600760003373ffffffffffffffffffffffffffffffffffffffff1673ffffffffffffffffffffffffffffffffffffffff168152602001908152602001600020816000015190806001815401808255809150509060018203906000526020600020016000909192909190915055507fdde2334a525ab032bcf6ca19b16fcccac5947fc50b8000b914ba0a047bcfdf8a816000015182602001518360400151846060015185608001518660a001518760c001518860e00151604051610f5e989796959493929190612d14565b60405180910390a1505050565b6000809054906101000a900473ffffffffffffffffffffffffffffffffffffffff1673ffffffffffffffffffffffffffffffffffffffff163373ffffffffffffffffffffffffffffffffffffffff1614610ffa576040517f08c379a0000000000000000000000000000000000000000000000000000000008152600401610ff190612b8d565b60405180910390fd5b600073ffffffffffffffffffffffffffffffffffffffff168273ffffffffffffffffffffffffffffffffffffffff16141561106a576040517f08c379a000000000000000000000000000000000000000000000000000000000815260040161106190612bed565b60405180910390fd5b6004600081548092919060010191905055506040518060a001604052806004548152602001600381526020016040518060400160405280600881526020017f486f73706974616c00000000000000000000000000000000000000000000000081525081526020018373ffffffffffffffffffffffffffffffffffffffff16815260200182815250600860008473ffffffffffffffffffffffffffffffffffffffff1673ffffffffffffffffffffffffffffffffffffffff168152602001908152602001600020600082015181600001556020820151816001015560408201518160020190805190602001906111609291906122eb565b5060608201518160030160006101000a81548173ffffffffffffffffffffffffffffffffffffffff021916908373ffffffffffffffffffffffffffffffffffffffff16021790555060808201518160040190805190602001906111c49291906122eb565b509050506040518060a001604052806004548152602001600381526020016040518060400160405280600881526020017f486f73706974616c00000000000000000000000000000000000000000000000081525081526020018373ffffffffffffffffffffffffffffffffffffffff16815260200182815250600960006004548152602001908152602001600020600082015181600001556020820151816001015560408201518160020190805190602001906112829291906122eb565b5060608201518160030160006101000a81548173ffffffffffffffffffffffffffffffffffffffff021916908373ffffffffffffffffffffffffffffffffffffffff16021790555060808201518160040190805190602001906112e69291906122eb565b509050505050565b600160009054906101000a900473ffffffffffffffffffffffffffffffffffffffff1681565b60608390506002600860003373ffffffffffffffffffffffffffffffffffffffff1673ffffffffffffffffffffffffffffffffffffffff168152602001908152602001600020600101541461139e576040517f08c379a000000000000000000000000000000000000000000000000000000000815260040161139590612b4d565b60405180910390fd5b60008151141561148657600860008673ffffffffffffffffffffffffffffffffffffffff1673ffffffffffffffffffffffffffffffffffffffff1681526020019081526020016000206004018054600181600116156101000203166002900480601f01602080910402602001604051908101604052809291908181526020018280546001816001161561010002031660029004801561147e5780601f106114535761010080835404028352916020019161147e565b820191906000526020600020905b81548152906001019060200180831161146157829003601f168201915b505050505090505b60008151116114ca576040517f08c379a00000000000000000000000000000000000000000000000000000000081526004016114c190612bad565b60405180910390fd5b600083511161150e576040517f08c379a000000000000000000000000000000000000000000000000000000000815260040161150590612b6d565b60405180910390fd5b60008611611551576040517f08c379a000000000000000000000000000000000000000000000000000000000815260040161154890612b2d565b60405180910390fd5b858211611593576040517f08c379a000000000000000000000000000000000000000000000000000000000815260040161158a90612c2d565b60405180910390fd5b600073ffffffffffffffffffffffffffffffffffffffff168573ffffffffffffffffffffffffffffffffffffffff161415611603576040517f08c379a00000000000000000000000000000000000000000000000000000000081526004016115fa90612c4d565b60405180910390fd5b6003600081548092919060010191905055506000600860008773ffffffffffffffffffffffffffffffffffffffff1673ffffffffffffffffffffffffffffffffffffffff1681526020019081526020016000206000015414156118e1576004600081548092919060010191905055506040518060a001604052806004548152602001600181526020016040518060400160405280600581526020017f446f6e6f7200000000000000000000000000000000000000000000000000000081525081526020018673ffffffffffffffffffffffffffffffffffffffff16815260200182815250600860008773ffffffffffffffffffffffffffffffffffffffff1673ffffffffffffffffffffffffffffffffffffffff168152602001908152602001600020600082015181600001556020820151816001015560408201518160020190805190602001906117569291906122eb565b5060608201518160030160006101000a81548173ffffffffffffffffffffffffffffffffffffffff021916908373ffffffffffffffffffffffffffffffffffffffff16021790555060808201518160040190805190602001906117ba9291906122eb565b509050506040518060a001604052806004548152602001600181526020016040518060400160405280600581526020017f446f6e6f7200000000000000000000000000000000000000000000000000000081525081526020018673ffffffffffffffffffffffffffffffffffffffff16815260200182815250600960006004548152602001908152602001600020600082015181600001556020820151816001015560408201518160020190805190602001906118789291906122eb565b5060608201518160030160006101000a81548173ffffffffffffffffffffffffffffffffffffffff021916908373ffffffffffffffffffffffffffffffffffffffff16021790555060808201518160040190805190602001906118dc9291906122eb565b509050505b6060600860003373ffffffffffffffffffffffffffffffffffffffff1673ffffffffffffffffffffffffffffffffffffffff1681526020019081526020016000206004018054600181600116156101000203166002900480601f0160208091040260200160405190810160405280929190818152602001828054600181600116156101000203166002900480156119b95780601f1061198e576101008083540402835291602001916119b9565b820191906000526020600020905b81548152906001019060200180831161199c57829003601f168201915b505050505090506119c8612264565b60405180610100016040528060035481526020018981526020018873ffffffffffffffffffffffffffffffffffffffff1681526020013373ffffffffffffffffffffffffffffffffffffffff1681526020018681526020018581526020018381526020013373ffffffffffffffffffffffffffffffffffffffff16815250905080600560006003548152602001908152602001600020600082015181600001556020820151816001015560408201518160020160006101000a81548173ffffffffffffffffffffffffffffffffffffffff021916908373ffffffffffffffffffffffffffffffffffffffff16021790555060608201518160030160006101000a81548173ffffffffffffffffffffffffffffffffffffffff021916908373ffffffffffffffffffffffffffffffffffffffff1602179055506080820151816004019080519060200190611b1c9291906122eb565b5060a0820151816005015560c0820151816006019080519060200190611b439291906122eb565b5060e08201518160070160006101000a81548173ffffffffffffffffffffffffffffffffffffffff021916908373ffffffffffffffffffffffffffffffffffffffff160217905550905050600660008873ffffffffffffffffffffffffffffffffffffffff1673ffffffffffffffffffffffffffffffffffffffff168152602001908152602001600020816000015190806001815401808255809150509060018203906000526020600020016000909192909190915055507fdf51b0dec4aed9e71c178987d39b09447fc670e878768360c5bd054a69dc87a360035489893389898833604051611c3a989796959493929190612c88565b60405180910390a15050505050505050565b60076020528160005260406000208181548110611c6557fe5b90600052602060002001600091509150505481565b60066020528160005260406000208181548110611c9357fe5b90600052602060002001600091509150505481565b6060600760008373ffffffffffffffffffffffffffffffffffffffff1673ffffffffffffffffffffffffffffffffffffffff168152602001908152602001600020805480602002602001604051908101604052809291908181526020018280548015611d3357602002820191906000526020600020905b815481526020019060010190808311611d1f575b50505050509050919050565b6060600660008373ffffffffffffffffffffffffffffffffffffffff1673ffffffffffffffffffffffffffffffffffffffff168152602001908152602001600020805480602002602001604051908101604052809291908181526020018280548015611dca57602002820191906000526020600020905b815481526020019060010190808311611db6575b50505050509050919050565b6000809054906101000a900473ffffffffffffffffffffffffffffffffffffffff1673ffffffffffffffffffffffffffffffffffffffff163373ffffffffffffffffffffffffffffffffffffffff1614611e65576040517f08c379a0000000000000000000000000000000000000000000000000000000008152600401611e5c90612b8d565b60405180910390fd5b600073ffffffffffffffffffffffffffffffffffffffff168273ffffffffffffffffffffffffffffffffffffffff161415611ed5576040517f08c379a0000000000000000000000000000000000000000000000000000000008152600401611ecc90612bcd565b60405180910390fd5b6004600081548092919060010191905055506040518060a001604052806004548152602001600281526020016040518060400160405280600481526020017f42616e6b0000000000000000000000000000000000000000000000000000000081525081526020018373ffffffffffffffffffffffffffffffffffffffff16815260200182815250600860008473ffffffffffffffffffffffffffffffffffffffff1673ffffffffffffffffffffffffffffffffffffffff16815260200190815260200160002060008201518160000155602082015181600101556040820151816002019080519060200190611fcb9291906122eb565b5060608201518160030160006101000a81548173ffffffffffffffffffffffffffffffffffffffff021916908373ffffffffffffffffffffffffffffffffffffffff160217905550608082015181600401908051906020019061202f9291906122eb565b509050506040518060a001604052806004548152602001600281526020016040518060400160405280600481526020017f42616e6b0000000000000000000000000000000000000000000000000000000081525081526020018373ffffffffffffffffffffffffffffffffffffffff16815260200182815250600960006004548152602001908152602001600020600082015181600001556020820151816001015560408201518160020190805190602001906120ed9291906122eb565b5060608201518160030160006101000a81548173ffffffffffffffffffffffffffffffffffffffff021916908373ffffffffffffffffffffffffffffffffffffffff16021790555060808201518160040190805190602001906121519291906122eb565b509050505050565b60008160405160200161216c9190612a7c565b60405160208183030381529060405280519060200120836040516020016121939190612a7c565b6040516020818303038152906040528051906020012014905092915050565b60035481565b6000809054906101000a900473ffffffffffffffffffffffffffffffffffffffff1681565b828054600181600116156101000203166002900490600052602060002090601f016020900481019282601f106122165780548555612253565b8280016001018555821561225357600052602060002091601f016020900482015b82811115612252578254825591600101919060010190612237565b5b509050612260919061236b565b5090565b6040518061010001604052806000815260200160008152602001600073ffffffffffffffffffffffffffffffffffffffff168152602001600073ffffffffffffffffffffffffffffffffffffffff168152602001606081526020016000815260200160608152602001600073ffffffffffffffffffffffffffffffffffffffff1681525090565b828054600181600116156101000203166002900490600052602060002090601f016020900481019282601f1061232c57805160ff191683800117855561235a565b8280016001018555821561235a579182015b8281111561235957825182559160200191906001019061233e565b5b509050612367919061236b565b5090565b61238d91905b80821115612389576000816000905550600101612371565b5090565b90565b60008135905061239f81612f72565b92915050565b6000813590506123b481612f89565b92915050565b600082601f8301126123cb57600080fd5b81356123de6123d982612e2e565b612e01565b915080825260208301602083018583830111156123fa57600080fd5b612405838284612f1f565b50505092915050565b60008135905061241d81612fa0565b92915050565b60006020828403121561243557600080fd5b600061244384828501612390565b91505092915050565b60006020828403121561245e57600080fd5b600061246c848285016123a5565b91505092915050565b6000806040838503121561248857600080fd5b6000612496858286016123a5565b925050602083013567ffffffffffffffff8111156124b357600080fd5b6124bf858286016123ba565b9150509250929050565b600080604083850312156124dc57600080fd5b60006124ea85828601612390565b92505060206124fb8582860161240e565b9150509250929050565b6000806040838503121561251857600080fd5b600083013567ffffffffffffffff81111561253257600080fd5b61253e858286016123ba565b925050602083013567ffffffffffffffff81111561255b57600080fd5b612567858286016123ba565b9150509250929050565b60006020828403121561258357600080fd5b60006125918482850161240e565b91505092915050565b600080600080600060a086880312156125b257600080fd5b60006125c08882890161240e565b95505060206125d1888289016123a5565b945050604086013567ffffffffffffffff8111156125ee57600080fd5b6125fa888289016123ba565b935050606086013567ffffffffffffffff81111561261757600080fd5b612623888289016123ba565b92505060806126348882890161240e565b9150509295509295909350565b600061264d8383612a5e565b60208301905092915050565b61266281612ed7565b82525050565b600061267382612e6a565b61267d8185612e98565b935061268883612e5a565b8060005b838110156126b95781516126a08882612641565b97506126ab83612e8b565b92505060018101905061268c565b5085935050505092915050565b6126cf81612ee9565b82525050565b60006126e082612e80565b6126ea8185612ea9565b93506126fa818560208601612f2e565b61270381612f61565b840191505092915050565b600061271982612e80565b6127238185612eba565b9350612733818560208601612f2e565b80840191505092915050565b600061274a82612e75565b6127548185612ea9565b9350612764818560208601612f2e565b61276d81612f61565b840191505092915050565b6000612785602383612ea9565b91507f556e617574686f72697a6564207472616e73616374696f6e206f726967696e6160008301527f746f7200000000000000000000000000000000000000000000000000000000006020830152604082019050919050565b60006127eb600f83612ea9565b91507f6572726f7220696e20645f6461746500000000000000000000000000000000006000830152602082019050919050565b600061282b601183612ea9565b91507f4e6f74206120626c6f6f642062616e6b2e0000000000000000000000000000006000830152602082019050919050565b600061286b601483612ea9565b91507f6572726f7220696e20626c6f6f642067726f75700000000000000000000000006000830152602082019050919050565b60006128ab600c83612ea9565b91507f4e6f7420616e2061646d696e00000000000000000000000000000000000000006000830152602082019050919050565b60006128eb601183612ea9565b91507f506c6561736520696e707574206e616d650000000000000000000000000000006000830152602082019050919050565b600061292b600f83612ea9565b91507f4e6f2062616e6b206164647265737300000000000000000000000000000000006000830152602082019050919050565b600061296b600f83612ea9565b91507f4e6f20686f7370206164647265737300000000000000000000000000000000006000830152602082019050919050565b60006129ab601083612ea9565b91507f57726f6e672070726963652070616964000000000000000000000000000000006000830152602082019050919050565b60006129eb601183612ea9565b91507f6572726f7220696e206578705f646174650000000000000000000000000000006000830152602082019050919050565b6000612a2b600e83612ea9565b91507f6572726f7220696e20646f6e6f720000000000000000000000000000000000006000830152602082019050919050565b612a6781612f15565b82525050565b612a7681612f15565b82525050565b6000612a88828461270e565b915081905092915050565b6000602082019050612aa86000830184612659565b92915050565b60006020820190508181036000830152612ac88184612668565b905092915050565b6000602082019050612ae560008301846126c6565b92915050565b60006020820190508181036000830152612b05818461273f565b905092915050565b60006020820190508181036000830152612b2681612778565b9050919050565b60006020820190508181036000830152612b46816127de565b9050919050565b60006020820190508181036000830152612b668161281e565b9050919050565b60006020820190508181036000830152612b868161285e565b9050919050565b60006020820190508181036000830152612ba68161289e565b9050919050565b60006020820190508181036000830152612bc6816128de565b9050919050565b60006020820190508181036000830152612be68161291e565b9050919050565b60006020820190508181036000830152612c068161295e565b9050919050565b60006020820190508181036000830152612c268161299e565b9050919050565b60006020820190508181036000830152612c46816129de565b9050919050565b60006020820190508181036000830152612c6681612a1e565b9050919050565b6000602082019050612c826000830184612a6d565b92915050565b600061010082019050612c9e600083018b612a6d565b612cab602083018a612a6d565b612cb86040830189612659565b612cc56060830188612659565b8181036080830152612cd781876126d5565b9050612ce660a0830186612a6d565b81810360c0830152612cf881856126d5565b9050612d0760e0830184612659565b9998505050505050505050565b600061010082019050612d2a600083018b612a6d565b612d37602083018a612a6d565b612d446040830189612659565b612d516060830188612659565b8181036080830152612d63818761273f565b9050612d7260a0830186612a6d565b81810360c0830152612d84818561273f565b9050612d9360e0830184612659565b9998505050505050505050565b600060a082019050612db56000830188612a6d565b612dc26020830187612a6d565b8181036040830152612dd4818661273f565b9050612de36060830185612659565b8181036080830152612df5818461273f565b90509695505050505050565b6000604051905081810181811067ffffffffffffffff82111715612e2457600080fd5b8060405250919050565b600067ffffffffffffffff821115612e4557600080fd5b601f19601f8301169050602081019050919050565b6000819050602082019050919050565b600081519050919050565b600081519050919050565b600081519050919050565b6000602082019050919050565b600082825260208201905092915050565b600082825260208201905092915050565b600081905092915050565b6000612ed082612ef5565b9050919050565b6000612ee282612ef5565b9050919050565b60008115159050919050565b600073ffffffffffffffffffffffffffffffffffffffff82169050919050565b6000819050919050565b82818337600083830152505050565b60005b83811015612f4c578082015181840152602081019050612f31565b83811115612f5b576000848401525b50505050565b6000601f19601f8301169050919050565b612f7b81612ec5565b8114612f8657600080fd5b50565b612f9281612ed7565b8114612f9d57600080fd5b50565b612fa981612f15565b8114612fb457600080fd5b5056fea365627a7a7231582083c02e54046d4e100f9c98a4ef061ee50387a23511c7acda8965e5c3217f4d1e6c6578706572696d656e74616cf564736f6c63430005100040",
  "source": "pragma solidity >=0.4.21 <0.6.0;\r\npragma experimental ABIEncoderV2;\r\n\r\n// contract DateTime {\r\n//         function getYear(uint timestamp) public returns (uint16);\r\n//         function getMonth(uint timestamp) public returns (uint8);\r\n//         function getDay(uint timestamp) public returns (uint8);\r\n// }\r\n\r\ncontract Blood{\r\n    // uint public today;\r\n    // address public dateTimeAddr = 0x66eDEfff0A0c87bA4ca2b8E73BB05787eb35908E;\r\n    address payable public admin = address(0xcce6f401fB61247aA833A451cAd741b4a49Ca954);\r\n    address payable public hospi = address(0x88223b9922EF576A9FF562e2C9FC890bfC6B92bd);\r\n    // DateTime dateTime = DateTime(dateTimeAddr);\r\n    string public name;\r\n    uint public bagCount = 0;\r\n    uint public userCount = 0;\r\n    mapping(uint => Bloodbag) public bloodbags; // This is the general list of bloodbags.\r\n    mapping(address => uint[]) public donors; // Bloodbags corresponding to donors stored here.\r\n    mapping(address => uint[]) public hospitals; // Bloodbags corresponding to hospitals stored here.\r\n    mapping(address => User) public usertype; // This mapping is to identify the type of user using the website, i.e\r\n                                              // (1 = donor, 2 = bank and 3 = hospital)\r\n    mapping(uint => User) public users; // List of all users\r\n    function getDbags(address payable _donor) public view returns (uint256[] memory) {\r\n        return donors[_donor];\r\n    }\r\n\r\n    function getHbags(address payable _hospital) public view returns (uint256[] memory) {\r\n        return hospitals[_hospital];\r\n    }\r\n\r\n    // ALL STRUCTS\r\n\r\n    struct User {\r\n        uint id;\r\n        uint user_type;\r\n        string user;\r\n        address payable user_address;\r\n        string name;\r\n    }\r\n\r\n    struct Bloodbag {\r\n        uint id;\r\n        uint donation_date;\r\n        address payable donor;\r\n        address payable bank;\r\n        string blood_group;\r\n        uint expiry;\r\n        string owner_name;\r\n        address payable owner;\r\n        // uint price;\r\n    }\r\n\r\n    // ALL STRUCTS END\r\n\r\n    event BagCreated(\r\n        uint id,\r\n        uint donation_date,\r\n        address payable donor,\r\n        address payable bank,\r\n        string blood_group,\r\n        uint expiry,\r\n        string owner_name,\r\n        address payable owner\r\n        // uint price\r\n    );\r\n\r\n    event message(string message);\r\n    event arr(uint[] array);\r\n\r\n    event bagPurchased(\r\n        uint id,\r\n        uint donation_date,\r\n        address payable donor,\r\n        address payable bank,\r\n        string blood_group,\r\n        uint expiry,\r\n        string owner_name,\r\n        address payable owner\r\n        // uint price\r\n    );\r\n\r\n    constructor() public{\r\n        name = \"Pranav Gor\";\r\n        userCount ++;\r\n        usertype[admin] = User(userCount, 14, \"Admin\", admin, \"Pranav\");\r\n        users[userCount] = User(userCount, 14, \"Admin\", admin, \"Pranav\");\r\n    }\r\n\r\n    function createBloodbag(uint _donation_date, address payable _donor, string memory _donor_name,\r\n     string memory _blood_group, uint _expiry) public {\r\n        // Require valid params\r\n        string memory d_name = _donor_name;\r\n        require(usertype[msg.sender].user_type == 2, \"Not a blood bank.\");\r\n        if(bytes(d_name).length == 0){\r\n            d_name = usertype[_donor].name;\r\n        }\r\n        require(bytes(d_name).length > 0, \"Please input name\");\r\n        require(bytes(_blood_group).length > 0, \"error in blood group\");\r\n        require(_donation_date > 0, \"error in d_date\");\r\n        require(_expiry > _donation_date, \"error in exp_date\");\r\n        require(_donor != address(0), \"error in donor\");\r\n        // Increment bag count\r\n        bagCount ++;\r\n        // Date related stuff\r\n        // Add donor and set type = 1 if not already exists.\r\n        if (usertype[_donor].id == 0){\r\n            userCount++;\r\n            usertype[_donor] = User(userCount, 1, \"Donor\", _donor, d_name);\r\n            users[userCount] = User(userCount, 1, \"Donor\",_donor, d_name);\r\n        }\r\n        // Create the Blood bag\r\n        string memory _owner_name = usertype[msg.sender].name;\r\n        Bloodbag memory temp_bloodbag = Bloodbag(bagCount, _donation_date, _donor, msg.sender, _blood_group, _expiry,\r\n        _owner_name, msg.sender);\r\n        bloodbags[bagCount] = temp_bloodbag;\r\n        // add bag to specific donor's list\r\n        donors[_donor].push(temp_bloodbag.id);\r\n        // Trigger an event\r\n        emit BagCreated(bagCount, _donation_date, _donor, msg.sender, _blood_group, _expiry,\r\n        _owner_name, msg.sender);\r\n    }\r\n\r\n    function createBank(address payable _bank, string memory _name) public {\r\n        require(msg.sender == admin,\"Not an admin\");\r\n        require(_bank != address(0),\"No bank address\");\r\n        userCount++;\r\n        usertype[_bank] = User(userCount, 2, \"Bank\",_bank, _name);\r\n        users[userCount] = User(userCount, 2, \"Bank\",_bank, _name);\r\n    }\r\n\r\n    function createHosp(address payable _hosp, string memory _name) public {\r\n        require(msg.sender == admin,\"Not an admin\");\r\n        require(_hosp != address(0),\"No hosp address\");\r\n        userCount++;\r\n        usertype[_hosp] = User(userCount, 3, \"Hospital\",_hosp, _name);\r\n        users[userCount] = User(userCount, 3, \"Hospital\",_hosp, _name);\r\n    }\r\n\r\n    function compareStrings (string memory a, string memory b) public pure returns (bool) {\r\n        return (keccak256(abi.encodePacked((a))) == keccak256(abi.encodePacked((b))) );\r\n    }\r\n\r\n    function h_placeOrder(uint bag_id) public payable {\r\n        // Fetch the owner\r\n        address payable _seller = bloodbags[bag_id].owner;\r\n        require(msg.value > 1, 'Wrong price paid');\r\n        require(usertype[msg.sender].user_type == 3, 'Unauthorized transaction originator');\r\n        address(_seller).transfer(msg.value);\r\n        //Transfer ownership\r\n        bloodbags[bag_id].owner = msg.sender;\r\n        bloodbags[bag_id].owner_name = usertype[msg.sender].name;\r\n        Bloodbag memory _bloodbag = bloodbags[bag_id];\r\n        hospitals[msg.sender].push(_bloodbag.id);\r\n        emit bagPurchased(_bloodbag.id, _bloodbag.donation_date, _bloodbag.donor, _bloodbag.bank,\r\n         _bloodbag.blood_group,_bloodbag.expiry,_bloodbag.owner_name,_bloodbag.owner);\r\n    }\r\n}",
  "sourcePath": "C:\\Users\\Anonym\\Documents\\GitHub\\Ethereum_Blockchain_BloodSupplyChain\\src\\contracts\\Blood.sol",
  "compiler": {
    "name": "solc",
    "version": "0.5.16+commit.9c3226ce.Emscripten.clang"
  },
  "schemaVersion": "3.0.23",
  "updatedAt": "2020-03-05T12:11:02.098Z",
  "devdoc": {
    "methods": {}
  },
  "userdoc": {
    "methods": {}
  }
}