{
  "contractName": "Blood",
  "abi": [
    {
      "inputs": [],
      "payable": false,
      "stateMutability": "nonpayable",
      "type": "constructor"
    },
    {
      "anonymous": false,
      "inputs": [
        {
          "indexed": false,
          "internalType": "uint256",
          "name": "id",
          "type": "uint256"
        },
        {
          "indexed": false,
          "internalType": "uint256",
          "name": "donation_date",
          "type": "uint256"
        },
        {
          "indexed": false,
          "internalType": "address payable",
          "name": "donor",
          "type": "address"
        },
        {
          "indexed": false,
          "internalType": "address payable",
          "name": "bank",
          "type": "address"
        },
        {
          "indexed": false,
          "internalType": "string",
          "name": "blood_group",
          "type": "string"
        },
        {
          "indexed": false,
          "internalType": "uint256",
          "name": "expiry",
          "type": "uint256"
        },
        {
          "indexed": false,
          "internalType": "string",
          "name": "owner_name",
          "type": "string"
        },
        {
          "indexed": false,
          "internalType": "address payable",
          "name": "owner",
          "type": "address"
        }
      ],
      "name": "BagCreated",
      "type": "event"
    },
    {
      "anonymous": false,
      "inputs": [
        {
          "indexed": false,
          "internalType": "uint256[]",
          "name": "array",
          "type": "uint256[]"
        }
      ],
      "name": "arr",
      "type": "event"
    },
    {
      "anonymous": false,
      "inputs": [
        {
          "indexed": false,
          "internalType": "uint256",
          "name": "id",
          "type": "uint256"
        },
        {
          "indexed": false,
          "internalType": "uint256",
          "name": "donation_date",
          "type": "uint256"
        },
        {
          "indexed": false,
          "internalType": "address payable",
          "name": "donor",
          "type": "address"
        },
        {
          "indexed": false,
          "internalType": "address payable",
          "name": "bank",
          "type": "address"
        },
        {
          "indexed": false,
          "internalType": "string",
          "name": "blood_group",
          "type": "string"
        },
        {
          "indexed": false,
          "internalType": "uint256",
          "name": "expiry",
          "type": "uint256"
        },
        {
          "indexed": false,
          "internalType": "string",
          "name": "owner_name",
          "type": "string"
        },
        {
          "indexed": false,
          "internalType": "address payable",
          "name": "owner",
          "type": "address"
        }
      ],
      "name": "bagPurchased",
      "type": "event"
    },
    {
      "anonymous": false,
      "inputs": [
        {
          "indexed": false,
          "internalType": "string",
          "name": "message",
          "type": "string"
        }
      ],
      "name": "message",
      "type": "event"
    },
    {
      "constant": true,
      "inputs": [],
      "name": "admin",
      "outputs": [
        {
          "internalType": "address payable",
          "name": "",
          "type": "address"
        }
      ],
      "payable": false,
      "stateMutability": "view",
      "type": "function"
    },
    {
      "constant": true,
      "inputs": [],
      "name": "bagCount",
      "outputs": [
        {
          "internalType": "uint256",
          "name": "",
          "type": "uint256"
        }
      ],
      "payable": false,
      "stateMutability": "view",
      "type": "function"
    },
    {
      "constant": true,
      "inputs": [
        {
          "internalType": "uint256",
          "name": "",
          "type": "uint256"
        }
      ],
      "name": "bloodbags",
      "outputs": [
        {
          "internalType": "uint256",
          "name": "id",
          "type": "uint256"
        },
        {
          "internalType": "uint256",
          "name": "donation_date",
          "type": "uint256"
        },
        {
          "internalType": "address payable",
          "name": "donor",
          "type": "address"
        },
        {
          "internalType": "address payable",
          "name": "bank",
          "type": "address"
        },
        {
          "internalType": "string",
          "name": "blood_group",
          "type": "string"
        },
        {
          "internalType": "uint256",
          "name": "expiry",
          "type": "uint256"
        },
        {
          "internalType": "string",
          "name": "owner_name",
          "type": "string"
        },
        {
          "internalType": "address payable",
          "name": "owner",
          "type": "address"
        }
      ],
      "payable": false,
      "stateMutability": "view",
      "type": "function"
    },
    {
      "constant": true,
      "inputs": [
        {
          "internalType": "address",
          "name": "",
          "type": "address"
        },
        {
          "internalType": "uint256",
          "name": "",
          "type": "uint256"
        }
      ],
      "name": "donors",
      "outputs": [
        {
          "internalType": "uint256",
          "name": "",
          "type": "uint256"
        }
      ],
      "payable": false,
      "stateMutability": "view",
      "type": "function"
    },
    {
      "constant": true,
      "inputs": [
        {
          "internalType": "address",
          "name": "",
          "type": "address"
        },
        {
          "internalType": "uint256",
          "name": "",
          "type": "uint256"
        }
      ],
      "name": "hospitals",
      "outputs": [
        {
          "internalType": "uint256",
          "name": "",
          "type": "uint256"
        }
      ],
      "payable": false,
      "stateMutability": "view",
      "type": "function"
    },
    {
      "constant": true,
      "inputs": [],
      "name": "name",
      "outputs": [
        {
          "internalType": "string",
          "name": "",
          "type": "string"
        }
      ],
      "payable": false,
      "stateMutability": "view",
      "type": "function"
    },
    {
      "constant": true,
      "inputs": [],
      "name": "userCount",
      "outputs": [
        {
          "internalType": "uint256",
          "name": "",
          "type": "uint256"
        }
      ],
      "payable": false,
      "stateMutability": "view",
      "type": "function"
    },
    {
      "constant": true,
      "inputs": [
        {
          "internalType": "uint256",
          "name": "",
          "type": "uint256"
        }
      ],
      "name": "users",
      "outputs": [
        {
          "internalType": "uint256",
          "name": "id",
          "type": "uint256"
        },
        {
          "internalType": "uint256",
          "name": "user_type",
          "type": "uint256"
        },
        {
          "internalType": "string",
          "name": "user",
          "type": "string"
        },
        {
          "internalType": "address payable",
          "name": "user_address",
          "type": "address"
        },
        {
          "internalType": "string",
          "name": "name",
          "type": "string"
        }
      ],
      "payable": false,
      "stateMutability": "view",
      "type": "function"
    },
    {
      "constant": true,
      "inputs": [
        {
          "internalType": "address",
          "name": "",
          "type": "address"
        }
      ],
      "name": "usertype",
      "outputs": [
        {
          "internalType": "uint256",
          "name": "id",
          "type": "uint256"
        },
        {
          "internalType": "uint256",
          "name": "user_type",
          "type": "uint256"
        },
        {
          "internalType": "string",
          "name": "user",
          "type": "string"
        },
        {
          "internalType": "address payable",
          "name": "user_address",
          "type": "address"
        },
        {
          "internalType": "string",
          "name": "name",
          "type": "string"
        }
      ],
      "payable": false,
      "stateMutability": "view",
      "type": "function"
    },
    {
      "constant": true,
      "inputs": [
        {
          "internalType": "address payable",
          "name": "_donor",
          "type": "address"
        }
      ],
      "name": "getDbags",
      "outputs": [
        {
          "internalType": "uint256[]",
          "name": "",
          "type": "uint256[]"
        }
      ],
      "payable": false,
      "stateMutability": "view",
      "type": "function"
    },
    {
      "constant": true,
      "inputs": [
        {
          "internalType": "address payable",
          "name": "_hospital",
          "type": "address"
        }
      ],
      "name": "getHbags",
      "outputs": [
        {
          "internalType": "uint256[]",
          "name": "",
          "type": "uint256[]"
        }
      ],
      "payable": false,
      "stateMutability": "view",
      "type": "function"
    },
    {
      "constant": false,
      "inputs": [
        {
          "internalType": "uint256",
          "name": "_donation_date",
          "type": "uint256"
        },
        {
          "internalType": "address payable",
          "name": "_donor",
          "type": "address"
        },
        {
          "internalType": "string",
          "name": "_donor_name",
          "type": "string"
        },
        {
          "internalType": "string",
          "name": "_blood_group",
          "type": "string"
        },
        {
          "internalType": "uint256",
          "name": "_expiry",
          "type": "uint256"
        }
      ],
      "name": "createBloodbag",
      "outputs": [],
      "payable": false,
      "stateMutability": "nonpayable",
      "type": "function"
    },
    {
      "constant": false,
      "inputs": [
        {
          "internalType": "address payable",
          "name": "_bank",
          "type": "address"
        },
        {
          "internalType": "string",
          "name": "_name",
          "type": "string"
        }
      ],
      "name": "createBank",
      "outputs": [],
      "payable": false,
      "stateMutability": "nonpayable",
      "type": "function"
    },
    {
      "constant": false,
      "inputs": [
        {
          "internalType": "address payable",
          "name": "_hosp",
          "type": "address"
        },
        {
          "internalType": "string",
          "name": "_name",
          "type": "string"
        }
      ],
      "name": "createHosp",
      "outputs": [],
      "payable": false,
      "stateMutability": "nonpayable",
      "type": "function"
    },
    {
      "constant": true,
      "inputs": [
        {
          "internalType": "string",
          "name": "a",
          "type": "string"
        },
        {
          "internalType": "string",
          "name": "b",
          "type": "string"
        }
      ],
      "name": "compareStrings",
      "outputs": [
        {
          "internalType": "bool",
          "name": "",
          "type": "bool"
        }
      ],
      "payable": false,
      "stateMutability": "pure",
      "type": "function"
    },
    {
      "constant": false,
      "inputs": [
        {
          "internalType": "uint256",
          "name": "bag_id",
          "type": "uint256"
        }
      ],
      "name": "h_placeOrder",
      "outputs": [],
      "payable": true,
      "stateMutability": "payable",
      "type": "function"
    }
  ],
  "bytecode": "0x6080604052730935234f7d0851753dc4017985b622ac768edd426000806101000a81548173ffffffffffffffffffffffffffffffffffffffff021916908373ffffffffffffffffffffffffffffffffffffffff160217905550600060025560006003553480156200006f57600080fd5b506040518060400160405280600a81526020017f5072616e617620476f720000000000000000000000000000000000000000000081525060019080519060200190620000bd92919062000419565b506003600081548092919060010191905055506040518060a001604052806003548152602001600e81526020016040518060400160405280600581526020017f41646d696e00000000000000000000000000000000000000000000000000000081525081526020016000809054906101000a900473ffffffffffffffffffffffffffffffffffffffff1673ffffffffffffffffffffffffffffffffffffffff1681526020016040518060400160405280600681526020017f5072616e61760000000000000000000000000000000000000000000000000000815250815250600760008060009054906101000a900473ffffffffffffffffffffffffffffffffffffffff1673ffffffffffffffffffffffffffffffffffffffff1673ffffffffffffffffffffffffffffffffffffffff168152602001908152602001600020600082015181600001556020820151816001015560408201518160020190805190602001906200022d929190620004a0565b5060608201518160030160006101000a81548173ffffffffffffffffffffffffffffffffffffffff021916908373ffffffffffffffffffffffffffffffffffffffff160217905550608082015181600401908051906020019062000293929190620004a0565b509050506040518060a001604052806003548152602001600e81526020016040518060400160405280600581526020017f41646d696e00000000000000000000000000000000000000000000000000000081525081526020016000809054906101000a900473ffffffffffffffffffffffffffffffffffffffff1673ffffffffffffffffffffffffffffffffffffffff1681526020016040518060400160405280600681526020017f5072616e6176000000000000000000000000000000000000000000000000000081525081525060086000600354815260200190815260200160002060008201518160000155602082015181600101556040820151816002019080519060200190620003a9929190620004a0565b5060608201518160030160006101000a81548173ffffffffffffffffffffffffffffffffffffffff021916908373ffffffffffffffffffffffffffffffffffffffff16021790555060808201518160040190805190602001906200040f929190620004a0565b509050506200054f565b828054600181600116156101000203166002900490600052602060002090601f016020900481019282601f106200045c57805160ff19168380011785556200048d565b828001600101855582156200048d579182015b828111156200048c5782518255916020019190600101906200046f565b5b5090506200049c919062000527565b5090565b828054600181600116156101000203166002900490600052602060002090601f016020900481019282601f10620004e357805160ff191683800117855562000514565b8280016001018555821562000514579182015b8281111562000513578251825591602001919060010190620004f6565b5b50905062000523919062000527565b5090565b6200054c91905b80821115620005485760008160009055506001016200052e565b5090565b90565b612f9e806200055f6000396000f3fe6080604052600436106100f35760003560e01c80639715afe11161008a578063b8558cbe11610059578063b8558cbe14610376578063bed34bba1461039f578063e8c880b4146103dc578063f851a44014610407576100f3565b80639715afe1146102825780639b56f5f0146102bf578063aabd2eb2146102fc578063ab2d4ebd14610339576100f3565b80634309e4c6116100c65780634309e4c6146101d05780634ea0738f1461021457806366df3dc0146102305780638b0c583e14610259576100f3565b806306fdde03146100f857806307973ccf146101235780633164582e1461014e578063365b98b21461018f575b600080fd5b34801561010457600080fd5b5061010d610432565b60405161011a9190612a8f565b60405180910390f35b34801561012f57600080fd5b506101386104d0565b6040516101459190612c11565b60405180910390f35b34801561015a57600080fd5b50610175600480360361017091908101906123c7565b6104d6565b604051610186959493929190612d44565b60405180910390f35b34801561019b57600080fd5b506101b660048036036101b19190810190612515565b61065c565b6040516101c7959493929190612d44565b60405180910390f35b3480156101dc57600080fd5b506101f760048036036101f29190810190612515565b6107e2565b60405161020b989796959493929190612cb8565b60405180910390f35b61022e60048036036102299190810190612515565b6109ba565b005b34801561023c57600080fd5b5061025760048036036102529190810190612419565b610f35565b005b34801561026557600080fd5b50610280600480360361027b919081019061253e565b6112b8565b005b34801561028e57600080fd5b506102a960048036036102a4919081019061246d565b611bf0565b6040516102b69190612c11565b60405180910390f35b3480156102cb57600080fd5b506102e660048036036102e1919081019061246d565b611c1e565b6040516102f39190612c11565b60405180910390f35b34801561030857600080fd5b50610323600480360361031e91908101906123f0565b611c4c565b6040516103309190612a52565b60405180910390f35b34801561034557600080fd5b50610360600480360361035b91908101906123f0565b611ce3565b60405161036d9190612a52565b60405180910390f35b34801561038257600080fd5b5061039d60048036036103989190810190612419565b611d7a565b005b3480156103ab57600080fd5b506103c660048036036103c191908101906124a9565b6120fd565b6040516103d39190612a74565b60405180910390f35b3480156103e857600080fd5b506103f1612156565b6040516103fe9190612c11565b60405180910390f35b34801561041357600080fd5b5061041c61215c565b6040516104299190612a37565b60405180910390f35b60018054600181600116156101000203166002900480601f0160208091040260200160405190810160405280929190818152602001828054600181600116156101000203166002900480156104c85780601f1061049d576101008083540402835291602001916104c8565b820191906000526020600020905b8154815290600101906020018083116104ab57829003601f168201915b505050505081565b60035481565b6007602052806000526040600020600091509050806000015490806001015490806002018054600181600116156101000203166002900480601f01602080910402602001604051908101604052809291908181526020018280546001816001161561010002031660029004801561058e5780601f106105635761010080835404028352916020019161058e565b820191906000526020600020905b81548152906001019060200180831161057157829003601f168201915b5050505050908060030160009054906101000a900473ffffffffffffffffffffffffffffffffffffffff1690806004018054600181600116156101000203166002900480601f0160208091040260200160405190810160405280929190818152602001828054600181600116156101000203166002900480156106525780601f1061062757610100808354040283529160200191610652565b820191906000526020600020905b81548152906001019060200180831161063557829003601f168201915b5050505050905085565b6008602052806000526040600020600091509050806000015490806001015490806002018054600181600116156101000203166002900480601f0160208091040260200160405190810160405280929190818152602001828054600181600116156101000203166002900480156107145780601f106106e957610100808354040283529160200191610714565b820191906000526020600020905b8154815290600101906020018083116106f757829003601f168201915b5050505050908060030160009054906101000a900473ffffffffffffffffffffffffffffffffffffffff1690806004018054600181600116156101000203166002900480601f0160208091040260200160405190810160405280929190818152602001828054600181600116156101000203166002900480156107d85780601f106107ad576101008083540402835291602001916107d8565b820191906000526020600020905b8154815290600101906020018083116107bb57829003601f168201915b5050505050905085565b60046020528060005260406000206000915090508060000154908060010154908060020160009054906101000a900473ffffffffffffffffffffffffffffffffffffffff16908060030160009054906101000a900473ffffffffffffffffffffffffffffffffffffffff1690806004018054600181600116156101000203166002900480601f0160208091040260200160405190810160405280929190818152602001828054600181600116156101000203166002900480156108e65780601f106108bb576101008083540402835291602001916108e6565b820191906000526020600020905b8154815290600101906020018083116108c957829003601f168201915b505050505090806005015490806006018054600181600116156101000203166002900480601f01602080910402602001604051908101604052809291908181526020018280546001816001161561010002031660029004801561098a5780601f1061095f5761010080835404028352916020019161098a565b820191906000526020600020905b81548152906001019060200180831161096d57829003601f168201915b5050505050908060070160009054906101000a900473ffffffffffffffffffffffffffffffffffffffff16905088565b60006004600083815260200190815260200160002060070160009054906101000a900473ffffffffffffffffffffffffffffffffffffffff16905060013411610a38576040517f08c379a0000000000000000000000000000000000000000000000000000000008152600401610a2f90612bb1565b60405180910390fd5b6003600760003373ffffffffffffffffffffffffffffffffffffffff1673ffffffffffffffffffffffffffffffffffffffff1681526020019081526020016000206001015414610abd576040517f08c379a0000000000000000000000000000000000000000000000000000000008152600401610ab490612ab1565b60405180910390fd5b8073ffffffffffffffffffffffffffffffffffffffff166108fc349081150290604051600060405180830381858888f19350505050158015610b03573d6000803e3d6000fd5b50336004600084815260200190815260200160002060070160006101000a81548173ffffffffffffffffffffffffffffffffffffffff021916908373ffffffffffffffffffffffffffffffffffffffff160217905550600760003373ffffffffffffffffffffffffffffffffffffffff1673ffffffffffffffffffffffffffffffffffffffff168152602001908152602001600020600401600460008481526020019081526020016000206006019080546001816001161561010002031660029004610bd0929190612181565b50610bd9612208565b600460008481526020019081526020016000206040518061010001604052908160008201548152602001600182015481526020016002820160009054906101000a900473ffffffffffffffffffffffffffffffffffffffff1673ffffffffffffffffffffffffffffffffffffffff1673ffffffffffffffffffffffffffffffffffffffff1681526020016003820160009054906101000a900473ffffffffffffffffffffffffffffffffffffffff1673ffffffffffffffffffffffffffffffffffffffff1673ffffffffffffffffffffffffffffffffffffffff168152602001600482018054600181600116156101000203166002900480601f016020809104026020016040519081016040528092919081815260200182805460018160011615610100020316600290048015610d515780601f10610d2657610100808354040283529160200191610d51565b820191906000526020600020905b815481529060010190602001808311610d3457829003601f168201915b5050505050815260200160058201548152602001600682018054600181600116156101000203166002900480601f016020809104026020016040519081016040528092919081815260200182805460018160011615610100020316600290048015610dfd5780601f10610dd257610100808354040283529160200191610dfd565b820191906000526020600020905b815481529060010190602001808311610de057829003601f168201915b505050505081526020016007820160009054906101000a900473ffffffffffffffffffffffffffffffffffffffff1673ffffffffffffffffffffffffffffffffffffffff1673ffffffffffffffffffffffffffffffffffffffff16815250509050600660003373ffffffffffffffffffffffffffffffffffffffff1673ffffffffffffffffffffffffffffffffffffffff168152602001908152602001600020816000015190806001815401808255809150509060018203906000526020600020016000909192909190915055507fdde2334a525ab032bcf6ca19b16fcccac5947fc50b8000b914ba0a047bcfdf8a816000015182602001518360400151846060015185608001518660a001518760c001518860e00151604051610f28989796959493929190612cb8565b60405180910390a1505050565b6000809054906101000a900473ffffffffffffffffffffffffffffffffffffffff1673ffffffffffffffffffffffffffffffffffffffff163373ffffffffffffffffffffffffffffffffffffffff1614610fc4576040517f08c379a0000000000000000000000000000000000000000000000000000000008152600401610fbb90612b31565b60405180910390fd5b600073ffffffffffffffffffffffffffffffffffffffff168273ffffffffffffffffffffffffffffffffffffffff161415611034576040517f08c379a000000000000000000000000000000000000000000000000000000000815260040161102b90612b91565b60405180910390fd5b6003600081548092919060010191905055506040518060a001604052806003548152602001600381526020016040518060400160405280600881526020017f486f73706974616c00000000000000000000000000000000000000000000000081525081526020018373ffffffffffffffffffffffffffffffffffffffff16815260200182815250600760008473ffffffffffffffffffffffffffffffffffffffff1673ffffffffffffffffffffffffffffffffffffffff1681526020019081526020016000206000820151816000015560208201518160010155604082015181600201908051906020019061112a92919061228f565b5060608201518160030160006101000a81548173ffffffffffffffffffffffffffffffffffffffff021916908373ffffffffffffffffffffffffffffffffffffffff160217905550608082015181600401908051906020019061118e92919061228f565b509050506040518060a001604052806003548152602001600381526020016040518060400160405280600881526020017f486f73706974616c00000000000000000000000000000000000000000000000081525081526020018373ffffffffffffffffffffffffffffffffffffffff168152602001828152506008600060035481526020019081526020016000206000820151816000015560208201518160010155604082015181600201908051906020019061124c92919061228f565b5060608201518160030160006101000a81548173ffffffffffffffffffffffffffffffffffffffff021916908373ffffffffffffffffffffffffffffffffffffffff16021790555060808201518160040190805190602001906112b092919061228f565b509050505050565b60608390506002600760003373ffffffffffffffffffffffffffffffffffffffff1673ffffffffffffffffffffffffffffffffffffffff1681526020019081526020016000206001015414611342576040517f08c379a000000000000000000000000000000000000000000000000000000000815260040161133990612af1565b60405180910390fd5b60008151141561142a57600760008673ffffffffffffffffffffffffffffffffffffffff1673ffffffffffffffffffffffffffffffffffffffff1681526020019081526020016000206004018054600181600116156101000203166002900480601f0160208091040260200160405190810160405280929190818152602001828054600181600116156101000203166002900480156114225780601f106113f757610100808354040283529160200191611422565b820191906000526020600020905b81548152906001019060200180831161140557829003601f168201915b505050505090505b600081511161146e576040517f08c379a000000000000000000000000000000000000000000000000000000000815260040161146590612b51565b60405180910390fd5b60008351116114b2576040517f08c379a00000000000000000000000000000000000000000000000000000000081526004016114a990612b11565b60405180910390fd5b600086116114f5576040517f08c379a00000000000000000000000000000000000000000000000000000000081526004016114ec90612ad1565b60405180910390fd5b858211611537576040517f08c379a000000000000000000000000000000000000000000000000000000000815260040161152e90612bd1565b60405180910390fd5b600073ffffffffffffffffffffffffffffffffffffffff168573ffffffffffffffffffffffffffffffffffffffff1614156115a7576040517f08c379a000000000000000000000000000000000000000000000000000000000815260040161159e90612bf1565b60405180910390fd5b6002600081548092919060010191905055506000600760008773ffffffffffffffffffffffffffffffffffffffff1673ffffffffffffffffffffffffffffffffffffffff168152602001908152602001600020600001541415611885576003600081548092919060010191905055506040518060a001604052806003548152602001600181526020016040518060400160405280600581526020017f446f6e6f7200000000000000000000000000000000000000000000000000000081525081526020018673ffffffffffffffffffffffffffffffffffffffff16815260200182815250600760008773ffffffffffffffffffffffffffffffffffffffff1673ffffffffffffffffffffffffffffffffffffffff168152602001908152602001600020600082015181600001556020820151816001015560408201518160020190805190602001906116fa92919061228f565b5060608201518160030160006101000a81548173ffffffffffffffffffffffffffffffffffffffff021916908373ffffffffffffffffffffffffffffffffffffffff160217905550608082015181600401908051906020019061175e92919061228f565b509050506040518060a001604052806003548152602001600181526020016040518060400160405280600581526020017f446f6e6f7200000000000000000000000000000000000000000000000000000081525081526020018673ffffffffffffffffffffffffffffffffffffffff168152602001828152506008600060035481526020019081526020016000206000820151816000015560208201518160010155604082015181600201908051906020019061181c92919061228f565b5060608201518160030160006101000a81548173ffffffffffffffffffffffffffffffffffffffff021916908373ffffffffffffffffffffffffffffffffffffffff160217905550608082015181600401908051906020019061188092919061228f565b509050505b6060600760003373ffffffffffffffffffffffffffffffffffffffff1673ffffffffffffffffffffffffffffffffffffffff1681526020019081526020016000206004018054600181600116156101000203166002900480601f01602080910402602001604051908101604052809291908181526020018280546001816001161561010002031660029004801561195d5780601f106119325761010080835404028352916020019161195d565b820191906000526020600020905b81548152906001019060200180831161194057829003601f168201915b5050505050905061196c612208565b60405180610100016040528060025481526020018981526020018873ffffffffffffffffffffffffffffffffffffffff1681526020013373ffffffffffffffffffffffffffffffffffffffff1681526020018681526020018581526020018381526020013373ffffffffffffffffffffffffffffffffffffffff16815250905080600460006002548152602001908152602001600020600082015181600001556020820151816001015560408201518160020160006101000a81548173ffffffffffffffffffffffffffffffffffffffff021916908373ffffffffffffffffffffffffffffffffffffffff16021790555060608201518160030160006101000a81548173ffffffffffffffffffffffffffffffffffffffff021916908373ffffffffffffffffffffffffffffffffffffffff1602179055506080820151816004019080519060200190611ac092919061228f565b5060a0820151816005015560c0820151816006019080519060200190611ae792919061228f565b5060e08201518160070160006101000a81548173ffffffffffffffffffffffffffffffffffffffff021916908373ffffffffffffffffffffffffffffffffffffffff160217905550905050600560008873ffffffffffffffffffffffffffffffffffffffff1673ffffffffffffffffffffffffffffffffffffffff168152602001908152602001600020816000015190806001815401808255809150509060018203906000526020600020016000909192909190915055507fdf51b0dec4aed9e71c178987d39b09447fc670e878768360c5bd054a69dc87a360025489893389898833604051611bde989796959493929190612c2c565b60405180910390a15050505050505050565b60066020528160005260406000208181548110611c0957fe5b90600052602060002001600091509150505481565b60056020528160005260406000208181548110611c3757fe5b90600052602060002001600091509150505481565b6060600660008373ffffffffffffffffffffffffffffffffffffffff1673ffffffffffffffffffffffffffffffffffffffff168152602001908152602001600020805480602002602001604051908101604052809291908181526020018280548015611cd757602002820191906000526020600020905b815481526020019060010190808311611cc3575b50505050509050919050565b6060600560008373ffffffffffffffffffffffffffffffffffffffff1673ffffffffffffffffffffffffffffffffffffffff168152602001908152602001600020805480602002602001604051908101604052809291908181526020018280548015611d6e57602002820191906000526020600020905b815481526020019060010190808311611d5a575b50505050509050919050565b6000809054906101000a900473ffffffffffffffffffffffffffffffffffffffff1673ffffffffffffffffffffffffffffffffffffffff163373ffffffffffffffffffffffffffffffffffffffff1614611e09576040517f08c379a0000000000000000000000000000000000000000000000000000000008152600401611e0090612b31565b60405180910390fd5b600073ffffffffffffffffffffffffffffffffffffffff168273ffffffffffffffffffffffffffffffffffffffff161415611e79576040517f08c379a0000000000000000000000000000000000000000000000000000000008152600401611e7090612b71565b60405180910390fd5b6003600081548092919060010191905055506040518060a001604052806003548152602001600281526020016040518060400160405280600481526020017f42616e6b0000000000000000000000000000000000000000000000000000000081525081526020018373ffffffffffffffffffffffffffffffffffffffff16815260200182815250600760008473ffffffffffffffffffffffffffffffffffffffff1673ffffffffffffffffffffffffffffffffffffffff16815260200190815260200160002060008201518160000155602082015181600101556040820151816002019080519060200190611f6f92919061228f565b5060608201518160030160006101000a81548173ffffffffffffffffffffffffffffffffffffffff021916908373ffffffffffffffffffffffffffffffffffffffff1602179055506080820151816004019080519060200190611fd392919061228f565b509050506040518060a001604052806003548152602001600281526020016040518060400160405280600481526020017f42616e6b0000000000000000000000000000000000000000000000000000000081525081526020018373ffffffffffffffffffffffffffffffffffffffff168152602001828152506008600060035481526020019081526020016000206000820151816000015560208201518160010155604082015181600201908051906020019061209192919061228f565b5060608201518160030160006101000a81548173ffffffffffffffffffffffffffffffffffffffff021916908373ffffffffffffffffffffffffffffffffffffffff16021790555060808201518160040190805190602001906120f592919061228f565b509050505050565b6000816040516020016121109190612a20565b60405160208183030381529060405280519060200120836040516020016121379190612a20565b6040516020818303038152906040528051906020012014905092915050565b60025481565b6000809054906101000a900473ffffffffffffffffffffffffffffffffffffffff1681565b828054600181600116156101000203166002900490600052602060002090601f016020900481019282601f106121ba57805485556121f7565b828001600101855582156121f757600052602060002091601f016020900482015b828111156121f65782548255916001019190600101906121db565b5b509050612204919061230f565b5090565b6040518061010001604052806000815260200160008152602001600073ffffffffffffffffffffffffffffffffffffffff168152602001600073ffffffffffffffffffffffffffffffffffffffff168152602001606081526020016000815260200160608152602001600073ffffffffffffffffffffffffffffffffffffffff1681525090565b828054600181600116156101000203166002900490600052602060002090601f016020900481019282601f106122d057805160ff19168380011785556122fe565b828001600101855582156122fe579182015b828111156122fd5782518255916020019190600101906122e2565b5b50905061230b919061230f565b5090565b61233191905b8082111561232d576000816000905550600101612315565b5090565b90565b60008135905061234381612f16565b92915050565b60008135905061235881612f2d565b92915050565b600082601f83011261236f57600080fd5b813561238261237d82612dd2565b612da5565b9150808252602083016020830185838301111561239e57600080fd5b6123a9838284612ec3565b50505092915050565b6000813590506123c181612f44565b92915050565b6000602082840312156123d957600080fd5b60006123e784828501612334565b91505092915050565b60006020828403121561240257600080fd5b600061241084828501612349565b91505092915050565b6000806040838503121561242c57600080fd5b600061243a85828601612349565b925050602083013567ffffffffffffffff81111561245757600080fd5b6124638582860161235e565b9150509250929050565b6000806040838503121561248057600080fd5b600061248e85828601612334565b925050602061249f858286016123b2565b9150509250929050565b600080604083850312156124bc57600080fd5b600083013567ffffffffffffffff8111156124d657600080fd5b6124e28582860161235e565b925050602083013567ffffffffffffffff8111156124ff57600080fd5b61250b8582860161235e565b9150509250929050565b60006020828403121561252757600080fd5b6000612535848285016123b2565b91505092915050565b600080600080600060a0868803121561255657600080fd5b6000612564888289016123b2565b955050602061257588828901612349565b945050604086013567ffffffffffffffff81111561259257600080fd5b61259e8882890161235e565b935050606086013567ffffffffffffffff8111156125bb57600080fd5b6125c78882890161235e565b92505060806125d8888289016123b2565b9150509295509295909350565b60006125f18383612a02565b60208301905092915050565b61260681612e7b565b82525050565b600061261782612e0e565b6126218185612e3c565b935061262c83612dfe565b8060005b8381101561265d57815161264488826125e5565b975061264f83612e2f565b925050600181019050612630565b5085935050505092915050565b61267381612e8d565b82525050565b600061268482612e24565b61268e8185612e4d565b935061269e818560208601612ed2565b6126a781612f05565b840191505092915050565b60006126bd82612e24565b6126c78185612e5e565b93506126d7818560208601612ed2565b80840191505092915050565b60006126ee82612e19565b6126f88185612e4d565b9350612708818560208601612ed2565b61271181612f05565b840191505092915050565b6000612729602383612e4d565b91507f556e617574686f72697a6564207472616e73616374696f6e206f726967696e6160008301527f746f7200000000000000000000000000000000000000000000000000000000006020830152604082019050919050565b600061278f600f83612e4d565b91507f6572726f7220696e20645f6461746500000000000000000000000000000000006000830152602082019050919050565b60006127cf601183612e4d565b91507f4e6f74206120626c6f6f642062616e6b2e0000000000000000000000000000006000830152602082019050919050565b600061280f601483612e4d565b91507f6572726f7220696e20626c6f6f642067726f75700000000000000000000000006000830152602082019050919050565b600061284f600c83612e4d565b91507f4e6f7420616e2061646d696e00000000000000000000000000000000000000006000830152602082019050919050565b600061288f601183612e4d565b91507f506c6561736520696e707574206e616d650000000000000000000000000000006000830152602082019050919050565b60006128cf600f83612e4d565b91507f4e6f2062616e6b206164647265737300000000000000000000000000000000006000830152602082019050919050565b600061290f600f83612e4d565b91507f4e6f20686f7370206164647265737300000000000000000000000000000000006000830152602082019050919050565b600061294f601083612e4d565b91507f57726f6e672070726963652070616964000000000000000000000000000000006000830152602082019050919050565b600061298f601183612e4d565b91507f6572726f7220696e206578705f646174650000000000000000000000000000006000830152602082019050919050565b60006129cf600e83612e4d565b91507f6572726f7220696e20646f6e6f720000000000000000000000000000000000006000830152602082019050919050565b612a0b81612eb9565b82525050565b612a1a81612eb9565b82525050565b6000612a2c82846126b2565b915081905092915050565b6000602082019050612a4c60008301846125fd565b92915050565b60006020820190508181036000830152612a6c818461260c565b905092915050565b6000602082019050612a89600083018461266a565b92915050565b60006020820190508181036000830152612aa981846126e3565b905092915050565b60006020820190508181036000830152612aca8161271c565b9050919050565b60006020820190508181036000830152612aea81612782565b9050919050565b60006020820190508181036000830152612b0a816127c2565b9050919050565b60006020820190508181036000830152612b2a81612802565b9050919050565b60006020820190508181036000830152612b4a81612842565b9050919050565b60006020820190508181036000830152612b6a81612882565b9050919050565b60006020820190508181036000830152612b8a816128c2565b9050919050565b60006020820190508181036000830152612baa81612902565b9050919050565b60006020820190508181036000830152612bca81612942565b9050919050565b60006020820190508181036000830152612bea81612982565b9050919050565b60006020820190508181036000830152612c0a816129c2565b9050919050565b6000602082019050612c266000830184612a11565b92915050565b600061010082019050612c42600083018b612a11565b612c4f602083018a612a11565b612c5c60408301896125fd565b612c6960608301886125fd565b8181036080830152612c7b8187612679565b9050612c8a60a0830186612a11565b81810360c0830152612c9c8185612679565b9050612cab60e08301846125fd565b9998505050505050505050565b600061010082019050612cce600083018b612a11565b612cdb602083018a612a11565b612ce860408301896125fd565b612cf560608301886125fd565b8181036080830152612d0781876126e3565b9050612d1660a0830186612a11565b81810360c0830152612d2881856126e3565b9050612d3760e08301846125fd565b9998505050505050505050565b600060a082019050612d596000830188612a11565b612d666020830187612a11565b8181036040830152612d7881866126e3565b9050612d8760608301856125fd565b8181036080830152612d9981846126e3565b90509695505050505050565b6000604051905081810181811067ffffffffffffffff82111715612dc857600080fd5b8060405250919050565b600067ffffffffffffffff821115612de957600080fd5b601f19601f8301169050602081019050919050565b6000819050602082019050919050565b600081519050919050565b600081519050919050565b600081519050919050565b6000602082019050919050565b600082825260208201905092915050565b600082825260208201905092915050565b600081905092915050565b6000612e7482612e99565b9050919050565b6000612e8682612e99565b9050919050565b60008115159050919050565b600073ffffffffffffffffffffffffffffffffffffffff82169050919050565b6000819050919050565b82818337600083830152505050565b60005b83811015612ef0578082015181840152602081019050612ed5565b83811115612eff576000848401525b50505050565b6000601f19601f8301169050919050565b612f1f81612e69565b8114612f2a57600080fd5b50565b612f3681612e7b565b8114612f4157600080fd5b50565b612f4d81612eb9565b8114612f5857600080fd5b5056fea365627a7a72315820d4c691fc75964e1165677d0c321f41fdfab16fd7a5a51365ac03176225de74cd6c6578706572696d656e74616cf564736f6c63430005100040",
  "source": "pragma solidity >=0.4.21 <0.6.0;\r\npragma experimental ABIEncoderV2;\r\n\r\n// contract DateTime {\r\n//         function getYear(uint timestamp) public returns (uint16);\r\n//         function getMonth(uint timestamp) public returns (uint8);\r\n//         function getDay(uint timestamp) public returns (uint8);\r\n// }\r\n\r\ncontract Blood{\r\n    // uint public today;\r\n    // address public dateTimeAddr = 0x66eDEfff0A0c87bA4ca2b8E73BB05787eb35908E;\r\n    address payable public admin = address(0x0935234F7D0851753dC4017985b622AC768EDd42);\r\n    // DateTime dateTime = DateTime(dateTimeAddr);\r\n    string public name;\r\n    uint public bagCount = 0;\r\n    uint public userCount = 0;\r\n    mapping(uint => Bloodbag) public bloodbags; // This is the general list of bloodbags.\r\n    mapping(address => uint[]) public donors; // Bloodbags corresponding to donors stored here.\r\n    mapping(address => uint[]) public hospitals; // Bloodbags corresponding to hospitals stored here.\r\n    mapping(address => User) public usertype; // This mapping is to identify the type of user using the website, i.e\r\n                                              // (1 = donor, 2 = bank and 3 = hospital)\r\n    mapping(uint => User) public users; // List of all users\r\n    function getDbags(address payable _donor) public view returns (uint256[] memory) {\r\n        return donors[_donor];\r\n    }\r\n\r\n    function getHbags(address payable _hospital) public view returns (uint256[] memory) {\r\n        return hospitals[_hospital];\r\n    }\r\n\r\n    // ALL STRUCTS\r\n\r\n    struct User {\r\n        uint id;\r\n        uint user_type;\r\n        string user;\r\n        address payable user_address;\r\n        string name;\r\n    }\r\n\r\n    struct Bloodbag {\r\n        uint id;\r\n        uint donation_date;\r\n        address payable donor;\r\n        address payable bank;\r\n        string blood_group;\r\n        uint expiry;\r\n        string owner_name;\r\n        address payable owner;\r\n        // uint price;\r\n    }\r\n\r\n    // ALL STRUCTS END\r\n\r\n    event BagCreated(\r\n        uint id,\r\n        uint donation_date,\r\n        address payable donor,\r\n        address payable bank,\r\n        string blood_group,\r\n        uint expiry,\r\n        string owner_name,\r\n        address payable owner\r\n        // uint price\r\n    );\r\n\r\n    event message(string message);\r\n    event arr(uint[] array);\r\n\r\n    event bagPurchased(\r\n        uint id,\r\n        uint donation_date,\r\n        address payable donor,\r\n        address payable bank,\r\n        string blood_group,\r\n        uint expiry,\r\n        string owner_name,\r\n        address payable owner\r\n        // uint price\r\n    );\r\n\r\n    constructor() public{\r\n        name = \"Pranav Gor\";\r\n        userCount ++;\r\n        usertype[admin] = User(userCount, 14, \"Admin\", admin, \"Pranav\");\r\n        users[userCount] = User(userCount, 14, \"Admin\", admin, \"Pranav\");\r\n    }\r\n\r\n    function createBloodbag(uint _donation_date, address payable _donor, string memory _donor_name,\r\n     string memory _blood_group, uint _expiry) public {\r\n        // Require valid params\r\n        string memory d_name = _donor_name;\r\n        require(usertype[msg.sender].user_type == 2, \"Not a blood bank.\");\r\n        if(bytes(d_name).length == 0){\r\n            d_name = usertype[_donor].name;\r\n        }\r\n        require(bytes(d_name).length > 0, \"Please input name\");\r\n        require(bytes(_blood_group).length > 0, \"error in blood group\");\r\n        require(_donation_date > 0, \"error in d_date\");\r\n        require(_expiry > _donation_date, \"error in exp_date\");\r\n        require(_donor != address(0), \"error in donor\");\r\n        // Increment bag count\r\n        bagCount ++;\r\n        // Date related stuff\r\n        // Add donor and set type = 1 if not already exists.\r\n        if (usertype[_donor].id == 0){\r\n            userCount++;\r\n            usertype[_donor] = User(userCount, 1, \"Donor\", _donor, d_name);\r\n            users[userCount] = User(userCount, 1, \"Donor\",_donor, d_name);\r\n        }\r\n        // Create the Blood bag\r\n        string memory _owner_name = usertype[msg.sender].name;\r\n        Bloodbag memory temp_bloodbag = Bloodbag(bagCount, _donation_date, _donor, msg.sender, _blood_group, _expiry,\r\n        _owner_name, msg.sender);\r\n        bloodbags[bagCount] = temp_bloodbag;\r\n        // add bag to specific donor's list\r\n        donors[_donor].push(temp_bloodbag.id);\r\n        // Trigger an event\r\n        emit BagCreated(bagCount, _donation_date, _donor, msg.sender, _blood_group, _expiry,\r\n        _owner_name, msg.sender);\r\n    }\r\n\r\n    function createBank(address payable _bank, string memory _name) public {\r\n        require(msg.sender == admin,\"Not an admin\");\r\n        require(_bank != address(0),\"No bank address\");\r\n        userCount++;\r\n        usertype[_bank] = User(userCount, 2, \"Bank\",_bank, _name);\r\n        users[userCount] = User(userCount, 2, \"Bank\",_bank, _name);\r\n    }\r\n\r\n    function createHosp(address payable _hosp, string memory _name) public {\r\n        require(msg.sender == admin,\"Not an admin\");\r\n        require(_hosp != address(0),\"No hosp address\");\r\n        userCount++;\r\n        usertype[_hosp] = User(userCount, 3, \"Hospital\",_hosp, _name);\r\n        users[userCount] = User(userCount, 3, \"Hospital\",_hosp, _name);\r\n    }\r\n\r\n    function compareStrings (string memory a, string memory b) public pure returns (bool) {\r\n        return (keccak256(abi.encodePacked((a))) == keccak256(abi.encodePacked((b))) );\r\n    }\r\n\r\n    function h_placeOrder(uint bag_id) public payable {\r\n        // Fetch the owner\r\n        address payable _seller = bloodbags[bag_id].owner;\r\n        require(msg.value > 1, 'Wrong price paid');\r\n        require(usertype[msg.sender].user_type == 3, 'Unauthorized transaction originator');\r\n        address(_seller).transfer(msg.value);\r\n        //Transfer ownership\r\n        bloodbags[bag_id].owner = msg.sender;\r\n        bloodbags[bag_id].owner_name = usertype[msg.sender].name;\r\n        Bloodbag memory _bloodbag = bloodbags[bag_id];\r\n        hospitals[msg.sender].push(_bloodbag.id);\r\n        emit bagPurchased(_bloodbag.id, _bloodbag.donation_date, _bloodbag.donor, _bloodbag.bank,\r\n         _bloodbag.blood_group,_bloodbag.expiry,_bloodbag.owner_name,_bloodbag.owner);\r\n    }\r\n}",
  "sourcePath": "O:\\Pranav\\GitHub\\Ethereum_Blockchain_BloodSupplyChain\\src\\contracts\\Blood.sol",
  "compiler": {
    "name": "solc",
    "version": "0.5.16+commit.9c3226ce.Emscripten.clang"
  },
  "schemaVersion": "3.0.23",
  "updatedAt": "2020-03-02T14:07:04.543Z",
  "networkType": "ethereum",
  "devdoc": {
    "methods": {}
  },
  "userdoc": {
    "methods": {}
  }
}