{
  "contractName": "Blood",
  "abi": [
    {
      "inputs": [],
      "payable": false,
      "stateMutability": "nonpayable",
      "type": "constructor"
    },
    {
      "anonymous": false,
      "inputs": [
        {
          "indexed": false,
          "internalType": "uint256",
          "name": "id",
          "type": "uint256"
        },
        {
          "indexed": false,
          "internalType": "bool",
          "name": "used",
          "type": "bool"
        },
        {
          "indexed": false,
          "internalType": "uint256",
          "name": "donation_date",
          "type": "uint256"
        },
        {
          "indexed": false,
          "internalType": "address payable",
          "name": "donor",
          "type": "address"
        },
        {
          "indexed": false,
          "internalType": "address payable",
          "name": "bank",
          "type": "address"
        },
        {
          "indexed": false,
          "internalType": "string",
          "name": "blood_group",
          "type": "string"
        },
        {
          "indexed": false,
          "internalType": "uint256",
          "name": "expiry",
          "type": "uint256"
        },
        {
          "indexed": false,
          "internalType": "string",
          "name": "owner_name",
          "type": "string"
        },
        {
          "indexed": false,
          "internalType": "address payable",
          "name": "owner",
          "type": "address"
        }
      ],
      "name": "BagCreated",
      "type": "event"
    },
    {
      "anonymous": false,
      "inputs": [
        {
          "indexed": false,
          "internalType": "uint256[]",
          "name": "array",
          "type": "uint256[]"
        }
      ],
      "name": "arr",
      "type": "event"
    },
    {
      "anonymous": false,
      "inputs": [
        {
          "indexed": false,
          "internalType": "uint256",
          "name": "id",
          "type": "uint256"
        },
        {
          "indexed": false,
          "internalType": "bool",
          "name": "used",
          "type": "bool"
        },
        {
          "indexed": false,
          "internalType": "uint256",
          "name": "donation_date",
          "type": "uint256"
        },
        {
          "indexed": false,
          "internalType": "address payable",
          "name": "donor",
          "type": "address"
        },
        {
          "indexed": false,
          "internalType": "address payable",
          "name": "bank",
          "type": "address"
        },
        {
          "indexed": false,
          "internalType": "string",
          "name": "blood_group",
          "type": "string"
        },
        {
          "indexed": false,
          "internalType": "uint256",
          "name": "expiry",
          "type": "uint256"
        },
        {
          "indexed": false,
          "internalType": "string",
          "name": "owner_name",
          "type": "string"
        },
        {
          "indexed": false,
          "internalType": "address payable",
          "name": "owner",
          "type": "address"
        }
      ],
      "name": "bagPurchased",
      "type": "event"
    },
    {
      "anonymous": false,
      "inputs": [
        {
          "indexed": false,
          "internalType": "string",
          "name": "message",
          "type": "string"
        }
      ],
      "name": "message",
      "type": "event"
    },
    {
      "constant": true,
      "inputs": [],
      "name": "admin",
      "outputs": [
        {
          "internalType": "address payable",
          "name": "",
          "type": "address"
        }
      ],
      "payable": false,
      "stateMutability": "view",
      "type": "function"
    },
    {
      "constant": true,
      "inputs": [],
      "name": "bagCount",
      "outputs": [
        {
          "internalType": "uint256",
          "name": "",
          "type": "uint256"
        }
      ],
      "payable": false,
      "stateMutability": "view",
      "type": "function"
    },
    {
      "constant": true,
      "inputs": [
        {
          "internalType": "uint256",
          "name": "",
          "type": "uint256"
        }
      ],
      "name": "bloodbags",
      "outputs": [
        {
          "internalType": "uint256",
          "name": "id",
          "type": "uint256"
        },
        {
          "internalType": "bool",
          "name": "used",
          "type": "bool"
        },
        {
          "internalType": "bool",
          "name": "first",
          "type": "bool"
        },
        {
          "internalType": "uint256",
          "name": "donation_date",
          "type": "uint256"
        },
        {
          "internalType": "address payable",
          "name": "donor",
          "type": "address"
        },
        {
          "internalType": "address payable",
          "name": "bank",
          "type": "address"
        },
        {
          "internalType": "string",
          "name": "blood_group",
          "type": "string"
        },
        {
          "internalType": "uint256",
          "name": "expiry",
          "type": "uint256"
        },
        {
          "internalType": "string",
          "name": "owner_name",
          "type": "string"
        },
        {
          "internalType": "address payable",
          "name": "owner",
          "type": "address"
        }
      ],
      "payable": false,
      "stateMutability": "view",
      "type": "function"
    },
    {
      "constant": true,
      "inputs": [
        {
          "internalType": "address",
          "name": "",
          "type": "address"
        },
        {
          "internalType": "uint256",
          "name": "",
          "type": "uint256"
        }
      ],
      "name": "donors",
      "outputs": [
        {
          "internalType": "uint256",
          "name": "",
          "type": "uint256"
        }
      ],
      "payable": false,
      "stateMutability": "view",
      "type": "function"
    },
    {
      "constant": true,
      "inputs": [
        {
          "internalType": "address",
          "name": "",
          "type": "address"
        },
        {
          "internalType": "uint256",
          "name": "",
          "type": "uint256"
        }
      ],
      "name": "hospitals",
      "outputs": [
        {
          "internalType": "uint256",
          "name": "",
          "type": "uint256"
        }
      ],
      "payable": false,
      "stateMutability": "view",
      "type": "function"
    },
    {
      "constant": true,
      "inputs": [],
      "name": "name",
      "outputs": [
        {
          "internalType": "string",
          "name": "",
          "type": "string"
        }
      ],
      "payable": false,
      "stateMutability": "view",
      "type": "function"
    },
    {
      "constant": true,
      "inputs": [
        {
          "internalType": "address",
          "name": "",
          "type": "address"
        },
        {
          "internalType": "uint256",
          "name": "",
          "type": "uint256"
        }
      ],
      "name": "notification",
      "outputs": [
        {
          "internalType": "uint256",
          "name": "",
          "type": "uint256"
        }
      ],
      "payable": false,
      "stateMutability": "view",
      "type": "function"
    },
    {
      "constant": true,
      "inputs": [],
      "name": "userCount",
      "outputs": [
        {
          "internalType": "uint256",
          "name": "",
          "type": "uint256"
        }
      ],
      "payable": false,
      "stateMutability": "view",
      "type": "function"
    },
    {
      "constant": true,
      "inputs": [
        {
          "internalType": "uint256",
          "name": "",
          "type": "uint256"
        }
      ],
      "name": "users",
      "outputs": [
        {
          "internalType": "uint256",
          "name": "id",
          "type": "uint256"
        },
        {
          "internalType": "uint256",
          "name": "user_type",
          "type": "uint256"
        },
        {
          "internalType": "string",
          "name": "user",
          "type": "string"
        },
        {
          "internalType": "address payable",
          "name": "user_address",
          "type": "address"
        },
        {
          "internalType": "string",
          "name": "name",
          "type": "string"
        }
      ],
      "payable": false,
      "stateMutability": "view",
      "type": "function"
    },
    {
      "constant": true,
      "inputs": [
        {
          "internalType": "address",
          "name": "",
          "type": "address"
        }
      ],
      "name": "usertype",
      "outputs": [
        {
          "internalType": "uint256",
          "name": "id",
          "type": "uint256"
        },
        {
          "internalType": "uint256",
          "name": "user_type",
          "type": "uint256"
        },
        {
          "internalType": "string",
          "name": "user",
          "type": "string"
        },
        {
          "internalType": "address payable",
          "name": "user_address",
          "type": "address"
        },
        {
          "internalType": "string",
          "name": "name",
          "type": "string"
        }
      ],
      "payable": false,
      "stateMutability": "view",
      "type": "function"
    },
    {
      "constant": true,
      "inputs": [
        {
          "internalType": "address payable",
          "name": "_donor",
          "type": "address"
        }
      ],
      "name": "getDbags",
      "outputs": [
        {
          "internalType": "uint256[]",
          "name": "",
          "type": "uint256[]"
        }
      ],
      "payable": false,
      "stateMutability": "view",
      "type": "function"
    },
    {
      "constant": true,
      "inputs": [
        {
          "internalType": "address payable",
          "name": "_donor",
          "type": "address"
        }
      ],
      "name": "getNotification",
      "outputs": [
        {
          "internalType": "uint256[]",
          "name": "",
          "type": "uint256[]"
        }
      ],
      "payable": false,
      "stateMutability": "view",
      "type": "function"
    },
    {
      "constant": true,
      "inputs": [
        {
          "internalType": "address payable",
          "name": "_hospital",
          "type": "address"
        }
      ],
      "name": "getHbags",
      "outputs": [
        {
          "internalType": "uint256[]",
          "name": "",
          "type": "uint256[]"
        }
      ],
      "payable": false,
      "stateMutability": "view",
      "type": "function"
    },
    {
      "constant": false,
      "inputs": [
        {
          "internalType": "uint256",
          "name": "_donation_date",
          "type": "uint256"
        },
        {
          "internalType": "address payable",
          "name": "_donor",
          "type": "address"
        },
        {
          "internalType": "string",
          "name": "_donor_name",
          "type": "string"
        },
        {
          "internalType": "string",
          "name": "_blood_group",
          "type": "string"
        },
        {
          "internalType": "uint256",
          "name": "_expiry",
          "type": "uint256"
        }
      ],
      "name": "createBloodbag",
      "outputs": [],
      "payable": false,
      "stateMutability": "nonpayable",
      "type": "function"
    },
    {
      "constant": false,
      "inputs": [
        {
          "internalType": "address payable",
          "name": "_bank",
          "type": "address"
        },
        {
          "internalType": "string",
          "name": "_name",
          "type": "string"
        }
      ],
      "name": "createBank",
      "outputs": [],
      "payable": false,
      "stateMutability": "nonpayable",
      "type": "function"
    },
    {
      "constant": false,
      "inputs": [
        {
          "internalType": "address payable",
          "name": "_hosp",
          "type": "address"
        },
        {
          "internalType": "string",
          "name": "_name",
          "type": "string"
        }
      ],
      "name": "createHosp",
      "outputs": [],
      "payable": false,
      "stateMutability": "nonpayable",
      "type": "function"
    },
    {
      "constant": false,
      "inputs": [
        {
          "internalType": "uint256",
          "name": "bag_id",
          "type": "uint256"
        }
      ],
      "name": "h_placeOrder",
      "outputs": [],
      "payable": true,
      "stateMutability": "payable",
      "type": "function"
    },
    {
      "constant": false,
      "inputs": [
        {
          "internalType": "uint256",
          "name": "bag_id",
          "type": "uint256"
        }
      ],
      "name": "useBag",
      "outputs": [],
      "payable": false,
      "stateMutability": "nonpayable",
      "type": "function"
    },
    {
      "constant": false,
      "inputs": [],
      "name": "gotIt",
      "outputs": [],
      "payable": false,
      "stateMutability": "nonpayable",
      "type": "function"
    }
  ],
  "bytecode": "0x6080604052730935234f7d0851753dc4017985b622ac768edd426000806101000a81548173ffffffffffffffffffffffffffffffffffffffff021916908373ffffffffffffffffffffffffffffffffffffffff160217905550600060025560006003553480156200006f57600080fd5b506040518060400160405280600a81526020017f5072616e617620476f720000000000000000000000000000000000000000000081525060019080519060200190620000bd92919062000419565b506003600081548092919060010191905055506040518060a001604052806003548152602001600e81526020016040518060400160405280600581526020017f41646d696e00000000000000000000000000000000000000000000000000000081525081526020016000809054906101000a900473ffffffffffffffffffffffffffffffffffffffff1673ffffffffffffffffffffffffffffffffffffffff1681526020016040518060400160405280600681526020017f5072616e61760000000000000000000000000000000000000000000000000000815250815250600760008060009054906101000a900473ffffffffffffffffffffffffffffffffffffffff1673ffffffffffffffffffffffffffffffffffffffff1673ffffffffffffffffffffffffffffffffffffffff168152602001908152602001600020600082015181600001556020820151816001015560408201518160020190805190602001906200022d929190620004a0565b5060608201518160030160006101000a81548173ffffffffffffffffffffffffffffffffffffffff021916908373ffffffffffffffffffffffffffffffffffffffff160217905550608082015181600401908051906020019062000293929190620004a0565b509050506040518060a001604052806003548152602001600e81526020016040518060400160405280600581526020017f41646d696e00000000000000000000000000000000000000000000000000000081525081526020016000809054906101000a900473ffffffffffffffffffffffffffffffffffffffff1673ffffffffffffffffffffffffffffffffffffffff1681526020016040518060400160405280600681526020017f5072616e6176000000000000000000000000000000000000000000000000000081525081525060096000600354815260200190815260200160002060008201518160000155602082015181600101556040820151816002019080519060200190620003a9929190620004a0565b5060608201518160030160006101000a81548173ffffffffffffffffffffffffffffffffffffffff021916908373ffffffffffffffffffffffffffffffffffffffff16021790555060808201518160040190805190602001906200040f929190620004a0565b509050506200054f565b828054600181600116156101000203166002900490600052602060002090601f016020900481019282601f106200045c57805160ff19168380011785556200048d565b828001600101855582156200048d579182015b828111156200048c5782518255916020019190600101906200046f565b5b5090506200049c919062000527565b5090565b828054600181600116156101000203166002900490600052602060002090601f016020900481019282601f10620004e357805160ff191683800117855562000514565b8280016001018555821562000514579182015b8281111562000513578251825591602001919060010190620004f6565b5b50905062000523919062000527565b5090565b6200054c91905b80821115620005485760008160009055506001016200052e565b5090565b90565b613831806200055f6000396000f3fe6080604052600436106101145760003560e01c806389a57f8e116100a0578063ab2d4ebd11610064578063ab2d4ebd14610c0d578063b8558cbe14610cb3578063bd6ea27414610d9b578063e8c880b414610db2578063f851a44014610ddd57610114565b806389a57f8e146108505780638b0c583e146108f65780639715afe114610a895780639b56f5f014610af8578063aabd2eb214610b6757610114565b8063365b98b2116100e7578063365b98b2146103865780634309e4c6146104e75780634ea0738f146106cb57806366df3dc0146106f957806376147a0e146107e157610114565b806306fdde031461011957806307973ccf146101a95780630a752b87146101d45780633164582e1461020f575b600080fd5b34801561012557600080fd5b5061012e610e34565b6040518080602001828103825283818151815260200191508051906020019080838360005b8381101561016e578082015181840152602081019050610153565b50505050905090810190601f16801561019b5780820380516001836020036101000a031916815260200191505b509250505060405180910390f35b3480156101b557600080fd5b506101be610ed2565b6040518082815260200191505060405180910390f35b3480156101e057600080fd5b5061020d600480360360208110156101f757600080fd5b8101908080359060200190929190505050610ed8565b005b34801561021b57600080fd5b5061025e6004803603602081101561023257600080fd5b81019080803573ffffffffffffffffffffffffffffffffffffffff16906020019092919050505061104a565b60405180868152602001858152602001806020018473ffffffffffffffffffffffffffffffffffffffff1673ffffffffffffffffffffffffffffffffffffffff16815260200180602001838103835286818151815260200191508051906020019080838360005b838110156102e05780820151818401526020810190506102c5565b50505050905090810190601f16801561030d5780820380516001836020036101000a031916815260200191505b50838103825284818151815260200191508051906020019080838360005b8381101561034657808201518184015260208101905061032b565b50505050905090810190601f1680156103735780820380516001836020036101000a031916815260200191505b5097505050505050505060405180910390f35b34801561039257600080fd5b506103bf600480360360208110156103a957600080fd5b81019080803590602001909291905050506111d0565b60405180868152602001858152602001806020018473ffffffffffffffffffffffffffffffffffffffff1673ffffffffffffffffffffffffffffffffffffffff16815260200180602001838103835286818151815260200191508051906020019080838360005b83811015610441578082015181840152602081019050610426565b50505050905090810190601f16801561046e5780820380516001836020036101000a031916815260200191505b50838103825284818151815260200191508051906020019080838360005b838110156104a757808201518184015260208101905061048c565b50505050905090810190601f1680156104d45780820380516001836020036101000a031916815260200191505b5097505050505050505060405180910390f35b3480156104f357600080fd5b506105206004803603602081101561050a57600080fd5b8101908080359060200190929190505050611356565b604051808b81526020018a151515158152602001891515151581526020018881526020018773ffffffffffffffffffffffffffffffffffffffff1673ffffffffffffffffffffffffffffffffffffffff1681526020018673ffffffffffffffffffffffffffffffffffffffff1673ffffffffffffffffffffffffffffffffffffffff16815260200180602001858152602001806020018473ffffffffffffffffffffffffffffffffffffffff1673ffffffffffffffffffffffffffffffffffffffff168152602001838103835287818151815260200191508051906020019080838360005b83811015610620578082015181840152602081019050610605565b50505050905090810190601f16801561064d5780820380516001836020036101000a031916815260200191505b50838103825285818151815260200191508051906020019080838360005b8381101561068657808201518184015260208101905061066b565b50505050905090810190601f1680156106b35780820380516001836020036101000a031916815260200191505b509c5050505050505050505050505060405180910390f35b6106f7600480360360208110156106e157600080fd5b8101908080359060200190929190505050611554565b005b34801561070557600080fd5b506107df6004803603604081101561071c57600080fd5b81019080803573ffffffffffffffffffffffffffffffffffffffff1690602001909291908035906020019064010000000081111561075957600080fd5b82018360208201111561076b57600080fd5b8035906020019184600183028401116401000000008311171561078d57600080fd5b91908080601f016020809104026020016040519081016040528093929190818152602001838380828437600081840152601f19601f820116905080830192505050505050509192919290505050611cfd565b005b3480156107ed57600080fd5b5061083a6004803603604081101561080457600080fd5b81019080803573ffffffffffffffffffffffffffffffffffffffff1690602001909291908035906020019092919050505061219f565b6040518082815260200191505060405180910390f35b34801561085c57600080fd5b5061089f6004803603602081101561087357600080fd5b81019080803573ffffffffffffffffffffffffffffffffffffffff1690602001909291905050506121cd565b6040518080602001828103825283818151815260200191508051906020019060200280838360005b838110156108e25780820151818401526020810190506108c7565b505050509050019250505060405180910390f35b34801561090257600080fd5b50610a87600480360360a081101561091957600080fd5b8101908080359060200190929190803573ffffffffffffffffffffffffffffffffffffffff1690602001909291908035906020019064010000000081111561096057600080fd5b82018360208201111561097257600080fd5b8035906020019184600183028401116401000000008311171561099457600080fd5b91908080601f016020809104026020016040519081016040528093929190818152602001838380828437600081840152601f19601f820116905080830192505050505050509192919290803590602001906401000000008111156109f757600080fd5b820183602082011115610a0957600080fd5b80359060200191846001830284011164010000000083111715610a2b57600080fd5b91908080601f016020809104026020016040519081016040528093929190818152602001838380828437600081840152601f19601f82011690508083019250505050505050919291929080359060200190929190505050612264565b005b348015610a9557600080fd5b50610ae260048036036040811015610aac57600080fd5b81019080803573ffffffffffffffffffffffffffffffffffffffff16906020019092919080359060200190929190505050612ea7565b6040518082815260200191505060405180910390f35b348015610b0457600080fd5b50610b5160048036036040811015610b1b57600080fd5b81019080803573ffffffffffffffffffffffffffffffffffffffff16906020019092919080359060200190929190505050612ed5565b6040518082815260200191505060405180910390f35b348015610b7357600080fd5b50610bb660048036036020811015610b8a57600080fd5b81019080803573ffffffffffffffffffffffffffffffffffffffff169060200190929190505050612f03565b6040518080602001828103825283818151815260200191508051906020019060200280838360005b83811015610bf9578082015181840152602081019050610bde565b505050509050019250505060405180910390f35b348015610c1957600080fd5b50610c5c60048036036020811015610c3057600080fd5b81019080803573ffffffffffffffffffffffffffffffffffffffff169060200190929190505050612f9a565b6040518080602001828103825283818151815260200191508051906020019060200280838360005b83811015610c9f578082015181840152602081019050610c84565b505050509050019250505060405180910390f35b348015610cbf57600080fd5b50610d9960048036036040811015610cd657600080fd5b81019080803573ffffffffffffffffffffffffffffffffffffffff16906020019092919080359060200190640100000000811115610d1357600080fd5b820183602082011115610d2557600080fd5b80359060200191846001830284011164010000000083111715610d4757600080fd5b91908080601f016020809104026020016040519081016040528093929190818152602001838380828437600081840152601f19601f820116905080830192505050505050509192919290505050613031565b005b348015610da757600080fd5b50610db06134d3565b005b348015610dbe57600080fd5b50610dc76135bd565b6040518082815260200191505060405180910390f35b348015610de957600080fd5b50610df26135c3565b604051808273ffffffffffffffffffffffffffffffffffffffff1673ffffffffffffffffffffffffffffffffffffffff16815260200191505060405180910390f35b60018054600181600116156101000203166002900480601f016020809104026020016040519081016040528092919081815260200182805460018160011615610100020316600290048015610eca5780601f10610e9f57610100808354040283529160200191610eca565b820191906000526020600020905b815481529060010190602001808311610ead57829003601f168201915b505050505081565b60035481565b6003600760003373ffffffffffffffffffffffffffffffffffffffff1673ffffffffffffffffffffffffffffffffffffffff1681526020019081526020016000206001015414610f73576040517f08c379a00000000000000000000000000000000000000000000000000000000081526004018080602001828103825260238152602001806137da6023913960400191505060405180910390fd5b60016004600083815260200190815260200160002060010160006101000a81548160ff02191690831515021790555060006004600083815260200190815260200160002060030160009054906101000a900473ffffffffffffffffffffffffffffffffffffffff169050600860008273ffffffffffffffffffffffffffffffffffffffff1673ffffffffffffffffffffffffffffffffffffffff1681526020019081526020016000208290806001815401808255809150509060018203906000526020600020016000909192909190915055505050565b6007602052806000526040600020600091509050806000015490806001015490806002018054600181600116156101000203166002900480601f0160208091040260200160405190810160405280929190818152602001828054600181600116156101000203166002900480156111025780601f106110d757610100808354040283529160200191611102565b820191906000526020600020905b8154815290600101906020018083116110e557829003601f168201915b5050505050908060030160009054906101000a900473ffffffffffffffffffffffffffffffffffffffff1690806004018054600181600116156101000203166002900480601f0160208091040260200160405190810160405280929190818152602001828054600181600116156101000203166002900480156111c65780601f1061119b576101008083540402835291602001916111c6565b820191906000526020600020905b8154815290600101906020018083116111a957829003601f168201915b5050505050905085565b6009602052806000526040600020600091509050806000015490806001015490806002018054600181600116156101000203166002900480601f0160208091040260200160405190810160405280929190818152602001828054600181600116156101000203166002900480156112885780601f1061125d57610100808354040283529160200191611288565b820191906000526020600020905b81548152906001019060200180831161126b57829003601f168201915b5050505050908060030160009054906101000a900473ffffffffffffffffffffffffffffffffffffffff1690806004018054600181600116156101000203166002900480601f01602080910402602001604051908101604052809291908181526020018280546001816001161561010002031660029004801561134c5780601f106113215761010080835404028352916020019161134c565b820191906000526020600020905b81548152906001019060200180831161132f57829003601f168201915b5050505050905085565b60046020528060005260406000206000915090508060000154908060010160009054906101000a900460ff16908060010160019054906101000a900460ff16908060020154908060030160009054906101000a900473ffffffffffffffffffffffffffffffffffffffff16908060040160009054906101000a900473ffffffffffffffffffffffffffffffffffffffff1690806005018054600181600116156101000203166002900480601f0160208091040260200160405190810160405280929190818152602001828054600181600116156101000203166002900480156114805780601f1061145557610100808354040283529160200191611480565b820191906000526020600020905b81548152906001019060200180831161146357829003601f168201915b505050505090806006015490806007018054600181600116156101000203166002900480601f0160208091040260200160405190810160405280929190818152602001828054600181600116156101000203166002900480156115245780601f106114f957610100808354040283529160200191611524565b820191906000526020600020905b81548152906001019060200180831161150757829003601f168201915b5050505050908060080160009054906101000a900473ffffffffffffffffffffffffffffffffffffffff1690508a565b60006004600083815260200190815260200160002060080160009054906101000a900473ffffffffffffffffffffffffffffffffffffffff16905060006004600084815260200190815260200160002060010160009054906101000a900460ff1690506001341161162d576040517f08c379a00000000000000000000000000000000000000000000000000000000081526004018080602001828103825260108152602001807f57726f6e6720707269636520706169640000000000000000000000000000000081525060200191505060405180910390fd5b6003600760003373ffffffffffffffffffffffffffffffffffffffff1673ffffffffffffffffffffffffffffffffffffffff16815260200190815260200160002060010154146116c8576040517f08c379a00000000000000000000000000000000000000000000000000000000081526004018080602001828103825260238152602001806137da6023913960400191505060405180910390fd5b8173ffffffffffffffffffffffffffffffffffffffff166108fc349081150290604051600060405180830381858888f1935050505015801561170e573d6000803e3d6000fd5b50336004600085815260200190815260200160002060080160006101000a81548173ffffffffffffffffffffffffffffffffffffffff021916908373ffffffffffffffffffffffffffffffffffffffff160217905550600760003373ffffffffffffffffffffffffffffffffffffffff1673ffffffffffffffffffffffffffffffffffffffff1681526020019081526020016000206004016004600085815260200190815260200160002060070190805460018160011615610100020316600290046117db9291906135e8565b506117e461366f565b6004600085815260200190815260200160002060405180610140016040529081600082015481526020016001820160009054906101000a900460ff161515151581526020016001820160019054906101000a900460ff16151515158152602001600282015481526020016003820160009054906101000a900473ffffffffffffffffffffffffffffffffffffffff1673ffffffffffffffffffffffffffffffffffffffff1673ffffffffffffffffffffffffffffffffffffffff1681526020016004820160009054906101000a900473ffffffffffffffffffffffffffffffffffffffff1673ffffffffffffffffffffffffffffffffffffffff1673ffffffffffffffffffffffffffffffffffffffff168152602001600582018054600181600116156101000203166002900480601f0160208091040260200160405190810160405280929190818152602001828054600181600116156101000203166002900480156119925780601f1061196757610100808354040283529160200191611992565b820191906000526020600020905b81548152906001019060200180831161197557829003601f168201915b5050505050815260200160068201548152602001600782018054600181600116156101000203166002900480601f016020809104026020016040519081016040528092919081815260200182805460018160011615610100020316600290048015611a3e5780601f10611a1357610100808354040283529160200191611a3e565b820191906000526020600020905b815481529060010190602001808311611a2157829003601f168201915b505050505081526020016008820160009054906101000a900473ffffffffffffffffffffffffffffffffffffffff1673ffffffffffffffffffffffffffffffffffffffff1673ffffffffffffffffffffffffffffffffffffffff16815250509050600660003373ffffffffffffffffffffffffffffffffffffffff1673ffffffffffffffffffffffffffffffffffffffff168152602001908152602001600020816000015190806001815401808255809150509060018203906000526020600020016000909192909190915055507f0d3fe3385cab0d15b81a27a2b4fd58a078ea14c7a989a3cf027a3d0d5924ddc5816000015183836060015184608001518560a001518660c001518760e00151886101000151896101200151604051808a8152602001891515151581526020018881526020018773ffffffffffffffffffffffffffffffffffffffff1673ffffffffffffffffffffffffffffffffffffffff1681526020018673ffffffffffffffffffffffffffffffffffffffff1673ffffffffffffffffffffffffffffffffffffffff16815260200180602001858152602001806020018473ffffffffffffffffffffffffffffffffffffffff1673ffffffffffffffffffffffffffffffffffffffff168152602001838103835287818151815260200191508051906020019080838360005b83811015611c4e578082015181840152602081019050611c33565b50505050905090810190601f168015611c7b5780820380516001836020036101000a031916815260200191505b50838103825285818151815260200191508051906020019080838360005b83811015611cb4578082015181840152602081019050611c99565b50505050905090810190601f168015611ce15780820380516001836020036101000a031916815260200191505b509b50505050505050505050505060405180910390a150505050565b6000809054906101000a900473ffffffffffffffffffffffffffffffffffffffff1673ffffffffffffffffffffffffffffffffffffffff163373ffffffffffffffffffffffffffffffffffffffff1614611dbf576040517f08c379a000000000000000000000000000000000000000000000000000000000815260040180806020018281038252600c8152602001807f4e6f7420616e2061646d696e000000000000000000000000000000000000000081525060200191505060405180910390fd5b600073ffffffffffffffffffffffffffffffffffffffff168273ffffffffffffffffffffffffffffffffffffffff161415611e62576040517f08c379a000000000000000000000000000000000000000000000000000000000815260040180806020018281038252600f8152602001807f4e6f20686f73702061646472657373000000000000000000000000000000000081525060200191505060405180910390fd5b6003600760008473ffffffffffffffffffffffffffffffffffffffff1673ffffffffffffffffffffffffffffffffffffffff168152602001908152602001600020600101541415611f1b576040517f08c379a00000000000000000000000000000000000000000000000000000000081526004018080602001828103825260178152602001807f486f73706974616c20416c72656164792065786973747300000000000000000081525060200191505060405180910390fd5b6003600081548092919060010191905055506040518060a001604052806003548152602001600381526020016040518060400160405280600881526020017f486f73706974616c00000000000000000000000000000000000000000000000081525081526020018373ffffffffffffffffffffffffffffffffffffffff16815260200182815250600760008473ffffffffffffffffffffffffffffffffffffffff1673ffffffffffffffffffffffffffffffffffffffff16815260200190815260200160002060008201518160000155602082015181600101556040820151816002019080519060200190612011929190613708565b5060608201518160030160006101000a81548173ffffffffffffffffffffffffffffffffffffffff021916908373ffffffffffffffffffffffffffffffffffffffff1602179055506080820151816004019080519060200190612075929190613708565b509050506040518060a001604052806003548152602001600381526020016040518060400160405280600881526020017f486f73706974616c00000000000000000000000000000000000000000000000081525081526020018373ffffffffffffffffffffffffffffffffffffffff1681526020018281525060096000600354815260200190815260200160002060008201518160000155602082015181600101556040820151816002019080519060200190612133929190613708565b5060608201518160030160006101000a81548173ffffffffffffffffffffffffffffffffffffffff021916908373ffffffffffffffffffffffffffffffffffffffff1602179055506080820151816004019080519060200190612197929190613708565b509050505050565b600860205281600052604060002081815481106121b857fe5b90600052602060002001600091509150505481565b6060600860008373ffffffffffffffffffffffffffffffffffffffff1673ffffffffffffffffffffffffffffffffffffffff16815260200190815260200160002080548060200260200160405190810160405280929190818152602001828054801561225857602002820191906000526020600020905b815481526020019060010190808311612244575b50505050509050919050565b60608390506002600760003373ffffffffffffffffffffffffffffffffffffffff1673ffffffffffffffffffffffffffffffffffffffff1681526020019081526020016000206001015414612321576040517f08c379a00000000000000000000000000000000000000000000000000000000081526004018080602001828103825260118152602001807f4e6f74206120626c6f6f642062616e6b2e00000000000000000000000000000081525060200191505060405180910390fd5b60008151141561240957600760008673ffffffffffffffffffffffffffffffffffffffff1673ffffffffffffffffffffffffffffffffffffffff1681526020019081526020016000206004018054600181600116156101000203166002900480601f0160208091040260200160405190810160405280929190818152602001828054600181600116156101000203166002900480156124015780601f106123d657610100808354040283529160200191612401565b820191906000526020600020905b8154815290600101906020018083116123e457829003601f168201915b505050505090505b6000815111612480576040517f08c379a00000000000000000000000000000000000000000000000000000000081526004018080602001828103825260118152602001807f506c6561736520696e707574206e616d6500000000000000000000000000000081525060200191505060405180910390fd5b60008351116124f7576040517f08c379a00000000000000000000000000000000000000000000000000000000081526004018080602001828103825260148152602001807f6572726f7220696e20626c6f6f642067726f757000000000000000000000000081525060200191505060405180910390fd5b6000861161256d576040517f08c379a000000000000000000000000000000000000000000000000000000000815260040180806020018281038252600f8152602001807f6572726f7220696e20645f64617465000000000000000000000000000000000081525060200191505060405180910390fd5b8582116125e2576040517f08c379a00000000000000000000000000000000000000000000000000000000081526004018080602001828103825260118152602001807f6572726f7220696e206578705f6461746500000000000000000000000000000081525060200191505060405180910390fd5b600073ffffffffffffffffffffffffffffffffffffffff168573ffffffffffffffffffffffffffffffffffffffff161415612685576040517f08c379a000000000000000000000000000000000000000000000000000000000815260040180806020018281038252600e8152602001807f6572726f7220696e20646f6e6f7200000000000000000000000000000000000081525060200191505060405180910390fd5b6002600081548092919060010191905055506000600760008773ffffffffffffffffffffffffffffffffffffffff1673ffffffffffffffffffffffffffffffffffffffff168152602001908152602001600020600001541415612963576003600081548092919060010191905055506040518060a001604052806003548152602001600181526020016040518060400160405280600581526020017f446f6e6f7200000000000000000000000000000000000000000000000000000081525081526020018673ffffffffffffffffffffffffffffffffffffffff16815260200182815250600760008773ffffffffffffffffffffffffffffffffffffffff1673ffffffffffffffffffffffffffffffffffffffff168152602001908152602001600020600082015181600001556020820151816001015560408201518160020190805190602001906127d8929190613708565b5060608201518160030160006101000a81548173ffffffffffffffffffffffffffffffffffffffff021916908373ffffffffffffffffffffffffffffffffffffffff160217905550608082015181600401908051906020019061283c929190613708565b509050506040518060a001604052806003548152602001600181526020016040518060400160405280600581526020017f446f6e6f7200000000000000000000000000000000000000000000000000000081525081526020018673ffffffffffffffffffffffffffffffffffffffff16815260200182815250600960006003548152602001908152602001600020600082015181600001556020820151816001015560408201518160020190805190602001906128fa929190613708565b5060608201518160030160006101000a81548173ffffffffffffffffffffffffffffffffffffffff021916908373ffffffffffffffffffffffffffffffffffffffff160217905550608082015181600401908051906020019061295e929190613708565b509050505b6060600760003373ffffffffffffffffffffffffffffffffffffffff1673ffffffffffffffffffffffffffffffffffffffff1681526020019081526020016000206004018054600181600116156101000203166002900480601f016020809104026020016040519081016040528092919081815260200182805460018160011615610100020316600290048015612a3b5780601f10612a1057610100808354040283529160200191612a3b565b820191906000526020600020905b815481529060010190602001808311612a1e57829003601f168201915b50505050509050612a4a61366f565b60405180610140016040528060025481526020016000151581526020016000151581526020018981526020018873ffffffffffffffffffffffffffffffffffffffff1681526020013373ffffffffffffffffffffffffffffffffffffffff1681526020018681526020018581526020018381526020013373ffffffffffffffffffffffffffffffffffffffff168152509050806004600060025481526020019081526020016000206000820151816000015560208201518160010160006101000a81548160ff02191690831515021790555060408201518160010160016101000a81548160ff0219169083151502179055506060820151816002015560808201518160030160006101000a81548173ffffffffffffffffffffffffffffffffffffffff021916908373ffffffffffffffffffffffffffffffffffffffff16021790555060a08201518160040160006101000a81548173ffffffffffffffffffffffffffffffffffffffff021916908373ffffffffffffffffffffffffffffffffffffffff16021790555060c0820151816005019080519060200190612bf0929190613708565b5060e08201518160060155610100820151816007019080519060200190612c18929190613708565b506101208201518160080160006101000a81548173ffffffffffffffffffffffffffffffffffffffff021916908373ffffffffffffffffffffffffffffffffffffffff160217905550905050600560008873ffffffffffffffffffffffffffffffffffffffff1673ffffffffffffffffffffffffffffffffffffffff168152602001908152602001600020816000015190806001815401808255809150509060018203906000526020600020016000909192909190915055507f2757bd01f4b2db91f6fddf384748b42cc05f6ba58956005ac500628e4f1b774b60025460008a8a338a8a8933604051808a8152602001891515151581526020018881526020018773ffffffffffffffffffffffffffffffffffffffff1673ffffffffffffffffffffffffffffffffffffffff1681526020018673ffffffffffffffffffffffffffffffffffffffff1673ffffffffffffffffffffffffffffffffffffffff16815260200180602001858152602001806020018473ffffffffffffffffffffffffffffffffffffffff1673ffffffffffffffffffffffffffffffffffffffff168152602001838103835287818151815260200191508051906020019080838360005b83811015612df4578082015181840152602081019050612dd9565b50505050905090810190601f168015612e215780820380516001836020036101000a031916815260200191505b50838103825285818151815260200191508051906020019080838360005b83811015612e5a578082015181840152602081019050612e3f565b50505050905090810190601f168015612e875780820380516001836020036101000a031916815260200191505b509b50505050505050505050505060405180910390a15050505050505050565b60066020528160005260406000208181548110612ec057fe5b90600052602060002001600091509150505481565b60056020528160005260406000208181548110612eee57fe5b90600052602060002001600091509150505481565b6060600660008373ffffffffffffffffffffffffffffffffffffffff1673ffffffffffffffffffffffffffffffffffffffff168152602001908152602001600020805480602002602001604051908101604052809291908181526020018280548015612f8e57602002820191906000526020600020905b815481526020019060010190808311612f7a575b50505050509050919050565b6060600560008373ffffffffffffffffffffffffffffffffffffffff1673ffffffffffffffffffffffffffffffffffffffff16815260200190815260200160002080548060200260200160405190810160405280929190818152602001828054801561302557602002820191906000526020600020905b815481526020019060010190808311613011575b50505050509050919050565b6000809054906101000a900473ffffffffffffffffffffffffffffffffffffffff1673ffffffffffffffffffffffffffffffffffffffff163373ffffffffffffffffffffffffffffffffffffffff16146130f3576040517f08c379a000000000000000000000000000000000000000000000000000000000815260040180806020018281038252600c8152602001807f4e6f7420616e2061646d696e000000000000000000000000000000000000000081525060200191505060405180910390fd5b600073ffffffffffffffffffffffffffffffffffffffff168273ffffffffffffffffffffffffffffffffffffffff161415613196576040517f08c379a000000000000000000000000000000000000000000000000000000000815260040180806020018281038252600f8152602001807f4e6f2062616e6b2061646472657373000000000000000000000000000000000081525060200191505060405180910390fd5b6002600760008473ffffffffffffffffffffffffffffffffffffffff1673ffffffffffffffffffffffffffffffffffffffff16815260200190815260200160002060010154141561324f576040517f08c379a00000000000000000000000000000000000000000000000000000000081526004018080602001828103825260138152602001807f42616e6b20616c7265616479206578697374730000000000000000000000000081525060200191505060405180910390fd5b6003600081548092919060010191905055506040518060a001604052806003548152602001600281526020016040518060400160405280600481526020017f42616e6b0000000000000000000000000000000000000000000000000000000081525081526020018373ffffffffffffffffffffffffffffffffffffffff16815260200182815250600760008473ffffffffffffffffffffffffffffffffffffffff1673ffffffffffffffffffffffffffffffffffffffff16815260200190815260200160002060008201518160000155602082015181600101556040820151816002019080519060200190613345929190613708565b5060608201518160030160006101000a81548173ffffffffffffffffffffffffffffffffffffffff021916908373ffffffffffffffffffffffffffffffffffffffff16021790555060808201518160040190805190602001906133a9929190613708565b509050506040518060a001604052806003548152602001600281526020016040518060400160405280600481526020017f42616e6b0000000000000000000000000000000000000000000000000000000081525081526020018373ffffffffffffffffffffffffffffffffffffffff1681526020018281525060096000600354815260200190815260200160002060008201518160000155602082015181600101556040820151816002019080519060200190613467929190613708565b5060608201518160030160006101000a81548173ffffffffffffffffffffffffffffffffffffffff021916908373ffffffffffffffffffffffffffffffffffffffff16021790555060808201518160040190805190602001906134cb929190613708565b509050505050565b6001600760003373ffffffffffffffffffffffffffffffffffffffff1673ffffffffffffffffffffffffffffffffffffffff168152602001908152602001600020600101541461356e576040517f08c379a00000000000000000000000000000000000000000000000000000000081526004018080602001828103825260238152602001806137da6023913960400191505060405180910390fd5b6000600860003373ffffffffffffffffffffffffffffffffffffffff1673ffffffffffffffffffffffffffffffffffffffff168152602001908152602001600020816135ba9190613788565b50565b60025481565b6000809054906101000a900473ffffffffffffffffffffffffffffffffffffffff1681565b828054600181600116156101000203166002900490600052602060002090601f016020900481019282601f10613621578054855561365e565b8280016001018555821561365e57600052602060002091601f016020900482015b8281111561365d578254825591600101919060010190613642565b5b50905061366b91906137b4565b5090565b6040518061014001604052806000815260200160001515815260200160001515815260200160008152602001600073ffffffffffffffffffffffffffffffffffffffff168152602001600073ffffffffffffffffffffffffffffffffffffffff168152602001606081526020016000815260200160608152602001600073ffffffffffffffffffffffffffffffffffffffff1681525090565b828054600181600116156101000203166002900490600052602060002090601f016020900481019282601f1061374957805160ff1916838001178555613777565b82800160010185558215613777579182015b8281111561377657825182559160200191906001019061375b565b5b50905061378491906137b4565b5090565b8154818355818111156137af578183600052602060002091820191016137ae91906137b4565b5b505050565b6137d691905b808211156137d25760008160009055506001016137ba565b5090565b9056fe556e617574686f72697a6564207472616e73616374696f6e206f726967696e61746f72a265627a7a72315820058a8416a1172f6d260956c8b5bf3e00df9715eb8b86169a9bdd0398fef639d964736f6c63430005100032",
  "source": "pragma solidity >=0.4.21 <0.6.0;\r\n\r\n// contract DateTime {\r\n//         function getYear(uint timestamp) public returns (uint16);\r\n//         function getMonth(uint timestamp) public returns (uint8);\r\n//         function getDay(uint timestamp) public returns (uint8);\r\n// }\r\n\r\ncontract Blood{\r\n    // uint public today;\r\n    // address public dateTimeAddr = 0x66eDEfff0A0c87bA4ca2b8E73BB05787eb35908E;\r\n    address payable public admin = address(0x0935234F7D0851753dC4017985b622AC768EDd42);\r\n    // DateTime dateTime = DateTime(dateTimeAddr);\r\n    string public name;\r\n    uint public bagCount = 0;\r\n    uint public userCount = 0;\r\n    mapping(uint => Bloodbag) public bloodbags; // This is the general list of bloodbags.\r\n    mapping(address => uint[]) public donors; // Bloodbags corresponding to donors stored here.\r\n    mapping(address => uint[]) public hospitals; // Bloodbags corresponding to hospitals stored here.\r\n    mapping(address => User) public usertype; // This mapping is to identify the type of user using the website, i.e\r\n                                              // (1 = donor, 2 = bank and 3 = hospital)\r\n    mapping(address => uint[]) public notification; // Stores pending notification for used bags of donors\r\n    mapping(uint => User) public users; // List of all users\r\n\r\n    function getDbags(address payable _donor) public view returns (uint256[] memory) {\r\n        return donors[_donor];\r\n    }\r\n\r\n    function getNotification(address payable _donor) public view returns (uint256[] memory) {\r\n        return notification[_donor];\r\n    }\r\n\r\n    function getHbags(address payable _hospital) public view returns (uint256[] memory) {\r\n        return hospitals[_hospital];\r\n    }\r\n\r\n    // ALL STRUCTS\r\n\r\n    struct User {\r\n        uint id;\r\n        uint user_type;\r\n        string user;\r\n        address payable user_address;\r\n        string name;\r\n    }\r\n\r\n    struct Bloodbag {\r\n        uint id;\r\n        bool used;\r\n        bool first;\r\n        uint donation_date;\r\n        address payable donor;\r\n        address payable bank;\r\n        string blood_group;\r\n        uint expiry;\r\n        string owner_name;\r\n        address payable owner;\r\n        // uint price;\r\n    }\r\n\r\n    // ALL STRUCTS END\r\n\r\n    event BagCreated(\r\n        uint id,\r\n        bool used,\r\n        uint donation_date,\r\n        address payable donor,\r\n        address payable bank,\r\n        string blood_group,\r\n        uint expiry,\r\n        string owner_name,\r\n        address payable owner\r\n        // uint price\r\n    );\r\n\r\n    event message(string message);\r\n    event arr(uint[] array);\r\n\r\n    event bagPurchased(\r\n        uint id,\r\n        bool used,\r\n        uint donation_date,\r\n        address payable donor,\r\n        address payable bank,\r\n        string blood_group,\r\n        uint expiry,\r\n        string owner_name,\r\n        address payable owner\r\n        // uint price\r\n    );\r\n\r\n    constructor() public{\r\n        name = \"Pranav Gor\";\r\n        userCount ++;\r\n        usertype[admin] = User(userCount, 14, \"Admin\", admin, \"Pranav\");\r\n        users[userCount] = User(userCount, 14, \"Admin\", admin, \"Pranav\");\r\n    }\r\n\r\n    function createBloodbag(uint _donation_date, address payable _donor, string memory _donor_name,\r\n     string memory _blood_group, uint _expiry) public {\r\n        // Require valid params\r\n        string memory d_name = _donor_name;\r\n        require(usertype[msg.sender].user_type == 2, \"Not a blood bank.\");\r\n        if(bytes(d_name).length == 0){\r\n            d_name = usertype[_donor].name;\r\n        }\r\n        require(bytes(d_name).length > 0, \"Please input name\");\r\n        require(bytes(_blood_group).length > 0, \"error in blood group\");\r\n        require(_donation_date > 0, \"error in d_date\");\r\n        require(_expiry > _donation_date, \"error in exp_date\");\r\n        require(_donor != address(0), \"error in donor\");\r\n        // Increment bag count\r\n        bagCount ++;\r\n        // Date related stuff\r\n        // Add donor and set type = 1 if not already exists.\r\n        if (usertype[_donor].id == 0){\r\n            userCount++;\r\n            usertype[_donor] = User(userCount, 1, \"Donor\", _donor, d_name);\r\n            users[userCount] = User(userCount, 1, \"Donor\",_donor, d_name);\r\n        }\r\n        // Create the Blood bag\r\n        string memory _owner_name = usertype[msg.sender].name;\r\n        Bloodbag memory temp_bloodbag = Bloodbag(bagCount, false, false, _donation_date, _donor, msg.sender, _blood_group, _expiry,\r\n        _owner_name, msg.sender);\r\n        bloodbags[bagCount] = temp_bloodbag;\r\n        // add bag to specific donor's list\r\n        donors[_donor].push(temp_bloodbag.id);\r\n        // Trigger an event\r\n        emit BagCreated(bagCount, false, _donation_date, _donor, msg.sender, _blood_group, _expiry,\r\n        _owner_name, msg.sender);\r\n    }\r\n\r\n    function createBank(address payable _bank, string memory _name) public {\r\n        require(msg.sender == admin,\"Not an admin\");\r\n        require(_bank != address(0),\"No bank address\");\r\n        require(usertype[_bank].user_type != 2,\"Bank already exists\");\r\n        userCount++;\r\n        usertype[_bank] = User(userCount, 2, \"Bank\",_bank, _name);\r\n        users[userCount] = User(userCount, 2, \"Bank\",_bank, _name);\r\n    }\r\n\r\n    function createHosp(address payable _hosp, string memory _name) public {\r\n        require(msg.sender == admin,\"Not an admin\");\r\n        require(_hosp != address(0),\"No hosp address\");\r\n        require(usertype[_hosp].user_type != 3,\"Hospital Already exists\");\r\n        userCount++;\r\n        usertype[_hosp] = User(userCount, 3, \"Hospital\",_hosp, _name);\r\n        users[userCount] = User(userCount, 3, \"Hospital\",_hosp, _name);\r\n    }\r\n\r\n    function h_placeOrder(uint bag_id) public payable {\r\n        // Fetch the owner\r\n        address payable _seller = bloodbags[bag_id].owner;\r\n        bool used = bloodbags[bag_id].used;\r\n        require(msg.value > 1, 'Wrong price paid');\r\n        require(usertype[msg.sender].user_type == 3, 'Unauthorized transaction originator');\r\n        address(_seller).transfer(msg.value);\r\n        //Transfer ownership\r\n        bloodbags[bag_id].owner = msg.sender;\r\n        bloodbags[bag_id].owner_name = usertype[msg.sender].name;\r\n        Bloodbag memory _bloodbag = bloodbags[bag_id];\r\n        hospitals[msg.sender].push(_bloodbag.id);\r\n        emit bagPurchased(_bloodbag.id, used, _bloodbag.donation_date, _bloodbag.donor, _bloodbag.bank,\r\n         _bloodbag.blood_group,_bloodbag.expiry,_bloodbag.owner_name,_bloodbag.owner);\r\n    }\r\n\r\n    function useBag(uint bag_id) public {\r\n        require(usertype[msg.sender].user_type == 3, 'Unauthorized transaction originator');\r\n        bloodbags[bag_id].used = true;\r\n        address donor = bloodbags[bag_id].donor;\r\n        notification[donor].push(bag_id);\r\n    }\r\n\r\n    function gotIt() public {\r\n        require(usertype[msg.sender].user_type == 1, 'Unauthorized transaction originator');\r\n        notification[msg.sender].length = 0;\r\n    }\r\n}\r\n",
  "sourcePath": "O:\\Pranav\\GitHub\\Ethereum_Blockchain_BloodSupplyChain\\src\\contracts\\Blood.sol",
  "compiler": {
    "name": "solc",
    "version": "0.5.16+commit.9c3226ce.Emscripten.clang"
  },
  "schemaVersion": "3.0.23",
  "updatedAt": "2020-05-05T20:00:04.793Z",
  "networkType": "ethereum",
  "devdoc": {
    "methods": {}
  },
  "userdoc": {
    "methods": {}
  }
}