{
  "contractName": "Hospital",
  "abi": [
    {
      "inputs": [],
      "payable": false,
      "stateMutability": "nonpayable",
      "type": "constructor"
    },
    {
      "constant": true,
      "inputs": [],
      "name": "Hid",
      "outputs": [
        {
          "internalType": "string",
          "name": "",
          "type": "string"
        }
      ],
      "payable": false,
      "stateMutability": "view",
      "type": "function"
    },
    {
      "constant": true,
      "inputs": [],
      "name": "b",
      "outputs": [
        {
          "internalType": "address payable",
          "name": "",
          "type": "address"
        }
      ],
      "payable": false,
      "stateMutability": "view",
      "type": "function"
    },
    {
      "constant": true,
      "inputs": [
        {
          "internalType": "uint256",
          "name": "",
          "type": "uint256"
        }
      ],
      "name": "bag",
      "outputs": [
        {
          "internalType": "uint256",
          "name": "id",
          "type": "uint256"
        },
        {
          "internalType": "address payable",
          "name": "donor",
          "type": "address"
        },
        {
          "internalType": "address payable",
          "name": "bank",
          "type": "address"
        },
        {
          "internalType": "address payable",
          "name": "owner",
          "type": "address"
        },
        {
          "internalType": "address payable",
          "name": "hospital",
          "type": "address"
        },
        {
          "internalType": "string",
          "name": "owner_name",
          "type": "string"
        },
        {
          "internalType": "uint256",
          "name": "expiry",
          "type": "uint256"
        }
      ],
      "payable": false,
      "stateMutability": "view",
      "type": "function"
    },
    {
      "constant": true,
      "inputs": [],
      "name": "bagcount",
      "outputs": [
        {
          "internalType": "uint256",
          "name": "",
          "type": "uint256"
        }
      ],
      "payable": false,
      "stateMutability": "view",
      "type": "function"
    },
    {
      "constant": true,
      "inputs": [],
      "name": "d",
      "outputs": [
        {
          "internalType": "address payable",
          "name": "",
          "type": "address"
        }
      ],
      "payable": false,
      "stateMutability": "view",
      "type": "function"
    },
    {
      "constant": true,
      "inputs": [],
      "name": "h",
      "outputs": [
        {
          "internalType": "address payable",
          "name": "",
          "type": "address"
        }
      ],
      "payable": false,
      "stateMutability": "view",
      "type": "function"
    },
    {
      "constant": true,
      "inputs": [],
      "name": "o",
      "outputs": [
        {
          "internalType": "address payable",
          "name": "",
          "type": "address"
        }
      ],
      "payable": false,
      "stateMutability": "view",
      "type": "function"
    },
    {
      "constant": true,
      "inputs": [],
      "name": "thresh",
      "outputs": [
        {
          "internalType": "uint256",
          "name": "",
          "type": "uint256"
        }
      ],
      "payable": false,
      "stateMutability": "view",
      "type": "function"
    }
  ],
  "bytecode": "0x608060405273fbd5f41d8817a1b779df826d556658be066e54c76000806101000a81548173ffffffffffffffffffffffffffffffffffffffff021916908373ffffffffffffffffffffffffffffffffffffffff16021790555073bd7145686cddccf191393b4852e81ba5b2ffdc08600160006101000a81548173ffffffffffffffffffffffffffffffffffffffff021916908373ffffffffffffffffffffffffffffffffffffffff16021790555073f66406428ddb5dea2f506b19fd5dadccf135b950600260006101000a81548173ffffffffffffffffffffffffffffffffffffffff021916908373ffffffffffffffffffffffffffffffffffffffff16021790555073f66406428ddb5dea2f506b19fd5dadccf135b950600360006101000a81548173ffffffffffffffffffffffffffffffffffffffff021916908373ffffffffffffffffffffffffffffffffffffffff1602179055506000600555600360065534801561016d57600080fd5b506040518060400160405280600981526020017f4869692074686572650000000000000000000000000000000000000000000000815250600490805190602001906101b99291906101bf565b50610264565b828054600181600116156101000203166002900490600052602060002090601f016020900481019282601f1061020057805160ff191683800117855561022e565b8280016001018555821561022e579182015b8281111561022d578251825591602001919060010190610212565b5b50905061023b919061023f565b5090565b61026191905b8082111561025d576000816000905550600101610245565b5090565b90565b6106c5806102736000396000f3fe608060405234801561001057600080fd5b50600436106100885760003560e01c8063b8c9d3651161005b578063b8c9d365146101ee578063dfa50ca214610238578063e404b708146103b9578063fb8f08bd146103d757610088565b80634df7e3d01461008d57806350cd4df2146100d7578063724d1c9f146101215780638a054ac2146101a4575b600080fd5b6100956103f5565b604051808273ffffffffffffffffffffffffffffffffffffffff1673ffffffffffffffffffffffffffffffffffffffff16815260200191505060405180910390f35b6100df61041b565b604051808273ffffffffffffffffffffffffffffffffffffffff1673ffffffffffffffffffffffffffffffffffffffff16815260200191505060405180910390f35b610129610441565b6040518080602001828103825283818151815260200191508051906020019080838360005b8381101561016957808201518184015260208101905061014e565b50505050905090810190601f1680156101965780820380516001836020036101000a031916815260200191505b509250505060405180910390f35b6101ac6104df565b604051808273ffffffffffffffffffffffffffffffffffffffff1673ffffffffffffffffffffffffffffffffffffffff16815260200191505060405180910390f35b6101f6610504565b604051808273ffffffffffffffffffffffffffffffffffffffff1673ffffffffffffffffffffffffffffffffffffffff16815260200191505060405180910390f35b6102646004803603602081101561024e57600080fd5b810190808035906020019092919050505061052a565b604051808881526020018773ffffffffffffffffffffffffffffffffffffffff1673ffffffffffffffffffffffffffffffffffffffff1681526020018673ffffffffffffffffffffffffffffffffffffffff1673ffffffffffffffffffffffffffffffffffffffff1681526020018573ffffffffffffffffffffffffffffffffffffffff1673ffffffffffffffffffffffffffffffffffffffff1681526020018473ffffffffffffffffffffffffffffffffffffffff1673ffffffffffffffffffffffffffffffffffffffff16815260200180602001838152602001828103825284818151815260200191508051906020019080838360005b8381101561037857808201518184015260208101905061035d565b50505050905090810190601f1680156103a55780820380516001836020036101000a031916815260200191505b509850505050505050505060405180910390f35b6103c1610684565b6040518082815260200191505060405180910390f35b6103df61068a565b6040518082815260200191505060405180910390f35b600160009054906101000a900473ffffffffffffffffffffffffffffffffffffffff1681565b600260009054906101000a900473ffffffffffffffffffffffffffffffffffffffff1681565b60048054600181600116156101000203166002900480601f0160208091040260200160405190810160405280929190818152602001828054600181600116156101000203166002900480156104d75780601f106104ac576101008083540402835291602001916104d7565b820191906000526020600020905b8154815290600101906020018083116104ba57829003601f168201915b505050505081565b6000809054906101000a900473ffffffffffffffffffffffffffffffffffffffff1681565b600360009054906101000a900473ffffffffffffffffffffffffffffffffffffffff1681565b60076020528060005260406000206000915090508060000154908060010160009054906101000a900473ffffffffffffffffffffffffffffffffffffffff16908060020160009054906101000a900473ffffffffffffffffffffffffffffffffffffffff16908060030160009054906101000a900473ffffffffffffffffffffffffffffffffffffffff16908060040160009054906101000a900473ffffffffffffffffffffffffffffffffffffffff1690806005018054600181600116156101000203166002900480601f0160208091040260200160405190810160405280929190818152602001828054600181600116156101000203166002900480156106745780601f1061064957610100808354040283529160200191610674565b820191906000526020600020905b81548152906001019060200180831161065757829003601f168201915b5050505050908060060154905087565b60065481565b6005548156fea265627a7a72315820653b9779840150176d7e795a10021185236ea5e2a9e6945cb54daadb479c170464736f6c63430005100032",
  "source": "pragma solidity >=0.4.21 <0.6.6;\r\n\r\ncontract Hospital {\r\n    //satic for now\r\n    address payable public d = 0xFBd5f41D8817A1b779dF826D556658bE066e54C7;\r\n    address payable public b = 0xBD7145686Cddccf191393b4852e81Ba5B2ffDC08;\r\n    address payable public o = 0xf66406428ddb5dea2F506B19Fd5DadCCF135b950;\r\n    address payable public h = 0xf66406428ddb5dea2F506B19Fd5DadCCF135b950;\r\n\r\n    string public Hid;\r\n\r\n\r\n    uint public bagcount = 0;\r\n    uint public thresh = 3;\r\n    mapping(uint => Bag) public bag;\r\n\r\n    struct Bag{\r\n        uint id;\r\n        address payable donor;\r\n        address payable bank;\r\n        address payable owner;\r\n        address payable hospital;\r\n        string owner_name;\r\n        uint expiry;\r\n    }\r\n\r\n    // Bag[] public bags;\r\n\r\n    constructor() public {\r\n        // for (uint i = 0; i <= thresh; i++){\r\n        //     bagcount = bagcount + 1;\r\n        //     bags.push(bagcount, d1, b, o, h, 'ABC hospital', 10);\r\n        // }\r\n        // for (uint i = 0; i <= thresh; i++){\r\n        // bag[bagcount] = Bag(bagcount, d, b, o, h, 'ABC', 10);\r\n        // bagcount ++;\r\n        // }\r\n        Hid = 'Hii there';\r\n        \r\n    }\r\n\r\n}",
  "sourcePath": "C:\\Users\\Anonym\\Documents\\GitHub\\Ethereum_Blockchain_BloodSupplyChain\\src\\contracts\\Hospital.sol",
  "compiler": {
    "name": "solc",
    "version": "0.5.16+commit.9c3226ce.Emscripten.clang"
  },
  "schemaVersion": "3.0.23",
  "updatedAt": "2020-02-27T20:11:06.328Z",
  "devdoc": {
    "methods": {}
  },
  "userdoc": {
    "methods": {}
  }
}